S00D0000736D6172742E73726563F0
S1130000F8FF0020110400005537000055370000A8
S113001055370000553700005537000055370000AC
S1130020553700005537000055370000553700009C
S1130030553700005537000055370000553700008C
S1130040553700005537000055370000553700007C
S1130050553700005537000055370000553700006C
S1130060553700005537000055370000553700005C
S1130070553700005537000055370000553700004C
S1130080553700005537000055370000553700003C
S1130090553700005537000055370000553700002C
S11300A0553700005537000055370000553700001C
S11300B0553700005537000055370000553700000C
S11300C055370000553700005537000055370000FC
S11300D055370000553700005537000055370000EC
S11300E055370000553700005537000055370000DC
S11300F055370000553700005537000055370000CC
S113010055370000553700005537000055370000BB
S113011055370000553700005537000055370000AB
S1130120553700005537000055370000553700009B
S1130130553700005537000055370000553700008B
S1130140553700005537000055370000553700007B
S1130150553700005537000079130000553700006B
S1130160553700005537000055370000553700005B
S1130170553700005537000055370000553700004B
S1130180553700005537000055370000553700003B
S1130190553700005537000055370000553700002B
S11301A0553700004D0500009D050000553700003F
S11301B0553700005537000055370000553700000B
S11301C055370000553700005537000055370000FB
S11301D055370000553700005537000055370000EB
S11301E055370000553700005537000055370000DB
S1130400FFFFFFFFFFFFFFFFFFFFFFFFFEFFFFFFF9
S11304104FF000004FF000014FF000024FF00003D6
S11304204FF000044FF000054FF000064FF00007B6
S11304304FF000084FF000094FF0000A4FF0000B96
S11304404FF0000C62B602F05BFFFEE780B500F0EF
S113045015F801F0A5F800209A49086000209A498F
S113046008600020984908600320974908605A20D2
S113047001F071F9592001F06EF901BD93489449D6
S113048008609448944908605FF07E50934908607E
S11304909348006840060FD59248006830F0080081
S11304A090490860904891490860914891490860D2
S11304B023209149086044E09048006840070FD524
S11304C08848006830F02000864908608C488749D5
S11304D0086087488749086023208749086030E01E
S11304E086480068C0060FD57E48006830F08070EA
S11304F07C49086083487D4908607D487D490860DF
S113050023207D4908601CE07C48006840060FD524
S11305107448006830F00070724908607A48734982
S1130520086073487349086023207349086008E031
S113053076486E4908606E486E49086023206E490B
S11305400860704780B500F0FBF801BD80B57048C5
S1130550006850F080706E490860002059490860B6
S11305605A2001F0F8F80520DFF8081E0968DFF8C2
S1130570042E126892FBF0F200FB1210002805D141
S11305806448006890F0200062490860DFF8E40DD8
S11305900068401CDFF8DC1D086001BD80B55E48C2
S11305A0006850F080705C49086046480068401C50
S11305B044490860DFF8FC0D007800280ED141485A
S11305C0006869287ADB0120DFF8E81D0870002044
S11305D0524908600320524908606FE0DFF8D40DE7
S11305E00078012856D14D480068142806DB4C4891
S11305F00068032802D10220494908603148006894
S113060030490968464A126891FBF2F1444A12687B
S113061002FB1100002834D1002042490860012067
S1130620404908605FF0FF303F490968401A3F497C
S11306300968B0FBF1F00728F4D33D48374909684D
S1130640A22202FB01003B490860002006E0491C8D
S11306500329FCDB00BF00BF00BF401CA2280BDA4B
S113066035490968090A354A116034490968314A2B
S1130670126881540021EBE728480068401C274990
S11306800860264800683C2818DB0220DFF8241D97
S1130690087013E0DFF81C0D007802280ED0DFF894
S11306A0140D0078032809D15A2001F0CCF8592000
S11306B001F051F80020DFF8FC1C0870462001F01E
S11306C04AF801BDE404FF1F2871034000001643EB
S11306D08004FF1F00008C428404FF1F8804FF1F56
S11306E0D0F00F4000F10F400000E040142FFF1F36
S11306F09A99193F182FFF1F102FFF1F10F10F4059
S11307006666E640CDCCEC403333F3409A99F94029
S113071018B0044080F00F4000C00440E804FF1FFC
S1130720F404FF1F38710340347103407004FF1F49
S1130730BC08FF1FF004FF1F90F00F40C02EFF1FE6
S11307402DE9F04700210020DFF8082D106000207B
S1130750DFF8042D10600020DFF8002D1060012068
S1130760DFF8542C1070002034E0DFF8F42CDFF8AC
S1130770E83C1B6822F82300DFF8402C32F91120F2
S1130780DFF8DC3CDFF8D04C246813EB84035A8098
S1130790DFF8C42C1268521CDFF8BC3C1A60DFF886
S11307A0C42CDFF8B83C1B6822F82300DFF8B82C0F
S11307B032F91110DFF8AC2CDFF8A03C1B6812EB07
S11307C083025180DFF8941C0968491CDFF88C2CE3
S11307D01160401C3C2880F2FA800021DFF88C2C48
S11307E011800021DFF8882C1180DFF8881CA222F8
S11307F002FB001191F8A110AB2907DB0021DFF8FF
S1130800BC2BDFF8683C1B8822F81310A1271AE0E0
S1130810DFF8601CA22202FB0011791811F8011CF8
S1130820AB291ADAD7F1A201DFF83C2CDFF83C3C03
S11308301B8822F81310DFF8341C0988491CDFF8E0
S11308402C2C11807F1E012F34DBDFF8281CA22200
S113085002FB0011795CAB29DADADFF8181CA2225A
S113086002FB0011795CAB291ADADFF8081CA2221A
S113087002FB0011791811F8011CAB2910DBD7F128
S1130880A101DFF8382BDFF8E43B1B8822F81310B2
S1130890DFF8DC1B0988491CDFF8D42B1180D1E771
S11308A0DFF8C81B09880A2904DADFF8C41B0988A1
S11308B00A29C7DBDFF8BC1BA22202FB001109785E
S11308C0AB2913DBDFF8A41B09880A290EDAA1215E
S11308D0DFF8942BDFF8943B1B8822F81310DFF821
S11308E08C1B0988491CDFF8842B1180DFF8C81A97
S11308F00978002966D00022DFF8701B09880029D6
S11309003FF467AFDFF8601B0988DFF8B03A1B8853
S1130910C91A012715E0DFF8503B33F81730DFF828
S11309209C4A34F817401B1B8B4209DBDFF8381B49
S113093031F81710DFF8842A32F81720891A3A00A0
S11309407F1CDFF8283B1B889F42E4DB3D29FFF630
S113095040AF0021DFF8603A1970DFF8041BDFF8BC
S1130960F83A1B6821F82300DFF8501A31F9121005
S1130970DFF8EC3ADFF8E04A246813EB840359808B
S1130980DFF8D41A0968491CDFF8CC3A1960DFF89B
S1130990D41ADFF8C83A1B6821F82300DFF8C81A14
S11309A031F91210DFF8BC2ADFF8B03A1B6812EBF9
S11309B083025180DFF8A41A0968491CDFF89C2AD5
S11309C0116006E7DFF8A41A0988002931D1DFF89D
S11309D08C0A0068DFF87C1A0860002500260022D3
S11309E00023002100200024DFF8747ADFF864CAB1
S11309F0DCF800C017EB8C0737F9027CDFF860CA1B
S1130A00BCF902C0B7EB0C07002F00F11081DFF82E
S1130A10502ADFF8403A1B6812EB830232F9022CA9
S1130A20DFF83C3AB3F90230D21ADFF8E03A1A6040
S1130A300EE100270021DFF8D82A11701FE0DFF84B
S1130A40202ADFF8143A1B6812EB830232F9022CD5
S1130A50891ADFF8C02A1160DFF8B81A096800297A
S1130A600CD4DFF8B41ADFF8A82A12785754DFF848
S1130A70A01A0978491CDFF8982A11707F1CDFF846
S1130A80EC1909888F4230DADFF8DC1931F81710D5
S1130A90DFF8D029DFF8C4391B6812EB830232F97E
S1130AA0022C914204DADFF8C01931F8171008E07B
S1130AB0DFF8B019DFF8A429126811EB820131F9CB
S1130AC0021CDFF8F82832F81720DFF89439DFF831
S1130AD08849246813EB840333F9023C9A42AEDB61
S1130AE0DFF8D82832F81720B2E7DFF8241A09789B
S1130AF001293AD1DFF86819DFF85C29126821F876
S1130B002200DFF8B818DFF8102A127831F9121031
S1130B10DFF84C29DFF840391B6812EB830251805F
S1130B20DFF834190968491CDFF82C291160DFF853
S1130B303419DFF82829126821F82200DFF828196F
S1130B40DFF8D429127831F91210DFF81829DFF808
S1130B500C391B6812EB83025180DFF80019096815
S1130B60491CDFF8F828116033E6DFF8A419097886
S1130B7000293FF42CAF0021DFF84028DFF8983932
S1130B801B7832F81320DFF8E038DFF88C4924783A
S1130B9033F8143013FA82F2022392FBF3F2DFF8F3
S1130BA0C038DFF8B448246813EB840333F9023CFB
S1130BB0DFF8B048DFF8A4582D6814EB850434F945
S1130BC0024C04FA83F3022493FBF4F39C1A002CE2
S1130BD001D49C1A00E0D41A012702E09C1A3900BF
S1130BE07F1CDFF82C2912789742BFF6BEADDFF8E0
S1130BF0CC27DFF824597D5D32F81520DFF86858DA
S1130C00DFF81469BE5D35F8165015FA82F2022534
S1130C1092FBF5F2D51A002D01D4D51A00E09D1AE5
S1130C20A542DDDAD11A0029D8D4D41AD7E7DFF8DF
S1130C303028B2F90220DFF82838DFF818783F6846
S1130C4013EB870333F9023CD21ADFF8C0381A6079
S1130C50DFF81028DFF8FC371B6812EB830232F947
S1130C60022CDFF80038B3F90230D21A002A11D46A
S1130C70DFF8F027DFF8DC371B6812EB830232F968
S1130C80022CDFF8E037B3F90230D21ADFF88C38DF
S1130C901A6010E0DFF8CC27B2F90220DFF8C4377D
S1130CA0DFF8B0773F6813EB870333F9023CD21ABD
S1130CB0DFF868381A60002211E0DFF8A43713EB7C
S1130CC08203B3F902300B2B08DADFF8983713EB01
S1130CD08203B3F90230962B00DB641C521CDFF84C
S1130CE074371B689A42E8DB00220CE0DFF87437A3
S1130CF013EB8203B3F90230962B03DB6D1C012D39
S1130D0000D11000521CDFF84C371B689A420CDAF1
S1130D10DFF84C3713EB8203B3F902300B2BE5DA1F
S1130D20761C012EEED11100ECE7DFF828271268BB
S1130D30152A01DB142202E0DFF818271268964214
S1130D4001DB0B2D09DBDFF8D4271268642A04DAEF
S1130D50DFF8B8271268332A6DDA04292BDA002762
S1130D60DFF8F0060068874280F20E81DFF8F406AF
S1130D7010EB8700B0F90200DFF8E41611EB8701ED
S1130D80B1F90210401A022190FBF1F0DFF8D416F9
S1130D9031F82710DFF8882722F82710DFF8C41667
S1130DA011EB87014988081ADFF8741711EB8701E2
S1130DB048807F1CD4E70027DFF898060068874244
S1130DC080F2E280DFF89C0610EB8700B0F90200A5
S1130DD0DFF88C1611EB8701B1F90210401A0221D9
S1130DE090FBF1FADFF87C0630F82700DFF83017C3
S1130DF021F82700DFF86C0610EB8700B0F9020039
S1130E0000F09AFD80468946504600F095FD002288
S1130E10DFF8103700F0A6FD02000B0040464946FB
S1130E2000F082FE00F040FFDFF8F41611EB8701BA
S1130E3048807F1CC0E70B2E0BDADFF81816096810
S1130E40152901DB142102E0DFF8081609688D4238
S1130E5009DADFF8B8160968642904DADFF8BC1681
S1130E60096833296ADA04282BDA0027DFF8E40555
S1130E700068874280F28880DFF8E80510EB87007D
S1130E80B0F90200DFF8D81511EB8701B1F90210AF
S1130E90401A022190FBF1F0DFF8C81531F8271051
S1130EA0DFF87C2622F82710DFF8B41511EB870150
S1130EB049884018DFF8681611EB870148807F1CC9
S1130EC0D4E70027DFF88C05006887425CDADFF896
S1130ED0940510EB8700B0F90200DFF8841511EBDC
S1130EE08701B1F90210401A022190FBF1FADFF8F0
S1130EF0740530F82700DFF8281621F82700DFF8FA
S1130F00600510EB8700B0F9020000F015FD804683
S1130F108946504600F010FD0022DFF8083600F044
S1130F2021FD42464B4600F0E5FE00F0BDFEDFF831
S1130F30F01511EB870148807F1CC3E700271EE0F2
S1130F40DFF8200530F82700DFF8D41521F8270052
S1130F50DFF8100510EB8700B0F90200DFF8001588
S1130F6011EB8701B1F9021001FA80F0022190FB24
S1130F70F1F0DFF8AC1511EB870148807F1CDFF836
S1130F80DC0400688742DBDB0A2C29DB152E27DB17
S1130F90152D25DB00271EE0DFF8C80430F82700F4
S1130FA0DFF87C1521F82700DFF8B80410EB870080
S1130FB0B0F90200DFF8A81411EB8701B1F90210AF
S1130FC001FA80F0022190FBF1F0DFF8541511EBE7
S1130FD0870148807F1CDFF8840400688742DBDBDC
S1130FE00020DFF8441508600020DFF84015086091
S1130FF0002726E0DFF8280510EB8700B0F902008F
S1131000001EA3281CD2DFF824050068DFF81015A1
S113101031F927104018DFF814150860DFF80805C7
S11310200068DFF8FC1411EB8701B1F90210DFF856
S1131030F02432F9272011FB0200DFF8EC140860D9
S11310407F1CDFF810040068322803DADFF8040498
S1131050006800E032208742CCDBDFF8D00400686F
S113106001280ADBDFF8C0040068DFF8C01409684F
S113107090FBF1F0DFF8B8140860DFF8B4040068FE
S1131080002804D50020DFF8A814086008E0DFF881
S1131090A0040068A32803DBA220DFF894140860EE
S11310A0DFF88C040068DFF88C140968401A002803
S11310B007D4DFF87C040068DFF878140968401A64
S11310C006E0DFF870040068DFF864140968401A69
S11310D05B2805DBDFF85C040068DFF85414086063
S11310E000F0CAF9DFF850040078002800F02681E7
S11310F00521DFF8480400F037FF42F6D31424B288
S11311004FF4807194FBF1F000FB1140C0B200F089
S113111024FF24B24FF4807094FBF0F0C0B200F0CE
S11311201CFFDFF81C04B0F9004024B24FF48071B6
S113113094FBF1F000FB1140C0B200F00EFF24B2AA
S11311404FF4807094FBF0F0C0B200F006FF3C2432
S113115024B24FF4807194FBF1F000FB1140C0B253
S113116000F0FBFE24B24FF4807094FBF0F0C0B2A8
S113117000F0F3FEA22424B24FF4807194FBF1F04A
S113118000FB1140C0B200F0E8FE24B24FF48070BE
S113119094FBF0F0C0B200F0E0FEAA2424B24FF4B5
S11311A0807194FBF1F000FB1140C0B200F0D5FE59
S11311B024B24FF4807094FBF0F0C0B200F0CDFE86
S11311C0502424B24FF4807194FBF1F000FB1140E1
S11311D0C0B200F0C2FE24B24FF4807094FBF0F071
S11311E0C0B200F0BAFE502424B24FF4807194FBD4
S11311F0F1F000FB1140C0B200F0AFFE24B24FF496
S1131200807094FBF0F0C0B200F0A7FE42F2F851F7
S1131210984800F0A9FEC648046824B24FF48071CF
S113122094FBF1F000FB1140C0B200F096FE24B232
S11312304FF4807094FBF0F0C0B200F08EFE86484C
S1131240046824B24FF4807194FBF1F000FB114068
S1131250C0B200F082FE24B24FF4807094FBF0F030
S1131260C0B200F07AFE00270DE002217C4810EBAA
S1131270870000F079FE0221794810EB8700801C7A
S113128000F072FE7F1C502FEFDB7448046824B218
S11312904FF4807194FBF1F000FB1140C0B200F0F8
S11312A05CFE24B24FF4807094FBF0F0C0B200F006
S11312B054FE00270DE002216A4810EB870000F07D
S11312C053FE0221674810EB8700801C00F04CFE9F
S11312D07F1C502FEFDB5F48046824B24FF4807109
S11312E094FBF1F000FB1140C0B200F036FE24B2D2
S11312F04FF4807094FBF0F0C0B200F02EFE002793
S11313000DE00221864810EB870000F02DFE02213B
S1131310834810EB8700801C00F026FE7F1C502FB2
S1131320EFDB0521874800F01FFE0521864800F009
S11313301BFE83480088401C8149088003201D4906
S1131340087082480068401C8049086005207F4975
S113135009687E4A126892FBF0F200FB1210002822
S113136005D17B48006890F0806079490860BDE849
S1131370F0870000F804FF1F80B50120754908605C
S113138000207549086003207349086073480068A9
S113139000B2734908600020704908607048006812
S11313A07049486000F00CF86F480068401C6E49B2
S11313B0086001BD3E2FFF1F3F2FFF1FC42EFF1FDC
S11313C080B56948006843F69921884202DB002011
S11313D0664908606548006840426249086061489F
S11313E000F03EF96249086061480068B0F57A7F10
S11313F004DD4FF47A705E49086007E05C480068D9
S113140010F57A7F02DA5B48594908605848006849
S1131410022190FBF1F010F5FA70002807D454482B
S11314200068022190FBF1F010F5FA7007E05048D3
S11314300068022190FBF1F010F5FA70404280B28E
S11314404D4908604D48006850F400704B490860ED
S113145001BD0000B42EFF1FB82EFF1FBC2EFF1FBE
S11314603C06FF1F7C07FF1FD82EFF1F382FFF1FCE
S11314703A2FFF1FBC08FF1F10B52D480068D0F19C
S113148051003F4908603E48006800F093FD3D4923
S1131490096800F0A7FD3C4900F010FE040038483C
S11314A000683A490968401A00F084FD384909681F
S11314B000F098FD210000F001FE00F041FE3549E6
S11314C008602F480068314908603248006842F2D9
S11314D0E221884204DA42F2E1202E49086009E060
S11314E02C48006842F23851884203DB42F23850FB
S11314F0284908602748006880B2274908602748BF
S1131500006850F400702549086010BD242FFF1FA7
S1131510402FFF1FEC2EFF1FF02EFF1F282FFF1F51
S1131520FC04FF1F0000F43FFC2EFF1F002FFF1FD1
S11315305C04FF1F6004FF1F412FFF1FD83700000A
S11315403C2FFF1FE0370000E8370000EC04FF1FCA
S113155000F10F402C7103402871034004900340B4
S11315601C2FFF1F8C04FF1F2C2FFF1F102FFF1F8A
S1131570202FFF1F18FCFFFF388003409880034092
S1131580042FFF1F142FFF1F00301046082FFF1FCA
S1131590182FFF1F0C2FFF1F10800B4098800B404B
S11315A080B500F003F800F024F801BD00202249C2
S11315B0086000202049486000201F4988600020FE
S11315C01D49C8601D4800681B4908611C48006823
S11315D0194948611B480068174988614FF47A70BB
S11315E01549C861184814490862002012498862E4
S11315F07047002015490860002014494860002005
S11316001249886000201149C860114800680F49D8
S11316100861104800680D4948610F4800680B498B
S113162088614FF496700949C8610C4807490862FB
S113163000200649486270478C04FF1F8004FF1F86
S11316408404FF1F8804FF1F18FCFFFFB804FF1F5A
S11316507404FF1F7C04FF1F7804FF1FD4FEFFFFE8
S11316602DE9F041040020686168451AA068281A31
S1131670E168461AA560E060291E012920D3A76A03
S113168000F098FC216900F0ADFC8046280000F0D1
S113169091FC616900F0A6FC414600F00FFD0500D5
S11316A0300000F087FCA16900F09CFC290000F0E8
S11316B005FD00F045FD0A2190FBF1F0C019A06280
S11316C0A06AE169884202DBE069A06205E0206A61
S11316D0A16A884201DB206AA062A06ABDE8F081A9
S11316E080B57D487D4908607B487D4908607D4818
S11316F00068400840007B4908607B48006830F07F
S11317004000794908607548006850F0807073495A
S113171008607348006850F0807071490860F020D8
S113172080F31188592000F016F85A2000F013F8BD
S1131730462000F010F80321592000F0EFF80421AE
S11317405A2000F0EBF80521462000F0E7F860206D
S113175080F3118801BD10B4011E5C2971D22021CF
S113176090FBF1F1002905D0022937D01CD30329BD
S11317704ED066E05D4909680122202390FBF3F412
S113178004FB1304A2401143584A116058490968E4
S11317900122202390FBF3F404FB130412FA04F057
S11317A00843534908604CE0524909680122202348
S11317B090FBF3F404FB1304A24011434D4A11605F
S11317C04D4909680122202390FBF3F404FB130420
S11317D012FA04F008434849086032E047490968AE
S11317E00122202390FBF3F404FB1304A2401143D1
S11317F0424A1160424909680122202390FBF3F414
S113180004FB130412FA04F008433D49086018E08D
S11318103C4909680122202390FBF3F404FB1304E0
S1131820A2401143374A1160374909680122202335
S113183090FBF3F404FB130412FA04F00843324956
S1131840086010BC704710B4011E5C2941D22021ED
S113185090FBF1F1002905D002291FD010D30329F0
S11318602AD036E0294909680122202390FBF3F4A9
S113187004FB130412FA04F008432449086028E026
S1131880234909680122202390FBF3F404FB130489
S113189012FA04F008431E4908601AE01D49096859
S11318A00122202390FBF3F404FB130412FA04F046
S11318B00843184908600CE01749096801222023ED
S11318C090FBF3F404FB130412FA04F008431249E6
S11318D0086010BC7047000000010A0018B0044002
S11318E000C0044094F00F40D4F00F4080E200E0C8
S11318F000E100E084E200E004E100E088E200E0CE
S113190008E100E08CE200E00CE100E080E100E0AE
S113191084E100E088E100E08CE100E0021E5C2A42
S113192002D20A1E102A00D305E000F1604010F52F
S11319306440090101707047010040F10780F446DA
S1131940404200F003F851F00041604709D0B0FA7A
S113195080F18840C91CC1F58461090501EBD021DF
S113196040057047B0B581EA030C0CF0004C40F21E
S1131970FF7515EA11541DBF15EA1357AC42AF4267
S113198039E0E41923EA455343F48013C90241F0D2
S1131990004141EA505EC7021100A7FB0202002881
S11319A04FF00000EEFB01204FF00001E3FB0721A4
S11319B018BF42F00102401800214941E3FB0E0127
S11319C0A4F580640F0302D252004041494154F10E
S11319D001046CDD470872F1004250F1000051EB44
S11319E00451A1F580115CBF41EA0C01B0BD4CEA81
S11319F005510020B0BD05EA1357AC4214BFAF42F5
S1131A0041E050EA410E1CBF52EA430E02E0614637
S1131A100020B0BD24423C441BD15FEA070EF6D03F
S1131A20090302BF01460020AEF1140EB1FA81F79A
S1131A30AEEB070401FA07FE0C37C7F1200100FAE8
S1131A4007F7C8404EEA000E23EA455343F48013D7
S1131A50A2E733F00043B3FA83F704BFB2FA82FE7D
S1131A6077440B3FE41BB7F1200E2FBF02FA0EF3AD
S1131A70BB40C7F1200E22FA0EFE38BF43EA0E0324
S1131A80BA40641C82E750EA410E14BF52EA430E86
S1131A906FF000014FF4001717EB430F8ABF19468C
S1131AA017EB410FB5E74CEA05510020B0BDD4F166
S1131AB00104B4F120070FDAC4F12007520828BF4B
S1131AC042F0010210FA07F501FA07F7E1BF2A43D1
S1131AD0E0403843E1400FE0352C98DCC7F12004A6
S1131AE052EA400220FA07F218BF42F0010231FA2A
S1131AF007F0A1400A43002172F1004250F10000B6
S1131B0051EB0C01B0BD50F8041B61B150F8042B2B
S1131B10D30744BFA9F101039A18002342F8043BF8
S1131B20091FFAD1EFE7704770B44FF0004591EA0E
S1131B30030F44BF6B4000F0E7B800BF841A71EB99
S1131B40030604D26E40001BB141121973414FF4D5
S1131B50001C1CEB410F34BF7CEB430684E00C0DEE
S1131B60A4EB1356362E7DDC012E43DC45EAC32359
S1131B7043EA525312BFD20292025B08240545EA9B
S1131B80C12141EA5051D2EBC020994125D407D15B
S1131B90B0FA80F610FA06F164D00020203608E08E
S1131BA0B1FA81F6B140C6F1200220FA02F21143E3
S1131BB0B0404FEAF474B4EB465434F001064FEAF3
S1131BC074040AD8D6F50016760D04F00044F040EB
S1131BD061FA06F25040F1404840C00A40EA4150E0
S1131BE021F0004128BF5FEA500550F1000044EBAA
S1131BF0D12137E045EAC323DB0A45EAC121C90AFA
S1131C00B6F120050EDD42EA0242120CC5F12006AF
S1131C1003FA06F6EB4042EA06056D42984161F18B
S1131C2000010DE062FA06F5F240554063FA06FC45
S1131C3082EA0C02F3405A406D42904161EB030189
S1131C4011F4801F05D1641E620502D06D0040416D
S1131C50494121F48011430875F1004350F100001B
S1131C6041EB045170BC70471CEB410F15D223F0BB
S1131C70004352EA43060BD04FEA4C0CBCEB410F35
S1131C8004D80C0D661E342EB7DDEBE7801A99419B
S1131C9050EA410608BF0021E4E708BF1CEB430FEC
S1131CA028BF6FF00001DDE7F446400D40EAC12093
S1131CB0490006D200F00EF8004248BF6FF0004021
S1131CC0604700F007F84FF0004188428CBF084697
S1131CD04042604740F00040490DA1F58061491C35
S1131CE005D4D1F11F0154BFC840C01770474FF04D
S1131CF00000704770B44FF0004591EA030C44BFF4
S1131D006B40FFF71BBF00BF841A71EB030603D2BD
S1131D10001BB141121973414FF4001C1CEB410F1D
S1131D2034BF7CEB430443E00C0DA4EB1356352E77
S1131D3050DC45EAC323DB0A45EAC121C912B6F1E6
S1131D4020050DDD63FA05F6EB4086EA0305124231
S1131D5018BF45F00105C01851F100010CD213E081
S1131D6062FA06F5F2405540F3415A40B340F3405D
S1131D705A408018594107D349085FEA30005FEAA6
S1131D80350528BF45F0010501F58011420875F1BC
S1131D90004250F1000041EB045170BC4FF4001CB0
S1131DA01CEB410F38BF70470020090D090570472F
S1131DB01CEB410F10D252EA43060BD0BCEB410F8F
S1131DC005D80C0DAB43661E342EB5DD02E0AB43E3
S1131DD08018594170BC704770BC7047F0B56948B1
S1131DE0006850F40050674908606748007810F0B4
S1131DF0F30065490870002064490870644800686D
S1131E004FF47A7181FB00015FF4E112002300F0CA
S1131E10B9F904005E4800684FF4FA4181FB0001FF
S1131E205FF4E112002300F0ADF9B0EB441558481B
S1131E30006842F2107181FB000115EB4412521C40
S1131E40D31700F09FF9534A5FF0FF3380185941CC
S1131E50002915DB01DC002812D34D48006842F24A
S1131E60107181FB000115EB4412521CD31700F0D2
S1131E7089F9484A5FF0FF33861851EB030713E0F2
S1131E804348006842F2107181FB000115EB4412D3
S1131E90521CD31700F076F93E4A5FF0FF338018E6
S1131EA05941464271EB41073948006842F21071CA
S1131EB081FB000115EB4412D31700F063F9354A96
S1131EC05FF0FF3380185941002913DB01DC00283F
S1131ED010D32F48006842F2107181FB000115EB0A
S1131EE04412D31700F04EF92A4A5FF0FF338018EA
S1131EF0594112E02648006842F2107181FB00014A
S1131F0015EB4412D31700F03DF9224A5FF0FF337A
S1131F1080185941404271EB41018F4203DC01DBDF
S1131F20864200D26D1C201210F01F001A4908705E
S1131F301A48047015F01F00194908704FF44070D6
S1131F40184908604FF44070174908600E4800783B
S1131F5050F02C000C490870F0BD144909780906AA
S1131F60FBD513490870704707E0104A127812062F
S1131F70FBD502780E4B1A70401C0A00511E002A31
S1131F80F3D170473480044003D0064002D00640A9
S1131F906C04FF1F0036F7FF00D0064001D0064056
S1131FA00AD0064044B0044040B0044004D0064087
S1131FB007D00640002840F10780F446404200F074
S1131FC003F850F0004060470AD0B0FA80F188402E
S1131FD0D1F19D01C905020672F1004241EB1020C6
S1131FE070470000FF2212EAD05C1DBF12EAD153F1
S1131FF0944593422BE09C44D30780EA01021A40A3
S113200043EA002043EA0121A1FB0030410038BF2C
S113201040007CF17F010BDBFE294ADA5B0842EACF
S1132020C15153EA006373F1004C51EB1020704727
S1132030D1F1080CDCF120012FDB5B0810FA01F16F
S11320400B4373F1004120FA0CF050417047944562
S11320501CBF02EAD153934280EA010202F000421B
S11320601DD0400019D0490017D05BB9634514D086
S11320700902B1FA81F39940BCEB030CC00140F0B2
S11320800040C1E70002B0FA80FC10FA0CF0B3EB98
S11320900C0CC90141F00041B6E710007047400044
S11320A00AD0490008D010F1807F94BF11F1807FDD
S11320B002E042F0FF407047D043704790EA010FBE
S11320C044BF81F0004100F0F7B800BF421A3CBFA2
S11320D0801A89184FF0004CC0F3C752FF2A24D04D
S11320E0C1F3C75313B3D21AD2F1190327DD4CEA53
S11320F001214CFA03F321EA0303D140C20D4CEA57
S11321000020401834BF20EA0C004CEA5000D205ED
S113211053EA006373EB0C0C52EB1020420012F1F3
S1132120807F38BF7047C00DC0057047490212BF99
S11321309A4200EB5120F8E7D2F11703D9D5704742
S11321404100090E7F3915D4D1F11F0114D4400088
S113215007D2C00140F00040C84048BF6FF00040C3
S11321607047C00140F00040C8404CBF4FF00040F1
S1132170404270470020704700424FF0004058BF73
S1132180C043704713F0004C03D55B42524263F1E5
S113219000039CEA210C00F0178010B5644603D3B9
S11321A04942404261F1000100F00EF8640004D39A
S11321B04942404261F10001244203D55B4252424C
S11321C063F1000310BD00001B4213D1094236D154
S11321D02AB18446B0FBF2F002FB10C2704700F053
S11321E0D7B8FCD30022002370470B000200002163
S11321F000207047904271EB030CF6D370B5B1FA2E
S113220081F4B3FA83F52C1BA340C4F1200532FA00
S113221005F63343A2405FF00046E64002E05B0867
S11322205FEA3202841A71EB030524BF2046294673
S11322307641F4D302000B003000002170BD012A66
S1132240CFD970B5140C20D0B1FA81F4B2FA82F56A
S1132250C4F120046419B4F12006D6D3B2405FF06F
S11322600044F440002502E052085FEA3303C61A32
S113227071EB020E24BF3046714664416D41F3D3C5
S113228002000B002000290070BD0C46B1FBF2F1E6
S113229002FB11452D0445EA1045B5FBF2F402FB9F
S11322A0145580B240EA0545B5FBF2F002FB10522A
S11322B040EA044070BD0000431A4FF000423EBFA4
S11322C05340C01AC91800BFD3095FEAD05C13EBAE
S11322D0400F34BFB3EB410F40E07CEBD1530CD340
S11322E042EA012122D8D1EB402009D3400A28BF79
S11322F05FEA500140EBCC507047401A15D04002C1
S1132300B0FA80F2521C9040400A4FEA3C23B3EBEF
S1132310026384BF00EB730007E040F400001A1668
S1132320DB07C2F10102D04018437047182BFCDCD4
S113233031FA03F202FA03F3591A38BF42F00102E8
S1132340D2EB40203CBF4000ACF1010C5FEACC5C16
S1132350C20572F100414CEB5020704713EB400F63
S11323600FD24B0009D0ACEBD153022B03DB490253
S1132370172BDDDD70479143401A4300D5D100206F
S1132380704713EB410FD0D36FF00000704700008B
S11323907047000010B500244FF48070DFF8481532
S11323A008604FF48070DFF844150860DFF84005DA
S11323B0006850F00200DFF838150860DFF83005D7
S11323C0006850F00100DFF828150860DFF82405E4
S11323D0006830F00200DFF81C150860DFF814050F
S11323E0006840084000DFF80C150860E4B2322CA5
S11323F006DA641C00F006F80128F7D1012000E099
S1132400002010BD10B5002401210C2000F008FAB2
S1132410002801D1002060E00020DFF8DC1408600F
S11324200120DFF8D41408605FF0FF30DFF8CC142B
S11324300968401ADFF8C8140968B0FBF1F042F2E9
S113244011718842F0D300210C2000F0E9F9002832
S113245001D1002041E00020DFF89C140860012035
S1132460DFF8941408605FF0FF30DFF89014096817
S1132470401ADFF88C140968B0FBF1F043F6992197
S11324808842F0D3002400E0641CA12C24D2002054
S1132490DFF8641408600120DFF85C1408605FF062
S11324A0FF30DFF858140968401ADFF8541409683B
S11324B0B0FBF1F0B0F5FA6FF1D9DFF8480410EB96
S11324C0C4004168DFF83C0450F8340000F0A8F977
S11324D00028D9D1002000E0012010BDDFF8140449
S11324E0006850F00100DFF80C1408600020DFF8E9
S11324F0081408600120DFF8001408605FF0FF3062
S1132500DFF8F8130968401ADFF8F4130968B0FB20
S1132510F1F01028F2D3DFF8DC03006850F0020079
S1132520DFF8D01308600020DFF8CC130860012026
S1132530DFF8C41308605FF0FF30DFF8C0130968E8
S1132540401ADFF8BC130968B0FBF1F01028F2D38D
S1132550DFF8A003006840084000DFF89813086023
S11325600020DFF8941308600120DFF88C13086062
S11325705FF0FF30DFF884130968401ADFF8801336
S11325800968B0FBF1F01028F2D3DFF868030068A3
S113259030F00200DFF85C1308600020DFF8581305
S11325A008600120DFF8501308605FF0FF30DFF8A7
S11325B04C130968401ADFF848130968B0FBF1F0BE
S11325C01028F2D37047DFF82C030068400840005D
S11325D0DFF8201308600020DFF81C1308600120D6
S11325E0DFF8141308605FF0FF30DFF81013096898
S11325F0401ADFF80C130968B0FBF1F01028F2D38D
S1132600DFF8F002006850F00200DFF8E81208601A
S11326100020DFF8E41208600120DFF8DC12086013
S11326205FF0FF30DFF8D4120968401ADFF8D012E7
S11326300968B0FBF1F01028F2D3DFF8B8020068A3
S113264050F00100DFF8AC1208600020DFF8A81297
S113265008600120DFF8A01208605FF0FF30DFF8A7
S11326609C120968401ADFF898120968B0FBF1F06F
S11326701028F2D37047002157E0DFF8782212685F
S113268052085200DFF86C321A600022DFF8683218
S11326901A600122DFF860321A605FF0FF32DFF85F
S11326A05C321B68D21ADFF858321B68B2FBF3F2B3
S11326B00F2AF2D3DFF83C22126852F00202DFF84C
S11326C034321A600022DFF830321A600122DFF857
S11326D028321A605FF0FF32DFF820321B68D21A0A
S11326E0DFF81C321B68B2FBF3F2102AF2D3DFF8D6
S11326F00422126832F00202DFF8F8311A60002274
S1132700DFF8F4311A600122DFF8EC311A605FF06F
S1132710FF32DFF8E8311B68D21ADFF8E4311B68B6
S1132720B2FBF3F2022AF2D3491CC9B208290DDA2A
S1132730C0B210FA01F212069FD5DFF8B821126870
S113274052F00102DFF8AC311A609EE70020DFF896
S1132750A81108600120DFF8A01108605FF0FF30C5
S1132760DFF898110968401ADFF894110968B0FB82
S1132770F1F00628F2D3DFF8780100684008400041
S11327805B49086000205C49086001205A490860E0
S11327905FF0FF3059490968401A59490968B0FB8C
S11327A0F1F00B28F4D35348006850F0020051496B
S11327B0086000205049086001204F4908605FF01C
S11327C0FF304E490968401A4D490968B0FBF1F0E1
S11327D01A28F4D34C480068C00701D5002000E053
S11327E001204449096831F00201424A1160002184
S11327F0414A11600121404A11605FF0FF313F4AB4
S11328001268891A3E4A1268B1FBF2F10B29F4D31B
S11328103749096851F00101354A1160C0B2704767
S113282038B504000D00FFF759FE9020FFF723FF91
S1132830002803D1FFF7C7FE002053E000202E49F3
S1132840086001202C4908605FF0FF302B490968BB
S1132850401A2B490968B0FBF1F01528F4D3200085
S1132860C0B2FFF708FF002803D1FFF7ACFE002039
S113287038E000202049086001201F4908605FF00B
S1132880FF301E490968401A1D490968B0FBF1F080
S11328901528F4D3280AC0B2FFF7EDFE002803D1AF
S11328A0FFF791FE00201DE000201349086001207D
S11328B0114908605FF0FF3010490968401A104957
S11328C00968B0FBF1F01528F4D32800C0B2FFF773
S11328D0D2FE002803D1FFF776FE002002E0FFF7C6
S11328E072FE012032BD000004D0044000D0044038
S11328F014F10F4000F10F4038710340347103406C
S11329007004FF1F0C29000010F10F401500000097
S1132910327F000020000000D101000070000000A0
S11329200400000073000000F7020000C200000071
S1132930400000001C000000030000003100000003
S11329401F000000320000001A00000033000000E5
S113295012000000AF000000000000002B00000087
S11329600300000010000000400000000F00000001
S11329701100000015000000327F00001C00000060
S11329800200000001000000190000000200000025
S11329900400000003000000E00100000400000047
S11329A0F0020000050000006400000006000000C2
S11329B01F0000000700000088030000080000005A
S11329C0C800000009000000960000000A00000092
S11329D0640100000B000000FA0000000C0000007D
S11329E0000000000D000000050300000E000000C0
S11329F0000000000F0000001100000010000000A3
S1132A002D000000110000004280000012000000B0
S1132A102200000013000000320E00001400000029
S1132A20020E000015000000320E00001600000027
S1132A300228000017000000383E000018000000C3
S1132A40383E000019000000022800001A000000AF
S1132A50280400001B000000000000001C0000000F
S1132A60020000001D000000000000001E00000025
S1132A70000000001F000000000000002000000013
S1132A8011000000210000002000000022000000CE
S1132A9020000000230000001000000024000000BB
S1132AA010000000250000002000000026000000A7
S1132AB010000000270000001000000028000000A3
S1132AC01000000029000000100000002A0000008F
S1132AD0200000002B000000040000002C00000077
S1132AE0040000002D000000040000002E0000007F
S1132AF0070000002F000000040000003000000068
S1132B0003000000310000001D000000320000003E
S1132B10180000003300000015000000340000001D
S1132B2004000000350000004000000036000000F2
S1132B3040000000370000000000000038000000E2
S1132B4000000000460000001D23000047000000B4
S1132B50808000004C0000000200000060000000C3
S1132B60000000006100000000000000620000009E
S1132B70000000006300000000000000640000008A
S1132B800000000065000000000000006600000076
S1132B900000000067000000000000006C0000005E
S1132BA0000000007000000034000000710000000C
S1132BB00000000072000000DE000000730000004E
S1132BC0F702000074000000000000007F00000015
S1132BD00000000080000000F400000081000000FC
S1132BE0F400000082000000F400000083000000F4
S1132BF0F400000084000000F400000085000000E0
S1132C00F400000086000000F400000087000000CB
S1132C10F400000088000000F400000089000000B7
S1132C20F40000008A000000F40000008B000000A3
S1132C30F40000008C000000F40000008D0000008F
S1132C40F40000008E000000F40000008F0000007B
S1132C50F400000090000000F40000009100000067
S1132C60F400000092000000F40000009300000053
S1132C70F400000094000000F4000000950000003F
S1132C80F400000096000000F4000000970000002B
S1132C90F400000098000000F40000009900000017
S1132CA0000000009A000000960000009B00000055
S1132CB02C0100009C000000C20100009D000000E7
S1132CC0580200009E000000F00200009F00000077
S1132CD000000000A000000060000000A10000004F
S1132CE0C0000000A200000020010000A3000000BA
S1132CF080010000A4000000E0010000A500000025
S1132D003A000000A600000002000000A700000036
S1132D1000000000A800000000000000A90000005E
S1132D2002000000AA00000000000000AB00000048
S1132D3002000000AF00000003000000B00000002B
S1132D40E0AB0000B100000002000000B20000008F
S1132D5010000000B300000010000000B4000000E8
S1132D6000000000B500000000000000B6000000F4
S1132D7000000000B700000000000000BD000000DB
S1132D8004010000BE00000014000000BF000000A9
S1132D9016000000C00000000A000000C20000008D
S1132DA040180000C300000000000000C400000040
S1132DB016440000C500000021440000F10000009A
S1132DC000000000FE000000EFBE000074000000E0
S1132DD008000000000000000000000000000000E7
S1132DE000000000000000000000000000000000DF
S1132DF000000000000000000000000000000000CF
S1132E0000000000000000000000000000000000BE
S1132E1000000000DFF800F01104FF1F80B5C0B20D
S1132E20002816D0C0B2012813D0C0B2022810D096
S1132E30C0B203280DD0C0B204280AD0C0B20528FD
S1132E4007D0C0B2062804D0C0B2072801D00020A1
S1132E50AEE00022624B1A70624A126852F080524D
S1132E60604B1A60604A127852F080025E4B1A700E
S1132E7098225E4B1A705E4A1278D206FBD45C4AE2
S1132E801278C2F38102D2B2022AF8D1C0B2072862
S1132E9008D0C0B2022805D0C0B2032802D0C0B204
S1132EA0042803D10122534B1A7002E00322514B30
S1132EB01A700022504B1A70C0B200280BD002289E
S1132EC01FD013D3042832D026D3062845D039D3B3
S1132ED007284DD056E00123002200210020FFF7EF
S1132EE099FF41204449087032214BE00323012219
S1132EF001210020FFF78EFF5A203F49087064210A
S1132F0040E00423012201210020FFF783FF502029
S1132F1039490870A02135E0052301220121002050
S1132F20FFF778FF552034490870B4212AE00523BF
S1132F30012201210020FFF76DFF5A202E4908705D
S1132F40C8211FE00123002200210020FFF762FFB7
S1132F50402029490870302114E003230122012173
S1132F600020FFF757FF582023490870602109E02B
S1132F700423012201210020FFF74CFF48201E49B1
S1132F80087080211A4800788006FBD5184800781C
S1132F904006FBD51548007810F03F00134A107026
S1132FA013480078C0F38100C0B20328F8D10800A8
S1132FB002BD1248006850F48050104908604FF474
S1132FC0E0600F49086070470E48006850F0010047
S1132FD00C4908604FF4A0600B490860704700007A
S1132FE0014006403480044008C0074000400640C9
S1132FF00640064004400640054006400480044064
S113300018900440408004400CB004404FF4807099
S11330104D4908604FF480704C4908604FF480704B
S11330204B4908604FF480704A4908604FF480703F
S1133030494908604FF48070484908604FF4807033
S1133040474908604FF48070464908604FF4807027
S1133050454908604FF48070444908604FF480701B
S113306043490860082005E04FF48171414A42F861
S11330702010401C1028F7DB3F48006830F0400067
S11330803D4908603D48006830F004003B49086051
S11330903A48006830F01000384908603748006842
S11330A030F04000354908603548006830F400705D
S11330B0334908603348006850F020003149086003
S11330C02E48006850F080602C4908602B48006846
S11330D050F00800294908602848006850F0200092
S11330E0264908602548006850F08070234908602C
S11330F02248006850F000702049086022480068A7
S113310050F02000204908602048006850F080609A
S11331101E4908601D48006850F008001B490860FB
S11331201A48006850F020001849086017480068E1
S113313050F08070154908601448006850F0007021
S113314012490860704700BF18C0044008D004400A
S113315010D0044018D0044014B0044068D0044097
S11331600CD0044014D0044060D0044064D0044027
S113317024A0044000B00440D4F00F4014F10F40E8
S113318054F00F4094F00F4080F00F4000F10F40D6
S113319080B500F003F800F047F801BD3C48006832
S11331A050F080703A49086004203A4908600020D1
S11331B0394908600020394908600020384908600E
S11331C0002038490860002037490860002037494A
S11331D00860002036490860002036490860002055
S11331E035490860002035490860002034490860EA
S11331F04FF47A703349086028202F490860002072
S1133200314908604FF48060304908600A2022493F
S113321008604FF4FA702C4908602D48006850F497
S113322000702B49086070472A48006850F080708D
S113323028490860042028490860002027490860BC
S113324000202749086000202649086000202649FC
S1133250086000202549086043F2D400244908602E
S11332602820214908600020224908604FF440705A
S1133270214908600D201949086042F20C401D499B
S113328008601E48006850F400701C4908607047CC
S11332903C80044054800340008003404C80034041
S11332A0048003400C800340148003401C800340CE
S11332B0248003402C800340348003403C8003403E
S11332C044800340088003403880034014C0044015
S11332D0988003403080044054800B4000800B40B1
S11332E04C800B4004800B400C800B4014800B403E
S11332F008800B4010800B4048A0044098800B408D
S113330080B500F055F800F005F800F06DF800F015
S1133310A3F8FEE780B51C481C4988420BD0002066
S113332006E01A4951F82010174A42F82010401CB0
S1133330B0F5826FF5DB144800F0B8F81449154A6B
S11333401548801A03E013780B70521C491C0300C3
S1133350581E012BF7DA11491148401A02E00022E5
S11333600A70491C0200501E012AF8DA0D490E4A5F
S11333700E48801A03E013780B70521C491C03009A
S1133380581E012BF7DA01BD0000FF1F00000000EA
S11333905C04FF1FF0370000F83700006404FF1FCF
S11333A0422FFF1F1004FF1FE03600002C370000DF
S11333B080B500F009F80A4800884FF6FE7108400D
S11333C00749088001BD000072B64CF2205005493F
S11333D008804DF628100349088062B67047000043
S11333E0002005400E20054080B51548006850F4C3
S11333F07850134908600720FFF710FD1149086051
S1133400104800684FF47A7148430F4908600E4829
S113341000680E490968C1F30361491CB0FBF1F06F
S11334200B4908600A4800684FF47A7190FBF1F088
S113343008490860FFF7BDFDFFF7C6FD01BD00BFE9
S1133440388004406804FF1F6404FF1F4480044064
S11334506C04FF1F7004FF1F80B572B600F02CF8D7
S113346000200D49086001200B4908605FF0FF301F
S11334700A490968401A0A490968B0FBF1F0094988
S11334808842F3D3FCF7E2FF62B6074800780228CB
S1133490FBD1FDF757F8F8E7387103403471034066
S11334A07004FF1F41420F003E2FFF1F01490860B7
S11334B07047000008ED00E080B5FFF7A7FDFFF7B7
S11334C067FE00F02BF8FEF70BF900F06DF8FEF73D
S11334D085FC00F0A3F800F0D5F800200B49086043
S11334E001200A4908605FF0FF3009490968401A61
S11334F008490968B0FBF1F007498842F3D3FEF7A5
S113350049FF002800D1FEE701BD00BF3871034028
S1133510347103407004FF1F81841E001748006843
S113352050F400001549086000201549086015484A
S113353000684021484319301349086000201349AA
S113354008607FF01F0012490860002011490860DC
S11335500C4800684FF47A6148430F490860002022
S11335600E49086003200D4908607FF01F000C49D4
S1133570086000200B490860704700BF3C8004408D
S1133580007003407004FF1F007103400871034082
S113359010710340187103402071034028710340E7
S11335A030710340387103404FF4C0601149086022
S11335B04FF4C060104908601048006850F0007073
S11335C00E49086005200E49086000200D49086076
S11335D000200D4908604FF6FF700C49086019205F
S11335E00B490860C1200B490860FF200A490860A4
S11335F0704700BF00A0044004A004403C80044085
S1133600549003404C9003400490034008900340BE
S11336100090034080900340789003404FF4807002
S1133620DFF8501008604FF48070DFF84C10086029
S1133630DFF84800006850F00400DFF8401008602C
S1133640DFF83800006850F00800DFF83010086038
S1133650DFF82C00006850F00800DFF82410086040
S1133660DFF81C00006850F00400DFF81410086054
S1133670704700000CA0044008A0044054F00F4020
S113368040F00F40DFF84400006850F04000DFF8DD
S11336903C1008604FF40070DFF8341008604FF4F9
S11336A00070DFF830100860DFF82800006850F080
S11336B02000DFF8201008606020DFF81C1008707C
S11336C08020DFF818100870704700003480044030
S11336D008A004400CA004400160064002600640BB
S11336E070B4104C24680F4D2D6855F47F050D4EB1
S11336F03560090611F0706151EA0070110511F48A
S113370070010843190411F4702108430649086044
S1133710002000E0401CC0B29842FBD30148046082
S113372070BC704700F001404480044010B5074964
S113373079441831064C7C44163404E00A68081DA8
S1133740511888470146A142F8D110BD2C00000051
S11337503800000005480068401C0449086004481B
S11337600078C0B203490860704700BF342FFF1FC0
S113377004ED00E0302FFF1F8FE3FFFFE02A00007D
S11337806404FF1F0000000000F00BF8002801D0C3
S1133790FFF7CCFF0020C046C046FFF75DFE00F0F7
S11337A002F80120704700F001B8000007463846CF
S11337B000F002F8FBE7000080B5C046C046024AAC
S11337C011001820ABBEFBE726000200C046C0462D
S11337D0C046C046FFF7D8FFFE01FE01FE00000010
S11337E01516171819000000FD02FD02FD00000067
S10B37F051000000510000002B
S90337CDF8
