S00D0000736D6172742E73726563F0
S1130000F8FF002011040000A9320000A93200000A
S1130010A9320000A9320000A9320000A932000070
S1130020A9320000A9320000A9320000A932000060
S1130030A9320000A9320000A9320000A932000050
S1130040A9320000A9320000A9320000A932000040
S1130050A9320000A9320000A9320000A932000030
S1130060A9320000A9320000A9320000A932000020
S1130070A9320000A9320000A9320000A932000010
S1130080A9320000A9320000A9320000A932000000
S1130090A9320000A9320000A9320000A9320000F0
S11300A0A9320000A9320000A9320000A9320000E0
S11300B0A9320000A9320000A9320000A9320000D0
S11300C0A9320000A9320000A9320000A9320000C0
S11300D0A9320000A9320000A9320000A9320000B0
S11300E0A9320000A9320000A9320000A9320000A0
S11300F0A9320000A9320000A9320000A932000090
S1130100A9320000A9320000A9320000A93200007F
S1130110A9320000A9320000A9320000A93200006F
S1130120A9320000A9320000A9320000A93200005F
S1130130A9320000A9320000A9320000A93200004F
S1130140A9320000A9320000A9320000A93200003F
S1130150A9320000A932000069130000A93200008E
S1130160A9320000A9320000A9320000A93200001F
S1130170A9320000A9320000A9320000A93200000F
S1130180A9320000A9320000A9320000A9320000FF
S1130190A9320000A9320000A9320000A9320000EF
S11301A0A93200004D0500009D050000A9320000A1
S11301B0A9320000A9320000A9320000A9320000CF
S11301C0A9320000A9320000A9320000A9320000BF
S11301D0A9320000A9320000A9320000A9320000AF
S11301E0A9320000A9320000A9320000A93200009F
S1130400FFFFFFFFFFFFFFFFFFFFFFFFFEFFFFFFF9
S11304104FF000004FF000014FF000024FF00003D6
S11304204FF000044FF000054FF000064FF00007B6
S11304304FF000084FF000094FF0000A4FF0000B96
S11304404FF0000C62B602F005FDFEE780B500F047
S113045015F801F091F800209B49086000209B49A1
S113046008600020994908600320984908605A20D0
S113047001F05DF9592001F05AF901BD94489549FC
S113048008609548954908605FF07E50944908607B
S11304909448006840060FD59348006830F008007F
S11304A091490860914892490860924892490860CD
S11304B023209249086044E09148006840070FD522
S11304C08948006830F02000874908608D488849D1
S11304D008608D488849086023208849086030E016
S11304E087480068C0060FD57F48006830F08070E8
S11304F07D49086085487E49086083487E490860D4
S113050023207E4908601CE07D48006840060FD522
S11305107548006830F00070734908607C4874497D
S1130520086079487449086023207449086008E029
S113053078486F49086074486F49086023206F4900
S11305400860704780B500F0FDF801BD80B57248C1
S1130550006850F080707049086000205A490860B3
S11305605A2001F0E4F80520DFF8F41D0968DFF8EB
S1130570F02D126892FBF0F200FB1210002805D156
S11305806648006890F0200064490860DFF8D00DE8
S11305900068401CDFF8C81D086001BD80B56048D4
S11305A0006850F080705E49086047480068401C4D
S11305B045490860DFF8EC0D007800280ED1424868
S11305C0006869287CDB0120DFF8D81D0870002052
S11305D05449086003205449086071E0DFF8C40DF1
S11305E00078012858D14F480068142806DB4E488B
S11305F00068032802D102204B4908603248006891
S113060031490968484A126891FBF2F1464A126876
S113061002FB1100002836D1002044490860012063
S1130620424908605FF0FF3041490968401A414976
S11306300968B0FBF1F00728F4D33F483949096849
S1130640A22202FB01003D490860002006E0491C8B
S11306500329FCDB00BF00BF00BF401CA2280DDA49
S113066037490968090ADFF8FC2C1160DFF8F41C2B
S11306700968324A126881540021E9E72948006870
S1130680401C28490860274800683C2818DB0220E1
S1130690DFF8101D087013E0DFF8080D0078022859
S11306A00ED0DFF8000D0078032809D15A2001F09C
S11306B0B6F8592001F03BF80020DFF8E81C087078
S11306C0462001F034F801BDE404FF1F2871034003
S11306D0000016438004FF1F00008C428404FF1FA7
S11306E08804FF1FD0F00F4000F10F406666F6400B
S11306F0142FFF1FCDCCCC3E182FFF1F102FFF1F30
S113070010F10F406666E6409A99193FCDCCEC4053
S11307103333F3409A99F94018B0044080F00F4005
S113072000C00440E804FF1FF404FF1F38710340B5
S1130730347103407004FF1FBC08FF1FF004FF1F47
S113074090F00F40F8B500210020DFF8E02C106095
S11307500020DFF8DC2C10600020DFF8D82C1060BB
S11307600120DFF8442C1070002034E0DFF8C82C9E
S1130770DFF8BC3C1B6822F82300DFF8C02C32F9F8
S11307801120DFF8B43CDFF8A84C246813EB840391
S11307905A80DFF89C2C1268521CDFF8943C1A60D3
S11307A0DFF89C2CDFF88C3C1B6822F82300DFF870
S11307B0942C32F91110DFF8882CDFF8783C1B6890
S11307C012EB83025180DFF86C1C0968491CDFF8C6
S11307D0642C1160401C3C2880F2FA800021DFF870
S11307E0682C11800021DFF8642C1180DFF8601C74
S11307F0A22202FB001191F8A110AB2907DB002112
S1130800DFF8382CDFF8403C1B8822F81310A124B1
S11308101AE0DFF83C1CA22202FB0011611811F857
S1130820011CAB291ADAD4F1A201DFF8182CDFF885
S1130830183C1B8822F81310DFF80C1C0988491C8B
S1130840DFF8042C1180641E012C34DBDFF8001C5B
S1130850A22202FB0011615CAB29DADADFF8F01B9B
S1130860A22202FB0011615CAB291ADADFF8E01B5B
S1130870A22202FB0011611811F8011CAB2910DB44
S1130880D4F1A101DFF8B42BDFF8BC3B1B8822F8BC
S11308901310DFF8B81B0988491CDFF8B02B11804E
S11308A0D1E7DFF8A41B09880A2904DADFF89C1BC6
S11308B009880A29C7DBDFF8981BA22202FB001172
S11308C00978AB2913DBDFF8801B09880A290EDAC3
S11308D0A121DFF8702BDFF8703B1B8822F813107E
S11308E0DFF8641B0988491CDFF85C2B1180DFF8F2
S11308F0B81A0978002966D00022DFF84C1B098851
S113090000293FF467AFDFF83C1B0988DFF82C3B74
S11309101B88C91A012415E0DFF8283B33F814308A
S1130920DFF8185B35F814505B1B8B4209DBDFF8EA
S1130930141B31F81410DFF8042B32F81420891A30
S11309402200641CDFF8003B1B889C42E4DB3D2949
S1130950FFF640AF0021DFF8503A1970DFF8D81ADB
S1130960DFF8CC3A1B6821F82300DFF8D01A31F9FC
S11309701210DFF8C43ADFF8B84A246813EB840392
S11309805980DFF8AC1A0968491CDFF8A43A1960E9
S1130990DFF8AC1ADFF89C3A1B6821F82300DFF873
S11309A0A41A31F91210DFF8982ADFF8883A1B6884
S11309B012EB83025180DFF87C1A0968491CDFF8C6
S11309C0742A116006E7DFF8801A098800292DD1FE
S11309D0DFF8600A0068DFF8541A0860002000217C
S11309E0002300240022DFF8505ADFF8406A3668FA
S11309F015EB860535F9025CDFF83C6AB6F902604E
S1130A00AD1B002D00F11081DFF82C5ADFF81C6AB1
S1130A10366815EB860535F9025CDFF81C6AB6F911
S1130A200260AD1BDFF8C06A35600EE100240021CE
S1130A30DFF8B82A11701FE0DFF8FC29DFF8F0397D
S1130A401B6812EB830232F9022C891ADFF8A02A00
S1130A501160DFF89C1A096800290CD4DFF8941A95
S1130A60DFF8882A12785454DFF8801A0978491C70
S1130A70DFF8782A1170641CDFF8CC1909888C42DD
S1130A8030DADFF8C01931F81410DFF8B429DFF8D0
S1130A90A4391B6812EB830232F9022C914204DA66
S1130AA0DFF8A01931F8141008E0DFF89419DFF822
S1130AB08429126811EB820131F9021CDFF87C29C8
S1130AC032F81420DFF87039DFF864592D6813EB1D
S1130AD0850333F9023C9A42AEDBDFF8602932F831
S1130AE01420B2E7DFF8041A097801293AD1DFF8B3
S1130AF04819DFF83C29126821F82200DFF83C1974
S1130B00DFF8F029127831F91210DFF82C29DFF818
S1130B1020391B6812EB83025180DFF8141909682D
S1130B20491CDFF80C291160DFF81419DFF80429D7
S1130B30126821F82200DFF80C19DFF8B8291278BE
S1130B4031F91210DFF8F828DFF8E8381B6812EBE7
S1130B5083025180DFF8DC180968491CDFF8D428C7
S1130B60116037E6DFF88419097800293FF430AFC3
S1130B700021DFF8C828DFF87C391B7832F813200D
S1130B80DFF8C038DFF86C49247833F8143013FAEE
S1130B9082F2022392FBF3F2DFF89C38DFF89048EC
S1130BA0246813EB840333F9023CDFF89448DFF83C
S1130BB084582D6814EB850434F9024C04FA83F349
S1130BC0022493FBF4F39C1A002C01D49D1A00E038
S1130BD0D51A012402E09D1A2100641CDFF80C29B7
S1130BE012789442BFF6C2ADDFF85028DFF80469EA
S1130BF0A65D32F81620DFF84C68DFF8F878E75D78
S1130C0036F8176016FA82F2022692FBF6F2D61A2A
S1130C10002E01D4D61A00E09E1AAE42DDDAD11AB3
S1130C200029D8D4D51AD7E7DFF80C58B5F9025003
S1130C30DFF80468DFF8F4773F6816EB870636F9C7
S1130C40026CAD1BDFF8A0683560DFF8F457DFF8FD
S1130C50DC67366815EB860535F9025CDFF8E0677A
S1130C60B6F90260AD1B002D11D4DFF8D457DFF8BC
S1130C70BC67366815EB860535F9025CDFF8C0679A
S1130C80B6F90260AD1BDFF87068356010E0DFF87C
S1130C90B057B5F90250DFF8A867DFF890773F68DE
S1130CA016EB870636F9026CAD1BDFF84C6835602D
S1130CB0002511E0DFF8806716EB8506B6F90260BF
S1130CC00B2E08DADFF8786716EB8506B6F90260B2
S1130CD0962E00DB521C6D1CDFF850673668B54257
S1130CE0E8DB00250CE0DFF8586716EB8506B6F95B
S1130CF00260962E03DB401C012800D12C006D1CE1
S1130D00DFF828673668B5420CDADFF82C6716EB93
S1130D108506B6F902600B2EE5DA491C0129EED1ED
S1130D202B00ECE7DFF804572D68152D01DB1425A3
S1130D3002E0DFF8F8562D68A94201DB0B2809DB35
S1130D40DFF8B4572D68642D04DADFF89C572D685A
S1130D50332D62DADFF8A4472468282C06DBDFF899
S1130D609C472468641FDFF894572C60042B2BDA0B
S1130D700024DFF8B8361B689C4280F2FC80DFF860
S1130D80C03613EB8403B3F90230DFF8AC5615EB2D
S1130D908405B5F902505B1B022593FBF5F3DFF8DC
S1130DA0A05635F82450DFF8586726F82450DFF8A9
S1130DB0905615EB84056D88EB1ADFF8445715EB54
S1130DC084056B80641CD4E700249C4280F2D380A9
S1130DD0DFF86C5615EB8405B5F90250DFF8586658
S1130DE016EB8406B6F90260AD1B022695FBF6F5F8
S1130DF0DFF84C6636F82460DFF8047727F82460BF
S1130E00DFF83C6616EB84067688751BDFF8F0661F
S1130E1016EB84067580641CD7E70B290BDADFF820
S1130E200C361B68152B01DB142302E0DFF8FC35BC
S1130E301B68984209DADFF8B0361B68642B04DAC1
S1130E40DFF8B4361B68332B63DADFF8B0361B687F
S1130E50282B06DBDFF8A4361B685B1FDFF89C56E3
S1130E602B60042C2BDA0024DFF8C0351B689C426D
S1130E7080F28180DFF8C83513EB8403B3F90230C4
S1130E80DFF8B45515EB8405B5F902505B1B022558
S1130E9093FBF5F3DFF8A85535F82450DFF86066C6
S1130EA026F82450DFF8905515EB84056D885B19FE
S1130EB0DFF84C5615EB84056B80641CD4E70024E2
S1130EC0DFF868351B689C4255DADFF8743513EB9C
S1130ED08403B3F90230DFF8605515EB8405B5F9E6
S1130EE002505B1B022593FBF5F3DFF8545535F8EC
S1130EF02450DFF80C6626F82450DFF83C5535F80A
S1130F0024505B19DFF8F85515EB84056B80641CDD
S1130F10D6E700242AE0DFF8283533F82430DFF858
S1130F20E05525F82430DFF8183513EB8403B3F9C2
S1130F300230DFF8045515EB8405B5F9025005FAC3
S1130F4083F3022593FBF5F3DFF8B45515EB840521
S1130F506B80DFF8A8351B683D2B06DADFF89C357B
S1130F601B685B1DDFF894552B60641CDFF8C434E8
S1130F701B689C42CFDB0A2A29DB152927DB1528AD
S1130F8025DB00241EE0DFF8B80430F82400DFF885
S1130F90701521F82400DFF8A80410EB8400B0F9E0
S1130FA00200DFF8941411EB8401B1F9021001FA84
S1130FB080F0022190FBF1F0DFF8441511EB84017D
S1130FC04880641CDFF86C0400688442DBDB00208A
S1130FD0DFF8301508600020DFF82C1508600024C5
S1130FE026E0DFF81C0510EB8400B0F90200001EB7
S1130FF0A3281CD2DFF810050068DFF8041531F9C6
S113100024104018DFF800150860DFF8F8040068C1
S1131010DFF8EC1411EB8401B1F90210DFF8E024DD
S113102032F9242011FB0200DFF8D8140860641C94
S1131030DFF8F8030068322803DADFF8F003006809
S113104000E032208442CCDBDFF8BC0400680128D5
S11310500ADBDFF8B0040068DFF8AC14096890FB21
S1131060F1F0DFF8A8140860DFF8A0040068002895
S113107004D50020DFF89414086008E0DFF88C043D
S11310800068A32803DBA220DFF880140860DFF8DF
S11310907C040068DFF878140968401A002807D433
S11310A0DFF868040068DFF868140968401A06E08D
S11310B0DFF85C040068DFF854140968401A5B2800
S11310C005DBDFF84C040068DFF84014086000F02A
S11310D0C1F9DFF840040078002800F026810521DA
S11310E0DFF8340400F0DAFC42F6D31424B24FF4EF
S11310F0807194FBF1F000FB1140C0B200F0C7FC1A
S113110024B24FF4807094FBF0F0C0B200F0BFFC46
S1131110DFF80804B0F9004024B24FF4807194FB66
S1131120F1F000FB1140C0B200F0B1FC24B24FF466
S1131130807094FBF0F0C0B200F0A9FC3C2424B20F
S11311404FF4807194FBF1F000FB1140C0B200F049
S11311509EFC24B24FF4807094FBF0F0C0B200F017
S113116096FCA22424B24FF4807194FBF1F000FBAE
S11311701140C0B200F08BFC24B24FF4807094FB99
S1131180F0F0C0B200F083FCAA2424B24FF48071C2
S113119094FBF1F000FB1140C0B200F078FC24B2E3
S11311A04FF4807094FBF0F0C0B200F070FC502457
S11311B024B24FF4807194FBF1F000FB1140C0B2F3
S11311C000F065FC24B24FF4807094FBF0F0C0B2E0
S11311D000F05DFC502424B24FF4807194FBF1F0D4
S11311E000FB1140C0B200F052FC24B24FF48070F6
S11311F094FBF0F0C0B200F04AFC42F2F85194487B
S113120000F04CFCC148046824B24FF4807194FB94
S1131210F1F000FB1140C0B200F039FC24B24FF4ED
S1131220807094FBF0F0C0B200F031FC8048046898
S113123024B24FF4807194FBF1F000FB1140C0B272
S113124000F025FC24B24FF4807094FBF0F0C0B29F
S113125000F01DFC00240DE00221774810EB84000F
S113126000F01CFC0221744810EB8400801C00F088
S113127015FC641C502CEFDB6E48046824B24FF458
S1131280807194FBF1F000FB1140C0B200F0FFFB51
S113129024B24FF4807094FBF0F0C0B200F0F7FB7E
S11312A000240DE00221664810EB840000F0F6FBF8
S11312B00221634810EB8400801C00F0EFFB641CE7
S11312C0502CEFDB5948046824B24FF4807194FB2E
S11312D0F1F000FB1140C0B200F0D9FB24B24FF48E
S11312E0807094FBF0F0C0B200F0D1FB00240DE05C
S11312F00221834810EB840000F0D0FB02218048D7
S113130010EB8400801C00F0C9FB641C502CEFDB44
S11313100521834800F0C2FB0521824800F0BEFB92
S11313207E480088401C7D49088003201D490870C0
S11313307D480068401C7C49086005207A4909689A
S1131340794A126892FBF0F200FB1210002805D1D2
S11313507648006890F0806074490860F1BD000030
S1131360F804FF1FC02EFF1F80B5012070490860DC
S113137000207049086003206E4908606E480068C8
S113138000B26E49086000206B4908606B48006831
S11313906B49486000F00AF86A480068401C6949D3
S11313A0086001BD3E2FFF1F3F2FFF1F80B553482C
S11313B00068404262490860614800F03DF96249B2
S11313C0086061480068B0F57A7F04DD4FF47A70F4
S11313D05D49086007E05C48006810F57A7F02DA2E
S11313E05A485949086058480068022190FBF1F0B6
S11313F010F5FA70002807D453480068022190FBC6
S1131400F1F010F5FA7007E04F480068022190FBF4
S1131410F1F010F5FA70404280B24D4908604D4831
S1131420006850F400704B49086001BDB42EFF1FE2
S1131430B82EFF1FBC2EFF1F3C06FF1FC42EFF1F2C
S11314407C07FF1FD82EFF1F382FFF1F3A2FFF1FC7
S1131450BC08FF1F10B52D480068D0F151003E496B
S113146008603D48006800F03FFB3C49096800F013
S113147063FB3B4900F0CCFB040037480068394962
S11314800968401A00F030FB3749096800F054FB42
S1131490210000F0BDFB00F0FDFB344908602E483C
S11314A00068304908603148006842F2E22188420D
S11314B004DA42F2E1202D49086009E02B48006873
S11314C042F23851884203DB42F23850274908601F
S11314D02648006880B2264908602648006850F40F
S11314E000702449086010BD242FFF1F402FFF1FE8
S11314F0EC2EFF1FF02EFF1F282FFF1F102FFF1FA2
S1131500FC04FF1FFC2EFF1F002FFF1F5C04FF1FA6
S11315106004FF1F412FFF1F2C3300003C2FFF1FCF
S1131520343300003C330000EC04FF1F00F10F4093
S11315302C71034028710340049003401C2FFF1FAB
S11315408C04FF1F2C2FFF1F202FFF1F18FCFFFFF1
S11315503880034098800340042FFF1F142FFF1F7F
S113156000301046082FFF1F182FFF1F0C2FFF1FDE
S113157010800B4098800B4080B500F003F800F019
S113158024F801BD00202249086000202049486059
S113159000201F49886000201D49C8601D4800685C
S11315A01B4908611C480068194948611B480068C8
S11315B0174988614FF47A701549C861184814496D
S11315C008620020124988627047002015490860AB
S11315D00020144948600020124988600020114905
S11315E0C860114800680F490861104800680D4937
S11315F048610F4800680B4988614FF496700949A7
S1131600C8610C48074908620020064948627047CF
S11316108C04FF1F8004FF1F8404FF1F8804FF1F26
S113162018FCFFFFB804FF1F7404FF1F7C04FF1F96
S11316307804FF1FD4FEFFFF2DE9F0410400206869
S11316406168451AA068281AE168461AA560E06036
S1131650291E012920D3A76A00F046FA216900F067
S11316606BFA8046280000F03FFA616900F064FAE2
S1131670414600F0CDFA0500300000F035FAA169CA
S113168000F05AFA290000F0C3FA00F003FB0A2123
S113169090FBF1F0C019A062A06AE169884202DB04
S11316A0E069A06205E0206AA16A884201DB206A41
S11316B0A062A06ABDE8F08180B57D487D490860DC
S11316C07B487D4908607D480068400840007B49AC
S11316D008607B48006830F040007949086075482C
S11316E0006850F08070734908607348006850F0D7
S11316F0807071490860F02080F31188592000F04F
S113170016F85A2000F013F8462000F010F80321D0
S1131710592000F0EFF804215A2000F0EBF80521DD
S1131720462000F0E7F8602080F3118801BD10B472
S1131730011E5C2971D2202190FBF1F1002905D012
S1131740022937D01CD303294ED066E05D490968CD
S11317500122202390FBF3F404FB1304A240114361
S1131760584A1160584909680122202390FBF3F478
S113177004FB130412FA04F00843534908604CE0D4
S1131780524909680122202390FBF3F404FB13045B
S1131790A24011434D4A11604D490968012220239A
S11317A090FBF3F404FB130412FA04F008434849D1
S11317B0086032E0474909680122202390FBF3F4D2
S11317C004FB1304A2401143424A116042490968D0
S11317D00122202390FBF3F404FB130412FA04F017
S11317E008433D49086018E03C4909680122202368
S11317F090FBF3F404FB1304A2401143374A116035
S1131800374909680122202390FBF3F404FB1304F5
S113181012FA04F008433249086010BC704710B44F
S1131820011E5C2941D2202190FBF1F1002905D051
S113183002291FD010D303292AD036E02949096888
S11318400122202390FBF3F404FB130412FA04F0A6
S113185008432449086028E0234909680122202319
S113186090FBF3F404FB130412FA04F008431E493A
S113187008601AE01D4909680122202390FBF3F453
S113188004FB130412FA04F00843184908600CE03E
S1131890174909680122202390FBF3F404FB130485
S11318A012FA04F008431249086010BC70470000A3
S11318B000010A0018B0044000C0044094F00F4036
S11318C0D4F00F4080E200E000E100E084E200E0B8
S11318D004E100E088E200E008E100E08CE200E0DE
S11318E00CE100E080E100E084E100E088E100E058
S11318F08CE100E0021E5C2A02D20A1E102A00D3E8
S113190005E000F1604010F5644009010170704782
S1131910F0B56948006850F40050674908606748AA
S1131920007810F0F30065490870002064490870DD
S1131930644800684FF47A7181FB00015FF4E1129E
S1131940002300F0C9F904005E4800684FF4FA412E
S113195081FB00015FF4E112002300F0BDF9B0EB5C
S113196044155848006842F2107181FB000115EBE0
S11319704412521CD31700F0AFF9534A5FF0FF33FF
S113198080185941002915DB01DC002812D34D4889
S1131990006842F2107181FB000115EB4412521CE5
S11319A0D31700F099F9484A5FF0FF33861851EBDA
S11319B0030713E04348006842F2107181FB000101
S11319C015EB4412521CD31700F086F93E4A5FF01F
S11319D0FF3380185941464271EB4107394800688A
S11319E042F2107181FB000115EB4412D31700F091
S11319F073F9354A5FF0FF3380185941002913DB2E
S1131A0001DC002810D32F48006842F2107181FBDA
S1131A10000115EB4412D31700F05EF92A4A5FF077
S1131A20FF338018594112E02648006842F21071D1
S1131A3081FB000115EB4412D31700F04DF9224A43
S1131A405FF0FF3380185941404271EB41018F42EE
S1131A5003DC01DB864200D26D1C201210F01F0053
S1131A601A4908701A48047015F01F0019490870C3
S1131A704FF44070184908604FF4407017490860EB
S1131A800E48007850F02C000C490870F0BD144941
S1131A9009780906FBD513490870704707E0104A16
S1131AA012781206FBD502780E4B1A70401C0A00FD
S1131AB0511E002AF3D170473480044003D00640FD
S1131AC002D006406C04FF1F0036F7FF00D006402A
S1131AD001D006400AD0064044B0044040B004405F
S1131AE004D0064007D00640002840F10780F446A1
S1131AF0404200F003F850F0004060470AD0B0FACA
S1131B0080F18840D1F19D01C905020672F10042BD
S1131B1041EB1020704750F8041B61B150F8042BBE
S1131B20D30744BFA9F101039A18002342F8043BE8
S1131B30091FFAD1EFE77047FF2212EAD05C1DBFFC
S1131B4012EAD153944593422BE09C44D30780EA94
S1131B5001021A4043EA002043EA0121A1FB0030BC
S1131B60410038BF40007CF17F010BDBFE294ADADB
S1131B705B0842EAC15153EA006373F1004C51EB34
S1131B8010207047D1F1080CDCF120012FDB5B0839
S1131B9010FA01F10B4373F1004120FA0CF05041AB
S1131BA0704794451CBF02EAD153934280EA010274
S1131BB002F000421DD0400019D0490017D05BB993
S1131BC0634514D00902B1FA81F39940BCEB030CCC
S1131BD0C00140F00040C1E70002B0FA80FC10FAF6
S1131BE00CF0B3EB0C0CC90141F00041B6E7100056
S1131BF0704740000AD0490008D010F1807F94BF9C
S1131C0011F1807F02E042F0FF407047D0437047FB
S1131C1090EA010F44BF81F0004100F0F7B800BF23
S1131C20421A3CBF801A89184FF0004CC0F3C752C7
S1131C30FF2A24D0C1F3C75313B3D21AD2F1190324
S1131C4027DD4CEA01214CFA03F321EA0303D140D6
S1131C50C20D4CEA0020401834BF20EA0C004CEAC4
S1131C605000D20553EA006373EB0C0C52EB1020C6
S1131C70420012F1807F38BF7047C00DC005704725
S1131C80490212BF9A4200EB5120F8E7D2F1170340
S1131C90D9D570474100090E7F3915D4D1F11F0100
S1131CA014D4400007D2C00140F00040C84048BFEF
S1131CB06FF000407047C00140F00040C8404CBF86
S1131CC04FF00040404270470020704700424FF000
S1131CD0004058BFC043704713F0004C03D55B422B
S1131CE0524263F100039CEA210C00F0178010B506
S1131CF0644603D34942404261F1000100F00EF80A
S1131D00640004D34942404261F10001244203D5F6
S1131D105B42524263F1000310BD00001B4213D129
S1131D20094236D12AB18446B0FBF2F002FB10C25C
S1131D30704700F0D7B8FCD30022002370470B0093
S1131D400200002100207047904271EB030CF6D38F
S1131D5070B5B1FA81F4B3FA83F52C1BA340C4F136
S1131D60200532FA05F63343A2405FF00046E64010
S1131D7002E05B085FEA3202841A71EB030524BFB8
S1131D80204629467641F4D302000B00300000219E
S1131D9070BD012ACFD970B5140C20D0B1FA81F4EA
S1131DA0B2FA82F5C4F120046419B4F12006D6D342
S1131DB0B2405FF00044F440002502E052085FEABC
S1131DC03303C61A71EB020E24BF304671466441D8
S1131DD06D41F3D302000B002000290070BD0C46B6
S1131DE0B1FBF2F102FB11452D0445EA1045B5FBA8
S1131DF0F2F402FB145580B240EA0545B5FBF2F05B
S1131E0002FB105240EA044070BD0000431A4FF038
S1131E1000423EBF5340C01AC91800BFD3095FEA4D
S1131E20D05C13EB400F34BFB3EB410F40E07CEBCD
S1131E30D1530CD342EA012122D8D1EB402009D35B
S1131E40400A28BF5FEA500140EBCC507047401A6B
S1131E5015D04002B0FA80F2521C9040400A4FEA7A
S1131E603C23B3EB026384BF00EB730007E040F450
S1131E7000001A16DB07C2F10102D0401843704774
S1131E80182BFCDC31FA03F202FA03F3591A38BFB7
S1131E9042F00102D2EB40203CBF4000ACF1010C07
S1131EA05FEACC5CC20572F100414CEB50207047F4
S1131EB013EB400F0FD24B0009D0ACEBD153022BE4
S1131EC003DB4902172BDDDD70479143401A4300C1
S1131ED0D5D10020704713EB410FD0D36FF0000031
S1131EE0704700007047000010B500244FF4807064
S1131EF0DFF8481508604FF48070DFF84415086077
S1131F00DFF84005006850F00200DFF8381508607B
S1131F10DFF83005006850F00100DFF8281508608C
S1131F20DFF82405006830F00200DFF81C150860B3
S1131F30DFF81405006840084000DFF80C1508605D
S1131F40E4B2322C06DA641C00F006F80128F7D15A
S1131F50012000E0002010BD10B5002401210C2058
S1131F6000F008FA002801D1002060E00020DFF82A
S1131F70DC1408600120DFF8D41408605FF0FF303F
S1131F80DFF8CC140968401ADFF8C8140968B0FBFC
S1131F90F1F042F211718842F0D300210C2000F0DC
S1131FA0E9F9002801D1002041E00020DFF89C1469
S1131FB008600120DFF8941408605FF0FF30DFF858
S1131FC090140968401ADFF88C140968B0FBF1F02A
S1131FD043F699218842F0D3002400E0641CA12C2C
S1131FE024D20020DFF8641408600120DFF85C14B8
S1131FF008605FF0FF30DFF858140968401ADFF812
S113200054140968B0FBF1F0B0F5FA6FF1D9DFF8B8
S1132010480410EBC4004168DFF83C0450F8340075
S113202000F0A8F90028D9D1002000E0012010BD5B
S1132030DFF81404006850F00100DFF80C140860A5
S11320400020DFF8081408600120DFF8001408609D
S11320505FF0FF30DFF8F8130968401ADFF8F41373
S11320600968B0FBF1F01028F2D3DFF8DC03006854
S113207050F00200DFF8D01308600020DFF8CC1322
S113208008600120DFF8C41308605FF0FF30DFF858
S1132090C0130968401ADFF8BC130968B0FBF1F0FB
S11320A01028F2D3DFF8A003006840084000DFF8EE
S11320B0981308600020DFF8941308600120DFF80B
S11320C08C1308605FF0FF30DFF884130968401A4E
S11320D0DFF880130968B0FBF1F01028F2D3DFF8C1
S11320E06803006830F00200DFF85C130860002029
S11320F0DFF8581308600120DFF8501308605FF020
S1132100FF30DFF84C130968401ADFF848130968F8
S1132110B0FBF1F01028F2D37047DFF82C0300680D
S113212040084000DFF8201308600020DFF81C138B
S113213008600120DFF8141308605FF0FF30DFF857
S113214010130968401ADFF80C130968B0FBF1F0AA
S11321501028F2D3DFF8F002006850F00200DFF834
S1132160E81208600020DFF8E41208600120DFF8BC
S1132170DC1208605FF0FF30DFF8D4120968401AFF
S1132180DFF8D0120968B0FBF1F01028F2D3DFF8C1
S1132190B802006850F00100DFF8AC1208600020BB
S11321A0DFF8A81208600120DFF8A01208605FF0D1
S11321B0FF30DFF89C120968401ADFF898120968AA
S11321C0B0FBF1F01028F2D37047002157E0DFF89C
S11321D07822126852085200DFF86C321A6000222A
S11321E0DFF868321A600122DFF860321A605FF0AB
S11321F0FF32DFF85C321B68D21ADFF858321B68F2
S1132200B2FBF3F20F2AF2D3DFF83C22126852F049
S11322100202DFF834321A600022DFF830321A602A
S11322200122DFF828321A605FF0FF32DFF8203233
S11322301B68D21ADFF81C321B68B2FBF3F2102AB7
S1132240F2D3DFF80422126832F00202DFF8F83128
S11322501A600022DFF8F4311A600122DFF8EC3151
S11322601A605FF0FF32DFF8E8311B68D21ADFF83A
S1132270E4311B68B2FBF3F2022AF2D3491CC9B25F
S113228008290DDAC0B210FA01F212069FD5DFF860
S1132290B821126852F00102DFF8AC311A609EE7EF
S11322A00020DFF8A81108600120DFF8A011086001
S11322B05FF0FF30DFF898110968401ADFF89411D5
S11322C00968B0FBF1F00628F2D3DFF87801006862
S11322D0400840005B49086000205C490860012018
S11322E05A4908605FF0FF3059490968401A594952
S11322F00968B0FBF1F00B28F4D35348006850F0A0
S113230002005149086000205049086001204F49EB
S113231008605FF0FF304E490968401A4D4909686A
S1132320B0FBF1F01A28F4D34C480068C00701D57B
S1132330002000E001204449096831F00201424ACA
S113234011600021414A11600121404A11605FF08F
S1132350FF313F4A1268891A3E4A1268B1FBF2F112
S11323600B29F4D33749096851F00101354A11604A
S1132370C0B2704738B504000D00FFF759FE902035
S1132380FFF723FF002803D1FFF7C7FE002053E027
S113239000202E49086001202C4908605FF0FF30BE
S11323A02B490968401A2B490968B0FBF1F015283C
S11323B0F4D32000C0B2FFF708FF002803D1FFF7D1
S11323C0ACFE002038E000202049086001201F49AD
S11323D008605FF0FF301E490968401A1D4909680A
S11323E0B0FBF1F01528F4D3280AC0B2FFF7EDFED4
S11323F0002803D1FFF791FE00201DE000201349BF
S113240008600120114908605FF0FF301049096835
S1132410401A10490968B0FBF1F01528F4D32800DC
S1132420C0B2FFF7D2FE002803D1FFF776FE0020EA
S113243002E0FFF772FE012032BD000004D0044028
S113244000D0044014F10F4000F10F4038710340F4
S1132450347103407004FF1F6024000010F10F402A
S113246015000000327F000020000000D1010000B0
S1132470700000000400000073000000F702000078
S1132480C2000000400000001C0000000300000027
S1132490310000001F000000320000001A0000009C
S11324A03300000012000000AF0000000000000034
S11324B02B0000000300000010000000400000009A
S11324C00F0000001100000015000000327F000022
S11324D01C000000020000000100000019000000C0
S11324E0020000000400000003000000E0010000FE
S11324F004000000F0020000050000006400000079
S1132500060000001F000000070000008803000010
S113251008000000C8000000090000009600000048
S11325200A000000640100000B000000FA00000033
S11325300C000000000000000D0000000503000076
S11325400E000000000000000F0000001100000059
S1132550100000002D000000110000004280000067
S1132560120000002200000013000000320E0000E0
S113257014000000020E000015000000320E0000DE
S1132580160000000228000017000000383E00007A
S113259018000000383E0000190000000228000066
S11325A01A000000280400001B00000000000000C6
S11325B01C000000020000001D00000000000000DC
S11325C01E000000000000001F00000000000000CA
S11325D02000000011000000210000002000000085
S11325E02200000020000000230000001000000072
S11325F0240000001000000025000000200000005E
S11326002600000010000000270000001000000059
S11326102800000010000000290000001000000045
S11326202A000000200000002B000000040000002D
S11326302C000000040000002D0000000400000035
S11326402E000000070000002F000000040000001E
S11326503000000003000000310000001D000000F5
S113266032000000180000003300000015000000D4
S113267034000000040000003500000040000000A9
S11326803600000040000000370000000000000099
S11326903800000000000000460000001D23000078
S11326A047000000808000004C0000000200000091
S11326B06000000000000000610000000000000055
S11326C06200000000000000630000000000000041
S11326D0640000000000000065000000000000002D
S11326E06600000000000000670000000000000019
S11326F06C000000000000007000000034000000C6
S1132700710000000000000072000000DE00000004
S113271073000000F70200007400000000000000D5
S11327207F0000000000000080000000F4000000B2
S113273081000000F400000082000000F4000000AA
S113274083000000F400000084000000F400000096
S113275085000000F400000086000000F400000082
S113276087000000F400000088000000F40000006E
S113277089000000F40000008A000000F40000005A
S11327808B000000F40000008C000000F400000046
S11327908D000000F40000008E000000F400000032
S11327A08F000000F400000090000000F40000001E
S11327B091000000F400000092000000F40000000A
S11327C093000000F400000094000000F4000000F6
S11327D095000000F400000096000000F4000000E2
S11327E097000000F400000098000000F4000000CE
S11327F099000000000000009A000000960000000C
S11328009B0000002C0100009C000000C20100009D
S11328109D000000580200009E000000F00200002D
S11328209F00000000000000A00000006000000005
S1132830A1000000C0000000A20000002001000070
S1132840A300000080010000A4000000E0010000DB
S1132850A50000003A000000A600000002000000ED
S1132860A700000000000000A80000000000000015
S1132870A900000002000000AA00000000000000FF
S1132880AB00000002000000AF00000003000000E5
S1132890B0000000E0AB0000B10000000200000046
S11328A0B200000010000000B3000000100000009F
S11328B0B400000000000000B500000000000000AB
S11328C0B600000000000000B70000000000000097
S11328D0BD00000004010000BE0000001400000060
S11328E0BF00000016000000C00000000A00000045
S11328F0C200000040180000C300000000000000F7
S1132900C400000016440000C5000000214400007B
S1132910F100000000000000FE000000EFBE000017
S11329207400000008000000000000000000000027
S11329300000000000000000000000000000000093
S11329400000000000000000000000000000000083
S11329500000000000000000000000000000000073
S11329600000000000000000DFF800F01104FF1F69
S113297080B5C0B2002816D0C0B2012813D0C0B2AE
S1132980022810D0C0B203280DD0C0B204280AD047
S1132990C0B2052807D0C0B2062804D0C0B20728A8
S11329A001D00020AEE00022624B1A70624A126825
S11329B052F08052604B1A60604A127852F08002E2
S11329C05E4B1A7098225E4B1A705E4A1278D206D9
S11329D0FBD45C4A1278C2F38102D2B2022AF8D143
S11329E0C0B2072808D0C0B2022805D0C0B203285C
S11329F002D0C0B2042803D10122534B1A7002E062
S1132A000322514B1A700022504B1A70C0B2002896
S1132A100BD002281FD013D3042832D026D3062883
S1132A2045D039D307284DD056E001230022002198
S1132A300020FFF799FF41204449087032214BE000
S1132A400323012201210020FFF78EFF5A203F4972
S1132A500870642140E00423012201210020FFF7D3
S1132A6083FF502039490870A02135E00523012255
S1132A7001210020FFF778FF552034490870B42164
S1132A802AE00523012201210020FFF76DFF5A20CF
S1132A902E490870C8211FE00123002200210020D4
S1132AA0FFF762FF402029490870302114E0032316
S1132AB0012201210020FFF757FF58202349087005
S1132AC0602109E00423012201210020FFF74CFFCB
S1132AD048201E49087080211A4800788006FBD5DA
S1132AE0184800784006FBD51548007810F03F00E0
S1132AF0134A107013480078C0F38100C0B2032851
S1132B00F8D1080002BD1248006850F48050104902
S1132B1008604FF4E0600F49086070470E48006891
S1132B2050F001000C4908604FF4A0600B490860A4
S1132B3070470000014006403480044008C007404C
S1132B40004006400640064004400640054006405A
S1132B500480044018900440408004400CB00440B9
S1132B604FF480704D4908604FF480704C49086000
S1132B704FF480704B4908604FF480704A490860F4
S1132B804FF48070494908604FF4807048490860E8
S1132B904FF48070474908604FF4807046490860DC
S1132BA04FF48070454908604FF4807044490860D0
S1132BB04FF4807043490860082005E04FF48171A8
S1132BC0414A42F82010401C1028F7DB3F480068B7
S1132BD030F040003D4908603D48006830F0040092
S1132BE03B4908603A48006830F0100038490860F2
S1132BF03748006830F040003549086035480068BF
S1132C0030F40070334908603348006850F0200005
S1132C10314908602E48006850F080602C490860F3
S1132C202B48006850F008002949086028480068CB
S1132C3050F02000264908602548006850F0807054
S1132C40234908602248006850F000702049086059
S1132C502248006850F0200020490860204800689D
S1132C6050F080601E4908601D48006850F008005C
S1132C701B4908601A48006850F020001849086091
S1132C801748006850F080701549086014480068BF
S1132C9050F0007012490860704700BF18C004402B
S1132CA008D0044010D0044018D0044014B00440AC
S1132CB068D004400CD0044014D0044060D00440D8
S1132CC064D0044024A0044000B00440D4F00F4079
S1132CD014F10F4054F00F4094F00F4080F00F4077
S1132CE000F10F4080B500F003F800F047F801BD93
S1132CF03C48006850F080703A49086004203A4922
S1132D000860002039490860002039490860002023
S1132D1038490860002038490860002037490860B5
S1132D2000203749086000203649086000203649F1
S1132D3008600020354908600020354908600020FB
S1132D40344908604FF47A703349086028202F49C9
S1132D5008600020314908604FF480603049086001
S1132D600A20224908604FF4FA702C4908602D4863
S1132D70006850F400702B49086070472A480068C6
S1132D8050F0807028490860042028490860002019
S1132D902749086000202749086000202649086068
S1132DA000202649086000202549086043F2D40029
S1132DB0244908602820214908600020224908602D
S1132DC04FF44070214908600D201949086042F20F
S1132DD00C401D4908601E48006850F400701C49EE
S1132DE0086070473C8004405480034000800340E6
S1132DF04C800340048003400C8003401480034053
S1132E001C800340248003402C8003403480034012
S1132E103C800340448003400880034038800340E2
S1132E2014C00440988003403080044054800B4018
S1132E3000800B404C800B4004800B400C800B4006
S1132E4014800B4008800B4010800B4048A00440C5
S1132E5098800B4080B500F055F800F005F800F0BC
S1132E606DF800F0A3F8FEE780B51C481C498842C1
S1132E700BD0002006E01A4951F82010174A42F8F6
S1132E802010401CB0F5826FF5DB144800F0B8F850
S1132E901449154A1548801A03E013780B70521C24
S1132EA0491C0300581E012BF7DA11491148401A36
S1132EB002E000220A70491C0200501E012AF8DABE
S1132EC00D490E4A0E48801A03E013780B70521C09
S1132ED0491C0300581E012BF7DA01BD0000FF1F37
S1132EE0000000005C04FF1F443300004C3300006A
S1132EF06404FF1F422FFF1F1004FF1F3432000021
S1132F008032000080B500F009F80A4800884FF6C6
S1132F10FE7108400749088001BD000072B64CF2FA
S1132F202050054908804DF628100349088062B6F0
S1132F3070470000002005400E20054080B515486C
S1132F40006850F47850134908600720FFF710FD1B
S1132F5011490860104800684FF47A7148430F49DA
S1132F6008600E4800680E490968C1F30361491CF2
S1132F70B0FBF1F00B4908600A4800684FF47A711D
S1132F8090FBF1F008490860FFF7BDFDFFF7C6FDAF
S1132F9001BD00BF388004406804FF1F6404FF1FA4
S1132FA0448004406C04FF1F7004FF1F80B572B698
S1132FB000F02CF800200D49086001200B4908603E
S1132FC05FF0FF300A490968401A0A490968B0FBF2
S1132FD0F1F009498842F3D3FDF738FA62B607489D
S1132FE000780228FBD1FDF7ADFAF8E73871034009
S1132FF0347103407004FF1F41420F003E2FFF1F36
S1133000014908607047000008ED00E080B5FFF753
S1133010A7FDFFF767FE00F02BF8FEF74DFB00F06D
S11330206DF8FEF775FC00F0A3F800F0D5F8002069
S11330300B49086001200A4908605FF0FF30094924
S11330400968401A08490968B0FBF1F00749884249
S1133050F3D3FEF749FF002800D1FEE701BD00BF0E
S113306038710340347103407004FF1F81841E00D3
S11330701748006850F400001549086000201549FD
S11330800860154800684021484319301349086016
S11330900020134908607FF01F00124908600020D7
S11330A0114908600C4800684FF47A6148430F499D
S11330B0086000200E49086003200D4908607FF075
S11330C01F000C49086000200B490860704700BFCE
S11330D03C800440007003407004FF1F00710340F3
S11330E008710340107103401871034020710340BC
S11330F02871034030710340387103404FF4C060BD
S1133100114908604FF4C060104908601048006815
S113311050F000700E49086005200E490860002038
S11331200D49086000200D4908604FF6FF700C49F6
S1133130086019200B490860C1200B490860FF2072
S11331400A490860704700BF00A0044004A004407E
S11331503C800440549003404C900340049003404E
S1133160089003400090034080900340789003400F
S11331704FF48070DFF8501008604FF48070DFF86F
S11331804C100860DFF84800006850F00400DFF8D5
S113319040100860DFF83800006850F00800DFF8DD
S11331A030100860DFF82C00006850F00800DFF8E9
S11331B024100860DFF81C00006850F00400DFF8F9
S11331C014100860704700000CA0044008A00440DC
S11331D054F00F4040F00F40DFF84400006850F016
S11331E04000DFF83C1008604FF40070DFF8341042
S11331F008604FF40070DFF830100860DFF8280032
S1133200006850F02000DFF8201008606020DFF82C
S11332101C1008708020DFF8181008707047000038
S11332203480044008A004400CA00440016006401F
S11332300260064070B4104C24680F4D2D6855F49C
S11332407F050D4E3560090611F0706151EA00707A
S1133250110511F470010843190411F47021084395
S113326006490860002000E0401CC0B29842FBD32D
S11332700148046070BC704700F001404480044081
S113328010B5074979441831064C7C44163404E0DF
S11332900A68081D511888470146A142F8D110BD9B
S11332A02C0000003800000005480068401C044958
S11332B0086004480078C0B203490860704700BF42
S11332C0342FFF1F04ED00E0302FFF1F4BE8FFFFFA
S11332D0E02A00006404FF1F0000000000F00BF867
S11332E0002801D0FFF7CCFF0020C046C046FFF7FE
S11332F05DFE00F002F80120704700F001B8000004
S11333000746384600F002F8FBE7000080B5C046E7
S1133310C046024A11001820ABBEFBE7260002009B
S1133320C046C046C046C046FFF7D8FFFE01FE01B6
S1133330FE0000001516171819000000FD02FD021A
S10F3340FD0000005100000051000000DE
S9033321A8
