S00D0000736D6172742E73726563F0
S1130000F8FF002011040000A52E0000A52E00001A
S1130010A52E0000A52E0000A52E0000A52E000090
S1130020A52E0000A52E0000A52E0000A52E000080
S1130030A52E0000A52E0000A52E0000A52E000070
S1130040A52E0000A52E0000A52E0000A52E000060
S1130050A52E0000A52E0000A52E0000A52E000050
S1130060A52E0000A52E0000A52E0000A52E000040
S1130070A52E0000A52E0000A52E0000A52E000030
S1130080A52E0000A52E0000A52E0000A52E000020
S1130090A52E0000A52E0000A52E0000A52E000010
S11300A0A52E0000A52E0000A52E0000A52E000000
S11300B0A52E0000A52E0000A52E0000A52E0000F0
S11300C0A52E0000A52E0000A52E0000A52E0000E0
S11300D0A52E0000A52E0000A52E0000A52E0000D0
S11300E0A52E0000A52E0000A52E0000A52E0000C0
S11300F0A52E0000A52E0000A52E0000A52E0000B0
S1130100A52E0000A52E0000A52E0000A52E00009F
S1130110A52E0000A52E0000A52E0000A52E00008F
S1130120A52E0000A52E0000A52E0000A52E00007F
S1130130A52E0000A52E0000A52E0000A52E00006F
S1130140A52E0000A52E0000A52E0000A52E00005F
S1130150A52E0000A52E00004D0F0000A52E0000C6
S1130160A52E0000A52E0000A52E0000A52E00003F
S1130170A52E0000A52E0000A52E0000A52E00002F
S1130180A52E0000A52E0000A52E0000A52E00001F
S1130190A52E0000A52E0000A52E0000A52E00000F
S11301A0A52E0000310500008D050000A52E0000DD
S11301B0A52E0000A52E0000A52E0000A52E0000EF
S11301C0A52E0000A52E0000A52E0000A52E0000DF
S11301D0A52E0000A52E0000A52E0000A52E0000CF
S11301E0A52E0000A52E0000A52E0000A52E0000BF
S1130400FFFFFFFFFFFFFFFFFFFFFFFFFEFFFFFFF9
S11304104FF000004FF000014FF000024FF00003D6
S11304204FF000044FF000054FF000064FF00007B6
S11304304FF000084FF000094FF0000A4FF0000B96
S11304404FF0000C62B602F01DFBFEE780B500F031
S113045019F800F0A9FE0020DFF8AC1B08600020AA
S1130460DFF8581C08600020DFF8501C08600320E7
S1130470DFF8481C08605A2000F071FF592000F092
S11304806EFF01BDDFF8840B0068400607D5DFF876
S1130490800B006830F00800DFF8741B0860DFF898
S11304A0740B0068400707D5DFF8640B006830F070
S11304B02000DFF85C1B0860DFF8580B0068C006FA
S11304C007D5DFF84C0B006830F08070DFF8401B74
S11304D00860DFF8400B0068400607D5DFF8300BF2
S11304E0006830F00070DFF8281B0860DFF8280B84
S11304F0DFF8281B0860DFF8280BDFF8281B0860EA
S11305005FF07E50DFF8B81B0860DFF8B80BDFF847
S1130510B81B0860DFF8B40BDFF8B41B08601E20BA
S1130520DFF8B01B0860704780B500F0E0F801BD4B
S113053080B5DFF8A40B006850F08070DFF8981BDA
S113054008600020DFF8C01A08605A2000F007FF96
S11305500520DFF8881B0968DFF8802B126892FBFE
S1130560F0F200FB1210002807D1DFF8740B0068CA
S113057090F02000DFF8681B0860DFF8600B00686B
S1130580401CDFF8581B086001BD000080B5DFF88F
S1130590540B006850F08070DFF8481B0860DFF8E7
S11305A0680A0068401CDFF8601A0860DFF8380B3E
S11305B00078002812D1DFF8500A00686928C0F2D8
S11305C092800120DFF8201B08700020DFF81C1B3C
S11305D008600320DFF8181B086084E0DFF8080BCC
S11305E0007801286BD1DFF8040B0068142808DBBD
S11305F0DFF8FC0A0068032803D10220DFF8F01AB0
S11306000860DFF8040A0068DFF8FC190968DFF8FD
S1130610E02A126891FBF2F1DFF8D42A126802FB97
S11306201100002841D10020DFF8C81A0860012019
S1130630DFF8C01A08605FF0FF30DFF8BC1A096801
S1130640401ADFF8B81A0968B0FBF1F00228F2D3B7
S1130650DFF8AC0ADFF8941A0968A22202FB010051
S1130660DFF8A01A0860002006E0491C0329FCDB1F
S113067000BF00BF00BF401CA2280FDADFF8881AB1
S11306800968090ADFF8842A1160DFF8801A09680A
S1130690DFF8702A126881540021E7E7DFF84C0A7A
S11306A00068401CDFF8441A0860DFF8400A00685C
S11306B03C2818DB0220DFF8301A087013E0DFF85A
S11306C0280A007802280ED0DFF81C0A00780328D4
S11306D009D15A2000F0BBFE592000F040FE002052
S11306E0DFF8041A0870462000F039FE01BDF8B5A1
S11306F000210020DFF8182A10600020DFF8142AF7
S113070010600020DFF8102A10600120DFF80C2AA6
S11307101070002034E0DFF8082ADFF8F8391B688D
S113072022F82300DFF8FC2932F91120DFF8F03930
S1130730DFF8E049246813EB84035A80DFF8D429F6
S11307401268521CDFF8CC391A60DFF8DC29DFF8B4
S1130750C8391B6822F82300DFF8D02932F91110B8
S1130760DFF8C429DFF8B0391B6812EB830251802B
S1130770DFF8A4190968491CDFF89C291160401CA2
S11307803C2880F2EA800021DFF8A4291180DFF8F8
S11307907019A22202FB001191F8A110BA2907DBFB
S11307A00021DFF88029DFF888391B8822F813102C
S11307B0A1241AE0DFF84819A22202FB00116118F3
S11307C011F8011CBA291ADAD4F1A201DFF85C2964
S11307D0DFF85C391B8822F81310DFF854190988F4
S11307E0491CDFF84C291180641E012C28DBDFF83A
S11307F01019A22202FB0011615CBA29DADADFF8CF
S11308000019A22202FB0011615CBA2913DADFF895
S1130810F018A22202FB0011611811F8011CBA2978
S113082009DBD4F1A101DFF8FC28DFF804391B88C7
S113083022F81310D8E7DFF8F81809880A29D3DB5F
S1130840DFF8BC18A22202FB00110978BA2913DBD5
S1130850DFF8DC1809880A290EDAA121DFF8CC2890
S1130860DFF8CC381B8822F81310DFF8C418098885
S1130870491CDFF8BC281180DFF8A018097800298A
S113088066D00022DFF8A818098800293FF477AF62
S1130890DFF898180988DFF88C381B88C91A0124F6
S11308A015E0DFF8883833F81430DFF8785835F875
S11308B014505B1B8B4209DBDFF8701831F81410FD
S11308C0DFF8602832F81420891A2200641CDFF84B
S11308D060381B889C42E4DB3D29FFF650AF0021C1
S11308E0DFF838381970DFF83818DFF828381B6853
S11308F021F82300DFF82C1831F91210DFF8203822
S1130900DFF81048246813EB84035980DFF80418D7
S11309100968491CDFF8FC371960DFF80C18DFF8A8
S1130920F8371B6821F82300DFF8001831F912109A
S1130930DFF8F427DFF8E0371B6812EB83025180FD
S1130940DFF8D4170968491CDFF8CC27116016E7D3
S1130950DFF8DC170988002907D1DFF8BC07006835
S1130960DFF8AC17086000241CE100240021DFF844
S1130970C42711701FE0DFF8A827DFF898371B6839
S113098012EB830232F9022C891ADFF8AC271160CA
S1130990DFF8A417096800290CD4DFF8A017DFF8E2
S11309A0942712785454DFF88C170978491CDFF81F
S11309B084271170641CDFF8781709888C4230DAB8
S11309C0DFF8681731F81410DFF85C27DFF84837D0
S11309D01B6812EB830232F9022C914204DADFF82D
S11309E04C1731F8141008E0DFF83C17DFF828271B
S11309F0126811EB820131F9021CDFF8282732F862
S1130A001420DFF81C37DFF80C572D6813EB85032F
S1130A1033F9023C9A42AEDBDFF8082732F814209F
S1130A20B2E7DFF81017097801293AD1DFF8F01698
S1130A30DFF8E026126821F82200DFF8E816DFF874
S1130A40FC26127831F91210DFF8D426DFF8C43608
S1130A501B6812EB83025180DFF8B8160968491C41
S1130A60DFF8B0261160DFF8C016DFF8AC26126894
S1130A7021F82200DFF8B416DFF8C026127831F925
S1130A801210DFF8A426DFF890361B6812EB8302FD
S1130A905180DFF884160968491CDFF87C26116050
S1130AA06DE6DFF89016097800293FF456AF00216F
S1130AB0DFF87026DFF884361B7832F81320DFF86D
S1130AC06C36DFF87846247833F8143013FA82F25F
S1130AD0022392FBF3F2DFF84836DFF83846246845
S1130AE013EB840333F9023CDFF83C46DFF8285665
S1130AF02D6814EB850434F9024C04FA83F30224C0
S1130B0093FBF4F39C1A002C01D49D1A00E0D51A2F
S1130B10012402E09D1A2100641CDFF818261278D3
S1130B209442BFF6F8ADDFF8FC25DFF81066A65D49
S1130B3032F81620DFF8F465DFF80076E75D36F862
S1130B40176016FA82F2022692FBF6F2D61A002EEB
S1130B5001D4D61A00E09E1AAE42DDDAD11A002979
S1130B60D8D4D51AD7E7DFF8C00530F82400DFF869
S1130B70D01521F82400DFF8B00510EB8400B0F99B
S1130B800200DFF89C1511EB8401B1F9021001FA9F
S1130B9080F0022190FBF1F0DFF8A41511EB840141
S1130BA04880641CDFF8700500688442DBDB0020A9
S1130BB0DFF8901508600020DFF88C150860002429
S1130BC026E0DFF87C0510EB8400B0F90200001E7B
S1130BD0A3281CD2DFF870050068DFF8641531F92A
S1130BE024104018DFF860150860DFF85805006825
S1130BF0DFF84C1511EB8401B1F90210DFF8402540
S1130C0032F9242011FB0200DFF838150860641C57
S1130C10DFF8FC040068382801DB372002E0DFF845
S1130C20F00400688442CCDBDFF81C05006801286E
S1130C300ADBDFF810050068DFF80C15096890FB83
S1130C40F1F0DFF808150860DFF8000500680028F7
S1130C5004D50020DFF8F414086008E0DFF8EC04A1
S1130C600068A32803DBA220DFF8E0140860DFF8A3
S1130C70DC040068DFF8D8140968401A002807D497
S1130C80DFF8C8040068DFF8C8140968401A06E0F1
S1130C90DFF8BC040068DFF8B4140968401A5B2864
S1130CA005DBDFF8AC040068DFF8A0140860DFF8A7
S1130CB09C040068DFF89814086000F0B5F9DFF8C8
S1130CC094040078002800F027810521DFF88804C7
S1130CD000F0FCFC42F6D31424B24FF4807194FB70
S1130CE0F1F000FB1140C0B200F0E9FC24B24FF473
S1130CF0807094FBF0F0C0B200F0E1FCDFF85C041B
S1130D00B0F9004024B24FF4807194FBF1F000FB81
S1130D101140C0B200F0D3FC24B24FF4807094FBB5
S1130D20F0F0C0B200F0CBFC3C2424B24FF480714C
S1130D3094FBF1F000FB1140C0B200F0C0FC24B2FF
S1130D404FF4807094FBF0F0C0B200F0B8FCA22421
S1130D5024B24FF4807194FBF1F000FB1140C0B257
S1130D6000F0ADFC24B24FF4807094FBF0F0C0B2FC
S1130D7000F0A5FCB92424B24FF4807194FBF1F087
S1130D8000FB1140C0B200F09AFC24B24FF4807012
S1130D9094FBF0F0C0B200F092FC502424B24FF463
S1130DA0807194FBF1F000FB1140C0B200F087FCAD
S1130DB024B24FF4807094FBF0F0C0B200F07FFCDA
S1130DC0502424B24FF4807194FBF1F000FB1140E5
S1130DD0C0B200F074FC24B24FF4807094FBF0F0C5
S1130DE0C0B200F06CFC42F2F851C54800F06EFC51
S1130DF0DFF85803046824B24FF4807194FBF1F0D7
S1130E0000FB1140C0B200F05AFC24B24FF48070D1
S1130E1094FBF0F0C0B200F052FCBE48046824B267
S1130E204FF4807194FBF1F000FB1140C0B200F06C
S1130E3046FC24B24FF4807094FBF0F0C0B200F092
S1130E403EFC00240DE00221B54810EB840000F0C4
S1130E503DFC0221B24810EB8400801C00F036FCFB
S1130E60641C502CEFDBAC48046824B24FF480714E
S1130E7094FBF1F000FB1140C0B200F020FC24B25E
S1130E804FF4807094FBF0F0C0B200F018FC002422
S1130E900DE00221A44810EB840000F017FC0221AD
S1130EA0A14810EB8400801C00F010FC641C502C42
S1130EB0EFDB9748046824B24FF4807194FBF1F09F
S1130EC000FB1140C0B200F0FAFB24B24FF4807072
S1130ED094FBF0F0C0B200F0F2FB00240DE002211C
S1130EE0974810EB840000F0F1FB0221944810EBCA
S1130EF08400801C00F0EAFB641C502CEFDB05210D
S1130F00974800F0E3FB0521964800F0DFFB934887
S1130F100088401C91490880032073490870924856
S1130F200068401C9049086005208F4909688E4A72
S1130F30126892FBF0F200FB1210002805D134482D
S1130F40006890F0806032490860F1BD80B50120EE
S1130F508649086000205949086003205749086001
S1130F608348006800B28349086000208049086013
S1130F70804800688049486000F006F87F480068AF
S1130F80401C7E49086001BD80B55248006840425B
S1130F9079490860784800F067F979490860784829
S1130FA00068B0F57A7F04DD4FF47A707449086004
S1130FB007E07348006810F57A7F02DA71487049D7
S1130FC008606F480068022190FBF1F010F5FA7098
S1130FD0002807D46A480068022190FBF1F010F55C
S1130FE0FA7007E066480068022190FBF1F010F502
S1130FF0FA70404280B2644908606448006850F462
S113100000706249086001BDE404FF1FD0F00F4086
S113101000F10F4010F10F40000016438004FF1F41
S113102000008C428404FF1F10B548480068D0F1CA
S11310305100574908605648006800F06DFB22498A
S1131040096800F091FB534900F0FAFB0400504892
S1131050006851490968401A00F05EFB1C490968A0
S113106000F082FB210000F0EBFB00F02BFC4B496D
S1131070086047480068484908604848006842F2E8
S1131080C521884204DA42F2C4204449086009E0D8
S11310904248006842F23551884203DB42F235503F
S11310A03E4908603D48006880B23D4908603D48BB
S11310B0006850F400703B49086010BD287103407B
S11310C08804FF1F0000F040142FFF1FCDCCCC3E3E
S11310D0182FFF1F102FFF1F18B00440F804FF1F24
S11310E080F00F4000C00440342FFF1FE804FF1FAE
S11310F0F404FF1F38710340347103407004FF1F70
S1131100BC08FF1FF004FF1F90F00F40C02EFF1F0C
S1131110B42EFF1FB82EFF1FBC2EFF1F352FFF1F3D
S11311203C06FF1FC42EFF1F7C07FF1FD82EFF1F86
S1131130302FFF1F362FFF1FEC2EFF1FF02EFF1F37
S1131140FC04FF1FFC2EFF1F002FFF1F5C04FF1F6A
S11311506004FF1F372FFF1F282F0000322FFF1FAF
S1131160302F0000382F0000EC04FF1F2C710340C7
S1131170049003401C2FFF1F8C04FF1F242FFF1F0C
S1131180202FFF1F18FCFFFF388003409880034086
S1131190042FFF1F00381046082FFF1F0C2FFF1FBE
S11311A010800B4098800B4080B500F003F800F0ED
S11311B024F801BD0020224908600020204948602D
S11311C000201F49886000201D49C8601D48006830
S11311D01B4908611C480068194948611B4800689C
S11311E0174988614FF47A701549C8611848144941
S11311F0086200201249886270470020154908607F
S113120000201449486000201249886000201149D8
S1131210C860114800680F490861104800680D490A
S113122048610F4800680B4988614FF4A57009496B
S1131230C8610C48074908620020064948627047A3
S11312408C04FF1F8004FF1F8404FF1F8804FF1FFA
S113125018FCFFFFB804FF1F7404FF1F7C04FF1F6A
S11312607804FF1FB6FEFFFF2DE9F041040020685B
S11312706168451AA068281AE168461AA560E0600A
S1131280291E012920D3A76A00F046FA216900F03B
S11312906BFA8046280000F03FFA616900F064FAB6
S11312A0414600F0CDFA0500300000F035FAA1699E
S11312B000F05AFA290000F0C3FA00F003FB0A21F7
S11312C090FBF1F0C019A062A06AE169884202DBD8
S11312D0E069A06205E0206AA16A884201DB206A15
S11312E0A062A06ABDE8F08180B57D487D490860B0
S11312F07B487D4908607D480068400840007B4980
S113130008607B48006830F04000794908607548FF
S1131310006850F08070734908607348006850F0AA
S1131320807071490860F02080F31188592000F022
S113133016F85A2000F013F8462000F010F80321A4
S1131340592000F0EFF804215A2000F0EBF80521B1
S1131350462000F0E7F8602080F3118801BD10B446
S1131360011E5C2971D2202190FBF1F1002905D0E6
S1131370022937D01CD303294ED066E05D490968A1
S11313800122202390FBF3F404FB1304A240114335
S1131390584A1160584909680122202390FBF3F44C
S11313A004FB130412FA04F00843534908604CE0A8
S11313B0524909680122202390FBF3F404FB13042F
S11313C0A24011434D4A11604D490968012220236E
S11313D090FBF3F404FB130412FA04F008434849A5
S11313E0086032E0474909680122202390FBF3F4A6
S11313F004FB1304A2401143424A116042490968A4
S11314000122202390FBF3F404FB130412FA04F0EA
S113141008433D49086018E03C490968012220233B
S113142090FBF3F404FB1304A2401143374A116008
S1131430374909680122202390FBF3F404FB1304C9
S113144012FA04F008433249086010BC704710B423
S1131450011E5C2941D2202190FBF1F1002905D025
S113146002291FD010D303292AD036E0294909685C
S11314700122202390FBF3F404FB130412FA04F07A
S113148008432449086028E02349096801222023ED
S113149090FBF3F404FB130412FA04F008431E490E
S11314A008601AE01D4909680122202390FBF3F427
S11314B004FB130412FA04F00843184908600CE012
S11314C0174909680122202390FBF3F404FB130459
S11314D012FA04F008431249086010BC7047000077
S11314E000010A0018B0044000C0044094F00F400A
S11314F0D4F00F4080E200E000E100E084E200E08C
S113150004E100E088E200E008E100E08CE200E0B1
S11315100CE100E080E100E084E100E088E100E02B
S11315208CE100E0021E5C2A02D20A1E102A00D3BB
S113153005E000F1604010F5644009010170704756
S1131540F0B56948006850F400506749086067487E
S1131550007810F0F30065490870002064490870B1
S1131560644800684FF47A7181FB00015FF4E11272
S1131570002300F0C9F904005E4800684FF4FA4102
S113158081FB00015FF4E112002300F0BDF9B0EB30
S113159044155848006842F2107181FB000115EBB4
S11315A04412521CD31700F0AFF9534A5FF0FF33D3
S11315B080185941002915DB01DC002812D34D485D
S11315C0006842F2107181FB000115EB4412521CB9
S11315D0D31700F099F9484A5FF0FF33861851EBAE
S11315E0030713E04348006842F2107181FB0001D5
S11315F015EB4412521CD31700F086F93E4A5FF0F3
S1131600FF3380185941464271EB4107394800685D
S113161042F2107181FB000115EB4412D31700F064
S113162073F9354A5FF0FF3380185941002913DB01
S113163001DC002810D32F48006842F2107181FBAE
S1131640000115EB4412D31700F05EF92A4A5FF04B
S1131650FF338018594112E02648006842F21071A5
S113166081FB000115EB4412D31700F04DF9224A17
S11316705FF0FF3380185941404271EB41018F42C2
S113168003DC01DB864200D26D1C201210F01F0027
S11316901A4908701A48047015F01F001949087097
S11316A04FF44070184908604FF4407017490860BF
S11316B00E48007850F02C000C490870F0BD144915
S11316C009780906FBD513490870704707E0104AEA
S11316D012781206FBD502780E4B1A70401C0A00D1
S11316E0511E002AF3D170473480044003D00640D1
S11316F002D006406C04FF1F0036F7FF00D00640FE
S113170001D006400AD0064044B0044040B0044032
S113171004D0064007D00640002840F10780F44674
S1131720404200F003F850F0004060470AD0B0FA9D
S113173080F18840D1F19D01C905020672F1004291
S113174041EB1020704750F8041B61B150F8042B92
S1131750D30744BFA9F101039A18002342F8043BBC
S1131760091FFAD1EFE77047FF2212EAD05C1DBFD0
S113177012EAD153944593422BE09C44D30780EA68
S113178001021A4043EA002043EA0121A1FB003090
S1131790410038BF40007CF17F010BDBFE294ADAAF
S11317A05B0842EAC15153EA006373F1004C51EB08
S11317B010207047D1F1080CDCF120012FDB5B080D
S11317C010FA01F10B4373F1004120FA0CF050417F
S11317D0704794451CBF02EAD153934280EA010248
S11317E002F000421DD0400019D0490017D05BB967
S11317F0634514D00902B1FA81F39940BCEB030CA0
S1131800C00140F00040C1E70002B0FA80FC10FAC9
S11318100CF0B3EB0C0CC90141F00041B6E7100029
S1131820704740000AD0490008D010F1807F94BF6F
S113183011F1807F02E042F0FF407047D0437047CF
S113184090EA010F44BF81F0004100F0F7B800BFF7
S1131850421A3CBF801A89184FF0004CC0F3C7529B
S1131860FF2A24D0C1F3C75313B3D21AD2F11903F8
S113187027DD4CEA01214CFA03F321EA0303D140AA
S1131880C20D4CEA0020401834BF20EA0C004CEA98
S11318905000D20553EA006373EB0C0C52EB10209A
S11318A0420012F1807F38BF7047C00DC0057047F9
S11318B0490212BF9A4200EB5120F8E7D2F1170314
S11318C0D9D570474100090E7F3915D4D1F11F01D4
S11318D014D4400007D2C00140F00040C84048BFC3
S11318E06FF000407047C00140F00040C8404CBF5A
S11318F04FF00040404270470020704700424FF0D4
S1131900004058BFC043704713F0004C03D55B42FE
S1131910524263F100039CEA210C00F0178010B5D9
S1131920644603D34942404261F1000100F00EF8DD
S1131930640004D34942404261F10001244203D5CA
S11319405B42524263F1000310BD00001B4213D1FD
S1131950094236D12AB18446B0FBF2F002FB10C230
S1131960704700F0D7B8FCD30022002370470B0067
S11319700200002100207047904271EB030CF6D363
S113198070B5B1FA81F4B3FA83F52C1BA340C4F10A
S1131990200532FA05F63343A2405FF00046E640E4
S11319A002E05B085FEA3202841A71EB030524BF8C
S11319B0204629467641F4D302000B003000002172
S11319C070BD012ACFD970B5140C20D0B1FA81F4BE
S11319D0B2FA82F5C4F120046419B4F12006D6D316
S11319E0B2405FF00044F440002502E052085FEA90
S11319F03303C61A71EB020E24BF304671466441AC
S1131A006D41F3D302000B002000290070BD0C4689
S1131A10B1FBF2F102FB11452D0445EA1045B5FB7B
S1131A20F2F402FB145580B240EA0545B5FBF2F02E
S1131A3002FB105240EA044070BD0000431A4FF00C
S1131A4000423EBF5340C01AC91800BFD3095FEA21
S1131A50D05C13EB400F34BFB3EB410F40E07CEBA1
S1131A60D1530CD342EA012122D8D1EB402009D32F
S1131A70400A28BF5FEA500140EBCC507047401A3F
S1131A8015D04002B0FA80F2521C9040400A4FEA4E
S1131A903C23B3EB026384BF00EB730007E040F424
S1131AA000001A16DB07C2F10102D0401843704748
S1131AB0182BFCDC31FA03F202FA03F3591A38BF8B
S1131AC042F00102D2EB40203CBF4000ACF1010CDB
S1131AD05FEACC5CC20572F100414CEB50207047C8
S1131AE013EB400F0FD24B0009D0ACEBD153022BB8
S1131AF003DB4902172BDDDD70479143401A430095
S1131B00D5D10020704713EB410FD0D36FF0000004
S1131B10704700007047000010B500244FF4807037
S1131B20DFF8481508604FF48070DFF8441508604A
S1131B30DFF84005006850F00200DFF8381508604F
S1131B40DFF83005006850F00100DFF82815086060
S1131B50DFF82405006830F00200DFF81C15086087
S1131B60DFF81405006840084000DFF80C15086031
S1131B70E4B2322C06DA641C00F006F80128F7D12E
S1131B80012000E0002010BD10B5002401210C202C
S1131B9000F008FA002801D1002060E00020DFF8FE
S1131BA0DC1408600120DFF8D41408605FF0FF3013
S1131BB0DFF8CC140968401ADFF8C8140968B0FBD0
S1131BC0F1F042F211718842F0D300210C2000F0B0
S1131BD0E9F9002801D1002041E00020DFF89C143D
S1131BE008600120DFF8941408605FF0FF30DFF82C
S1131BF090140968401ADFF88C140968B0FBF1F0FE
S1131C0043F699218842F0D3002400E0641CA12CFF
S1131C1024D20020DFF8641408600120DFF85C148B
S1131C2008605FF0FF30DFF858140968401ADFF8E5
S1131C3054140968B0FBF1F0B0F5FA6FF1D9DFF88C
S1131C40480410EBC4004168DFF83C0450F8340049
S1131C5000F0A8F90028D9D1002000E0012010BD2F
S1131C60DFF81404006850F00100DFF80C14086079
S1131C700020DFF8081408600120DFF80014086071
S1131C805FF0FF30DFF8F8130968401ADFF8F41347
S1131C900968B0FBF1F01028F2D3DFF8DC03006828
S1131CA050F00200DFF8D01308600020DFF8CC13F6
S1131CB008600120DFF8C41308605FF0FF30DFF82C
S1131CC0C0130968401ADFF8BC130968B0FBF1F0CF
S1131CD01028F2D3DFF8A003006840084000DFF8C2
S1131CE0981308600020DFF8941308600120DFF8DF
S1131CF08C1308605FF0FF30DFF884130968401A22
S1131D00DFF880130968B0FBF1F01028F2D3DFF894
S1131D106803006830F00200DFF85C1308600020FC
S1131D20DFF8581308600120DFF8501308605FF0F3
S1131D30FF30DFF84C130968401ADFF848130968CC
S1131D40B0FBF1F01028F2D37047DFF82C030068E1
S1131D5040084000DFF8201308600020DFF81C135F
S1131D6008600120DFF8141308605FF0FF30DFF82B
S1131D7010130968401ADFF80C130968B0FBF1F07E
S1131D801028F2D3DFF8F002006850F00200DFF808
S1131D90E81208600020DFF8E41208600120DFF890
S1131DA0DC1208605FF0FF30DFF8D4120968401AD3
S1131DB0DFF8D0120968B0FBF1F01028F2D3DFF895
S1131DC0B802006850F00100DFF8AC12086000208F
S1131DD0DFF8A81208600120DFF8A01208605FF0A5
S1131DE0FF30DFF89C120968401ADFF8981209687E
S1131DF0B0FBF1F01028F2D37047002157E0DFF870
S1131E007822126852085200DFF86C321A600022FD
S1131E10DFF868321A600122DFF860321A605FF07E
S1131E20FF32DFF85C321B68D21ADFF858321B68C5
S1131E30B2FBF3F20F2AF2D3DFF83C22126852F01D
S1131E400202DFF834321A600022DFF830321A60FE
S1131E500122DFF828321A605FF0FF32DFF8203207
S1131E601B68D21ADFF81C321B68B2FBF3F2102A8B
S1131E70F2D3DFF80422126832F00202DFF8F831FC
S1131E801A600022DFF8F4311A600122DFF8EC3125
S1131E901A605FF0FF32DFF8E8311B68D21ADFF80E
S1131EA0E4311B68B2FBF3F2022AF2D3491CC9B233
S1131EB008290DDAC0B210FA01F212069FD5DFF834
S1131EC0B821126852F00102DFF8AC311A609EE7C3
S1131ED00020DFF8A81108600120DFF8A0110860D5
S1131EE05FF0FF30DFF898110968401ADFF89411A9
S1131EF00968B0FBF1F00628F2D3DFF87801006836
S1131F00400840005B49086000205C4908600120EB
S1131F105A4908605FF0FF3059490968401A594925
S1131F200968B0FBF1F00B28F4D35348006850F073
S1131F3002005149086000205049086001204F49BF
S1131F4008605FF0FF304E490968401A4D4909683E
S1131F50B0FBF1F01A28F4D34C480068C00701D54F
S1131F60002000E001204449096831F00201424A9E
S1131F7011600021414A11600121404A11605FF063
S1131F80FF313F4A1268891A3E4A1268B1FBF2F1E6
S1131F900B29F4D33749096851F00101354A11601E
S1131FA0C0B2704738B504000D00FFF759FE902009
S1131FB0FFF723FF002803D1FFF7C7FE002053E0FB
S1131FC000202E49086001202C4908605FF0FF3092
S1131FD02B490968401A2B490968B0FBF1F0152810
S1131FE0F4D32000C0B2FFF708FF002803D1FFF7A5
S1131FF0ACFE002038E000202049086001201F4981
S113200008605FF0FF301E490968401A1D490968DD
S1132010B0FBF1F01528F4D3280AC0B2FFF7EDFEA7
S1132020002803D1FFF791FE00201DE00020134992
S113203008600120114908605FF0FF301049096809
S1132040401A10490968B0FBF1F01528F4D32800B0
S1132050C0B2FFF7D2FE002803D1FFF776FE0020BE
S113206002E0FFF772FE012032BD000004D00440FC
S113207000D0044014F10F4000F10F4038710340C8
S1132080347103407004FF1F9020000010F10F40D2
S113209015000000327F000020000000D101000084
S11320A0700000000400000073000000F70200004C
S11320B0C2000000400000001C00000003000000FB
S11320C0310000001F000000320000001A00000070
S11320D03300000012000000AF0000000000000008
S11320E02B0000000300000010000000400000006E
S11320F00F0000001100000015000000327F0000F6
S11321001C00000002000000010000000F0000009D
S1132110020000000400000003000000E0010000D1
S113212004000000F002000005000000640000004C
S1132130060000001F0000000700000088030000E4
S113214008000000C800000009000000960000001C
S11321500A000000640100000B000000FA00000007
S11321600C000000000000000D000000050300004A
S11321700E000000000000000F000000110000002D
S1132180100000002D00000011000000428000003B
S1132190120000002200000013000000320E0000B4
S11321A014000000020E000015000000320E0000B2
S11321B0160000000228000017000000383E00004E
S11321C018000000383E000019000000022800003A
S11321D01A000000280400001B000000000000009A
S11321E01C000000020000001D00000000000000B0
S11321F01E000000000000001F000000000000009E
S11322002000000011000000210000002000000058
S11322102200000020000000230000001000000045
S11322202400000010000000250000002000000031
S1132230260000001000000027000000100000002D
S11322402800000010000000290000001000000019
S11322502A000000200000002B0000000400000001
S11322602C000000040000002D0000000400000009
S11322702E000000070000002F00000004000000F2
S11322803000000003000000310000001D000000C9
S113229032000000180000003300000015000000A8
S11322A0340000000400000035000000400000007D
S11322B0360000004000000037000000000000006D
S11322C03800000000000000460000001D2300004C
S11322D047000000808000004C0000000200000065
S11322E06000000000000000610000000000000029
S11322F06200000000000000630000000000000015
S11323006400000000000000650000000000000000
S113231066000000000000006700000000000000EC
S11323206C00000000000000700000003400000099
S1132330710000000000000072000000DE000000D8
S113234073000000F70200007400000000000000A9
S11323507F0000000000000080000000F400000086
S113236081000000F400000082000000F40000007E
S113237083000000F400000084000000F40000006A
S113238085000000F400000086000000F400000056
S113239087000000F400000088000000F400000042
S11323A089000000F40000008A000000F40000002E
S11323B08B000000F40000008C000000F40000001A
S11323C08D000000F40000008E000000F400000006
S11323D08F000000F400000090000000F4000000F2
S11323E091000000F400000092000000F4000000DE
S11323F093000000F400000094000000F4000000CA
S113240095000000F400000096000000F4000000B5
S113241097000000F400000098000000F4000000A1
S113242099000000000000009A00000096000000DF
S11324309B0000002C0100009C000000C201000071
S11324409D000000580200009E000000F002000001
S11324509F00000000000000A000000060000000D9
S1132460A1000000C0000000A20000002001000044
S1132470A300000080010000A4000000E0010000AF
S1132480A50000003A000000A600000002000000C1
S1132490A700000000000000A800000000000000E9
S11324A0A900000002000000AA00000000000000D3
S11324B0AB00000002000000AF00000003000000B9
S11324C0B0000000E0AB0000B1000000020000001A
S11324D0B200000010000000B30000001000000073
S11324E0B400000000000000B5000000000000007F
S11324F0B600000000000000B7000000000000006B
S1132500BD00000004010000BE0000001400000033
S1132510BF00000016000000C00000000A00000018
S1132520C200000040180000C300000000000000CA
S1132530C400000016440000C5000000214400004F
S1132540F100000000000000FE000000EFBE0000EB
S113255074000000080000000000000000000000FB
S11325600000000000000000000000000000000067
S11325700000000000000000000000000000000057
S11325800000000000000000000000000000000047
S11325900000000000000000DFF800F01104FF1F3D
S11325A080B5C0B2002816D0C0B2012813D0C0B282
S11325B0022810D0C0B203280DD0C0B204280AD01B
S11325C0C0B2052807D0C0B2062804D0C0B207287C
S11325D001D00020AEE00022624B1A70624A1268F9
S11325E052F08052604B1A60604A127852F08002B6
S11325F05E4B1A7098225E4B1A705E4A1278D206AD
S1132600FBD45C4A1278C2F38102D2B2022AF8D116
S1132610C0B2072808D0C0B2022805D0C0B203282F
S113262002D0C0B2042803D10122534B1A7002E035
S11326300322514B1A700022504B1A70C0B200286A
S11326400BD002281FD013D3042832D026D3062857
S113265045D039D307284DD056E00123002200216C
S11326600020FFF799FF41204449087032214BE0D4
S11326700323012201210020FFF78EFF5A203F4946
S11326800870642140E00423012201210020FFF7A7
S113269083FF502039490870A02135E00523012229
S11326A001210020FFF778FF552034490870B42138
S11326B02AE00523012201210020FFF76DFF5A20A3
S11326C02E490870C8211FE00123002200210020A8
S11326D0FFF762FF402029490870302114E00323EA
S11326E0012201210020FFF757FF582023490870D9
S11326F0602109E00423012201210020FFF74CFF9F
S113270048201E49087080211A4800788006FBD5AD
S1132710184800784006FBD51548007810F03F00B3
S1132720134A107013480078C0F38100C0B2032824
S1132730F8D1080002BD1248006850F480501049D6
S113274008604FF4E0600F49086070470E48006865
S113275050F001000C4908604FF4A0600B49086078
S113276070470000014006403480044008C0074020
S1132770004006400640064004400640054006402E
S11327800480044018900440408004400CB004408D
S11327904FF480704D4908604FF480704C490860D4
S11327A04FF480704B4908604FF480704A490860C8
S11327B04FF48070494908604FF4807048490860BC
S11327C04FF48070474908604FF4807046490860B0
S11327D04FF48070454908604FF4807044490860A4
S11327E04FF4807043490860082005E04FF481717C
S11327F0414A42F82010401C1028F7DB3F4800688B
S113280030F040003D4908603D48006830F0040065
S11328103B4908603A48006830F0100038490860C5
S11328203748006830F04000354908603548006892
S113283030F40070334908603348006850F02000D9
S1132840314908602E48006850F080602C490860C7
S11328502B48006850F0080029490860284800689F
S113286050F02000264908602548006850F0807028
S1132870234908602248006850F00070204908602D
S11328802248006850F02000204908602048006871
S113289050F080601E4908601D48006850F0080030
S11328A01B4908601A48006850F020001849086065
S11328B01748006850F08070154908601448006893
S11328C050F0007012490860704700BF18C00440FF
S11328D008D0044010D0044018D0044014B0044080
S11328E068D004400CD0044014D0044060D00440AC
S11328F064D0044024A0044000B00440D4F00F404D
S113290014F10F4054F00F4094F00F4080F00F404A
S113291000F10F4080B500F003F800F047F801BD66
S11329203C48006850F080703A49086004203A49F5
S113293008600020394908600020394908600020F7
S11329403849086000203849086000203749086089
S113295000203749086000203649086000203649C5
S113296008600020354908600020354908600020CF
S1132970344908604FF47A703349086028202F499D
S113298008600020314908604FF4806030490860D5
S11329900A20224908604FF4FA702C4908602D4837
S11329A0006850F400702B49086070472A4800689A
S11329B050F08070284908600420284908600020ED
S11329C0274908600020274908600020264908603C
S11329D000202649086000202549086043F2D400FD
S11329E02449086028202149086000202249086001
S11329F04FF44070214908600D201949086042F2E3
S1132A000E401D4908601E48006850F400701C49BF
S1132A10086070473C8004405480034000800340B9
S1132A204C800340048003400C8003401480034026
S1132A301C800340248003402C80034034800340E6
S1132A403C800340448003400880034038800340B6
S1132A5014C00440988003403080044054800B40EC
S1132A6000800B404C800B4004800B400C800B40DA
S1132A7014800B4008800B4010800B4048A0044099
S1132A8098800B4080B500F055F800F005F800F090
S1132A906DF800F0A3F8FEE780B51C481C49884295
S1132AA00BD0002006E01A4951F82010174A42F8CA
S1132AB02010401CB0F5826FF5DB144800F09EF83E
S1132AC01449154A1548801A03E013780B70521CF8
S1132AD0491C0300581E012BF7DA11491148401A0A
S1132AE002E000220A70491C0200501E012AF8DA92
S1132AF00D490E4A0E48801A03E013780B70521CDD
S1132B00491C0300581E012BF7DA01BD0000FF1F0A
S1132B10000000005C04FF1F402F0000482F00004D
S1132B206404FF1F382FFF1F1004FF1F302E000006
S1132B307C2E000080B500F009F80A4800884FF6A2
S1132B40FE7108400749088001BD000072B64CF2CE
S1132B502050054908804DF628100349088062B6C4
S1132B6070470000002005400E20054080B5154840
S1132B70006850F47850134908600720FFF710FDEF
S1132B8011490860104800684FF47A7148430F49AE
S1132B9008600E4800680E490968C1F30361491CC6
S1132BA0B0FBF1F00B4908600A4800684FF47A71F1
S1132BB090FBF1F008490860FFF7BDFDFFF7C6FD83
S1132BC001BD00BF388004406804FF1F6404FF1F78
S1132BD0448004406C04FF1F7004FF1F80B572B66C
S1132BE000F012F8FDF732FC62B6034800780228C0
S1132BF0FBD1FDF799FCF8E7342FFF1F014908606A
S1132C007047000008ED00E080B5FFF7C1FDFFF755
S1132C1081FE00F02BF8FEF767FB00F06DF8FEF77D
S1132C208FFC00F0A3F800F0D5F800200B490860F1
S1132C3001200A4908605FF0FF3009490968401A19
S1132C4008490968B0FBF1F007498842F3D3FEF75D
S1132C5063FF002800D1FEE701BD00BF38710340C7
S1132C60347103407004FF1F21A107001748006856
S1132C7050F4000015490860002015490860154803
S1132C800068402148431930134908600020134963
S1132C9008607FF01F001249086000201149086095
S1132CA00C4800684FF47A6148430F4908600020DB
S1132CB00E49086003200D4908607FF01F000C498D
S1132CC0086000200B490860704700BF3C80044046
S1132CD0007003407004FF1F00710340087103403B
S1132CE010710340187103402071034028710340A0
S1132CF030710340387103404FF4C06011490860DB
S1132D004FF4C060104908601048006850F000702B
S1132D100E49086005200E49086000200D4908602E
S1132D2000200D4908604FF6FF700C490860192017
S1132D300B490860C1200B490860FF200A4908605C
S1132D40704700BF00A0044004A004403C8004403D
S1132D50549003404C900340049003400890034077
S1132D600090034080900340789003404FF48070BB
S1132D70DFF8501008604FF48070DFF84C100860E2
S1132D80DFF84800006850F00400DFF840100860E5
S1132D90DFF83800006850F00800DFF830100860F1
S1132DA0DFF82C00006850F00800DFF824100860F9
S1132DB0DFF81C00006850F00400DFF8141008600D
S1132DC0704700000CA0044008A0044054F00F40D9
S1132DD040F00F40DFF84400006850F04000DFF896
S1132DE03C1008604FF40070DFF8341008604FF4B2
S1132DF00070DFF830100860DFF82800006850F039
S1132E002000DFF8201008606020DFF81C10087034
S1132E108020DFF8181008707047000034800440E8
S1132E2008A004400CA00440016006400260064073
S1132E3070B4104C24680F4D2D6855F47F050D4E69
S1132E403560090611F0706151EA0070110511F442
S1132E5070010843190411F47021084306490860FD
S1132E60002000E0401CC0B29842FBD3014804603B
S1132E7070BC704700F001404480044010B507491D
S1132E8079441831064C7C44163404E00A68081D61
S1132E90511888470146A142F8D110BD2C0000000A
S1132EA03800000005480068401C044908600448D4
S1132EB00078C0B203490860704700BF2C2FFF1F81
S1132EC004ED00E0282FFF1F7FE8FFFFD42A000055
S1132ED06404FF1F0000000000F00BF8002801D07C
S1132EE0FFF7CCFF0020C046C046FFF777FE00F096
S1132EF002F80120704700F001B800000746384688
S1132F0000F002F8FBE7000080B5C046C046024A64
S1132F1011001820ABBEFBE726000200C046C046E5
S1132F20C046C046FFF7D8FFFE01FE01FE000000C8
S1132F301516171819000000FD02FD02FD0000001F
S10B2F405100000051000000E3
S9032F1DB0
