S00D0000736D6172742E73726563F0
S1130000F8FF002011040000013400000134000056
S11300100134000001340000013400000134000008
S113002001340000013400000134000001340000F8
S113003001340000013400000134000001340000E8
S113004001340000013400000134000001340000D8
S113005001340000013400000134000001340000C8
S113006001340000013400000134000001340000B8
S113007001340000013400000134000001340000A8
S11300800134000001340000013400000134000098
S11300900134000001340000013400000134000088
S11300A00134000001340000013400000134000078
S11300B00134000001340000013400000134000068
S11300C00134000001340000013400000134000058
S11300D00134000001340000013400000134000048
S11300E00134000001340000013400000134000038
S11300F00134000001340000013400000134000028
S11301000134000001340000013400000134000017
S11301100134000001340000013400000134000007
S113012001340000013400000134000001340000F7
S113013001340000013400000134000001340000E7
S113014001340000013400000134000001340000D7
S11301500134000001340000B51400000134000033
S113016001340000013400000134000001340000B7
S113017001340000013400000134000001340000A7
S11301800134000001340000013400000134000097
S11301900134000001340000013400000134000087
S11301A0013400004D0500009505000001340000F5
S11301B00134000001340000013400000134000067
S11301C00134000001340000013400000134000057
S11301D00134000001340000013400000134000047
S11301E00134000001340000013400000134000037
S1130400FFFFFFFFFFFFFFFFFFFFFFFFFEFFFFFFF9
S11304104FF000004FF000014FF000024FF00003D6
S11304204FF000044FF000054FF000064FF00007B6
S11304304FF000084FF000094FF0000A4FF0000B96
S11304404FF0000C62B602F0B1FDFEE780B500F09B
S113045015F801F03DF90020954908600020954900
S113046008600020934908600320924908605A20DC
S113047001F009FA592001F006FA01BD8E488F49AE
S113048008608F488F4908605FF07E508E4908608D
S11304908E48006840060FD58D48006830F008008B
S11304A08B4908608B488C4908608C488C490860EB
S11304B023208C49086044E08B48006840070FD52E
S11304C08348006830F020008149086087488249E9
S11304D0086082488249086023208249086030E02D
S11304E081480068C0060FD57948006830F08070F4
S11304F0774908607E48784908607E4878490860F2
S11305002320784908601CE07748006840060FD52E
S11305106F48006830F000706D49086076486E4995
S1130520086074486E49086023206E49086008E03A
S11305307248694908606F4869490860232069491D
S11305400860704780B500F0F7F801BD80B56C48CD
S1130550006850F080706A490860002054490860BF
S11305605A2001F090F9052066490968654A126825
S113057092FBF0F200FB1210002805D162480068DB
S113058090F02000604908605E480068401C5D49A6
S1130590086001BD80B55D48006850F080705B491B
S11305A0086043480068401C414908605848007886
S11305B000280DD13E480068692874DB01205449A5
S11305C008700020534908600320534908606AE01A
S11305D04F480078012855D14E480068142806DB9E
S11305E04D480068032802D102204B490860304876
S11305F000682F490968484A126891FBF2F1464A9B
S1130600126802FB1100002834D10020434908601D
S11306100120424908605FF0FF3041490968401AEF
S113062040490968B0FBF1F00728F4D33E48394942
S11306300968A22202FB01003C490860002006E090
S1130640491C0329FCDB00BF00BF00BF401CA228DB
S11306500BDA37490968090A364A116035490968CD
S1130660324A126881540021EBE72A480068401C92
S113067028490860274800683C2814DB02202449E4
S1130680087010E02248007802280CD02048007836
S1130690032808D15A2001F06EF9592001F0F3F82B
S11306A000201B490870462001F0EDF801BD000050
S11306B0E404FF1F28710340000016438004FF1F59
S11306C000008C428404FF1F8804FF1FD0F00F40F9
S11306D000F10F400000E040142FFF1F3333333F7D
S11306E0182FFF1F102FFF1F10F10F406666E64002
S11306F0CDCCEC409A99193F3333F3409A99F940A1
S113070018B00440F804FF1F80F00F4000C00440FC
S11307103E2FFF1FE804FF1FF404FF1F387103403E
S1130720347103407004FF1FBC08FF1FF004FF1F57
S113073090F00F40C02EFF1FF8B500210020DFF815
S1130740B02D10600020DFF8AC2D10600020DFF821
S1130750A82D10600120DFF8A42D1070002034E0D3
S1130760DFF83C2DDFF88C3D1B6822F82300DFF80E
S1130770342D32F91120DFF8283DDFF8784D246854
S113078013EB84035A80DFF86C2D1268521CDFF8D7
S1130790643D1A60DFF8682DDFF85C3D1B6822F8C1
S11307A02300DFF8042D32F91110DFF8542DDFF89F
S11307B0483D1B6812EB83025180DFF83C1D096839
S11307C0491CDFF8342D1160401C3C2880F2FA806B
S11307D00021DFF8D82C11800021DFF8D42C1180FF
S11307E0DFF8201DA22202FB001191F8A110AB2911
S11307F007DB0021DFF8AC2CDFF8B03C1B8822F8C3
S11308001310A1241AE0DFF8FC1CA22202FB001141
S1130810611811F8011CAB291ADAD4F1A201DFF82E
S1130820882CDFF8883C1B8822F81310DFF87C1C26
S11308300988491CDFF8742C1180641E012C34DBF8
S1130840DFF8C01CA22202FB0011615CAB29DADADA
S1130850DFF8B01CA22202FB0011615CAB291ADA9A
S1130860DFF8A01CA22202FB0011611811F8011C80
S1130870AB2910DBD4F1A101DFF8282CDFF82C3CE4
S11308801B8822F81310DFF8281C0988491CDFF89C
S1130890202C1180D1E7DFF8141C09880A2904DA16
S11308A0DFF80C1C09880A29C7DBDFF8581CA222D0
S11308B002FB00110978AB2913DBDFF8F01B098870
S11308C00A290EDAA121DFF8E02BDFF8E03B1B88D0
S11308D022F81310DFF8D41B0988491CDFF8CC2B4D
S11308E01180DFF8181C0978002966D00022DFF88F
S11308F0BC1B098800293FF467AFDFF8AC1B0988EB
S1130900DFF8A03B1B88C91A012415E0DFF8983BE7
S113091033F81430DFF88C5B35F814505B1B8B42D2
S113092009DBDFF8841B31F81410DFF8782B32F878
S11309301420891A2200641CDFF8703B1B889C4237
S1130940E4DB3D29FFF640AF0021DFF8B03B19702E
S1130950DFF84C1BDFF89C3B1B6821F82300DFF811
S1130960441B31F91210DFF8383BDFF8884B246858
S113097013EB84035980DFF87C1B0968491CDFF8FA
S1130980743B1960DFF8781BDFF86C3B1B6821F8B7
S11309902300DFF8141B31F91210DFF8642BDFF8A1
S11309A0583B1B6812EB83025180DFF84C1B09682B
S11309B0491CDFF8442B116006E7DFF8F01A0988B8
S11309C000292DD1DFF8300B0068DFF8241B086004
S11309D000210022002500230020DFF8C44ADFF8AC
S11309E0106B366814EB860434F9024CDFF8B06AF5
S11309F0B6F90260A41B002C00F11081DFF8A04AB4
S1130A00DFF8EC6A366814EB860434F9024CDFF83C
S1130A10906AB6F90260A41BDFF8146C34600EE12E
S1130A2000240021DFF80C2C11701FE0DFF8702A7D
S1130A30DFF8C03A1B6812EB830232F9022C891AE0
S1130A40DFF8F42B1160DFF8F01B096800290CD4DF
S1130A50DFF8E81BDFF8DC2B12785454DFF8D41BE2
S1130A600978491CDFF8CC2B1170641CDFF83C1AA0
S1130A7009888C4230DADFF8301A31F81410DFF8C4
S1130A80802ADFF8743A1B6812EB830232F9022CD5
S1130A90914204DADFF8101A31F8141008E0DFF894
S1130AA0601ADFF8542A126811EB820131F9021C32
S1130AB0DFF8F02932F81420DFF8E439DFF8345A8B
S1130AC02D6813EB850333F9023C9A42AEDBDFF861
S1130AD0D42932F81420B2E7DFF8581B0978012929
S1130AE03AD1DFF8BC19DFF80C2A126821F8220089
S1130AF0DFF8B019DFF8442B127831F91210DFF85F
S1130B00A029DFF8F0391B6812EB83025180DFF86B
S1130B10E4190968491CDFF8DC291160DFF8E019E1
S1130B20DFF8D429126821F82200DFF87C19DFF8F5
S1130B300C2B127831F91210DFF8C429DFF8B83918
S1130B401B6812EB83025180DFF8AC190968491C59
S1130B50DFF8A429116037E6DFF8D81A09780029EC
S1130B603FF430AF0021DFF83C29DFF8D03A1B789E
S1130B7032F81320DFF83039DFF8C04A247833F82C
S1130B80143013FA82F2022392FBF3F2DFF81039E5
S1130B90DFF86049246813EB840333F9023CDFF87F
S1130BA06049DFF854592D6814EB850434F9024C7C
S1130BB004FA83F3022493FBF4F39C1A002C01D46B
S1130BC09D1A00E0D51A012402E09D1A2100641C3C
S1130BD0DFF8602A12789442BFF6C2ADDFF8C42869
S1130BE0DFF8586AA65D32F81620DFF8BC68DFF833
S1130BF04C7AE75D36F8176016FA82F2022692FB09
S1130C00F6F2D61A002E01D4D61A00E09E1AAE428D
S1130C10DDDAD11A0029D8D4D51AD7E7DFF880480D
S1130C20B4F90240DFF87868DFF8C4783F6816EB5F
S1130C30870636F9026CA41BDFF8F4693460DFF828
S1130C40C048DFF8AC68366814EB860434F9024C0B
S1130C50DFF8AC68B6F90260A41B002C11D4DFF8ED
S1130C60A048DFF88C68366814EB860434F9024C2B
S1130C70DFF88C68B6F90260A41BDFF8C46934603D
S1130C8010E0DFF87C48B4F90240DFF87468DFF85C
S1130C9060783F6816EB870636F9026CA41BDFF810
S1130CA0A0693460002411E0DFF8F46716EB8406D1
S1130CB0B6F902600B2E08DADFF8446816EB8406F6
S1130CC0B6F90260962E00DB401C641CDFF8206835
S1130CD03668B442E8DB00240CE0DFF8246816EB45
S1130CE08406B6F90260962E03DB491C012900D163
S1130CF02300641CDFF8F8673668B4420CDADFF8C6
S1130D00A06716EB8406B6F902600B2EE5DA521CD6
S1130D10012AEED12500ECE7DFF8D4472468152C2E
S1130D2001DB142402E0DFF8C8472468A24201DB97
S1130D300B290BDBDFF808492468642CC0F290808F
S1130D40DFF8EC482468332C80F28A800023DFF833
S1130D50F44823700023DFF8F0482370042D2BDAC5
S1130D600024DFF88C371B689C4280F27881DFF81E
S1130D70903713EB8403B3F90230DFF8245715EBF3
S1130D808405B5F902505B1B022593FBF5F3DFF8EC
S1130D90705735F82450DFF8B46826F82450DFF88B
S1130DA0605715EB84056D88EB1ADFF8A05815EB36
S1130DB084056B80641CD4E7002423E0DFF840370B
S1130DC013EB8403B3F90230DFF8D46616EB840620
S1130DD0B6F902609B1B022693FBF6F3DFF820674B
S1130DE036F82460DFF8647827F82460DFF8B0660A
S1130DF016EB840676889B19DFF8506816EB840698
S1130E007380641CAC42D9DB2C00DFF8E4361B6829
S1130E109C4280F22481DFF8E83613EB8403B3F9B3
S1130E200230DFF87C5615EB8405B5F902505B1BE4
S1130E30022593FBF5F3DFF8C85635F82450DFF8A4
S1130E400C6826F82450DFF8B85615EB84056D8835
S1130E502D1BDFF8F86716EB84067580641CD4E755
S1130E600B2A0BDADFF888462468152C01DB1424DE
S1130E7002E0DFF87C462468A1420BDADFF8B047D1
S1130E802468642CC0F29080DFF8B4472468332CC3
S1130E9080F28A800024DFF8B8572C700024DFF831
S1130EA0A8572C70042B2BDA0024DFF844361B6877
S1130EB09C4280F2D480DFF8483613EB8403B3F904
S1130EC00230DFF8DC5515EB8405B5F902505B1BE5
S1130ED0022593FBF5F3DFF8285635F82450DFF8A4
S1130EE06C6726F82450DFF8B85515EB84056D8837
S1130EF05B19DFF8585715EB84056B80641CD4E745
S1130F00002423E0DFF8F85515EB8405B5F9025009
S1130F10DFF88C6516EB8406B6F90260AD1B022679
S1130F2095FBF6F5DFF8D86536F82460DFF81C7712
S1130F3027F82460DFF8C86516EB84067688751BED
S1130F40DFF8086716EB84067580641C9C42D9DBC5
S1130F501C00DFF89C351B689C4280F28080DFF81F
S1130F60A03513EB8403B3F90230DFF8345515EBE5
S1130F708405B5F902505B1B022593FBF5F3DFF8FA
S1130F80805535F82450DFF8C46626F82450DFF87D
S1130F90105515EB84056D885B19DFF8B05615EB19
S1130FA084056B80641CD4E70023DFF8A446237017
S1130FB00023DFF890462370002407E0DFF894361E
S1130FC01B68DB1CDFF88C562B60641CDFF878365A
S1130FD01B789C4208DADFF87C361B682D2BEDDB8E
S1130FE02D23DFF870462360DFF868361B682E2B4C
S1130FF003DA2D23DFF85C462360DFF84C361B78D8
S1131000FF2B06D0DFF840361B785B1CDFF8384630
S1131010237000241EE0DFF8E83433F82430DFF8CE
S11310202C5625F82430DFF8D83413EB8403B3F9B5
S11310300230DFF86C5415EB8405B5F9025005FA5B
S113104083F3022593FBF5F3DFF8005615EB8405D3
S11310506B80641CDFF8A0341B689C42DBDB0A282D
S113106029DB152A27DB152925DB00241EE0DFF800
S1131070900430F82400DFF8D41521F82400DFF8B8
S1131080800410EB8400B0F90200DFF8141411EBB3
S11310908401B1F9021001FA80F0022190FBF1F011
S11310A0DFF8A81511EB84014880641CDFF84804BC
S11310B000688442DBDB0020DFF89C150860002018
S11310C0DFF898150860DFF8280400680A2803DAB6
S11310D0DFF81C04006800E00A20DFF81414096833
S11310E01E2903DADFF80814096800E01E21002431
S11310F01CE0DFF8582532F92420032312FB03F205
S1131100DFF858351B68D318DFF850552B60DFF82B
S113111048351B68DFF8345515EB8405B5F90250E2
S113112002FB0532DFF830351A60641CDFF8C02397
S11311301268322A03DADFF8B823126800E0322298
S1131140944221DADFF8042512EB8402B2F902207A
S1131150121EA32AE9D2DFF8F42432F924208242B1
S113116004DADFF8E82432F92420C9E7DFF8DC24C4
S113117032F924209142BCDADFF8D02432F9242059
S1131180052312FB03F2BBE7DFF8D0040068012853
S11311900ADBDFF8C4040068DFF8C014096890FBB8
S11311A0F1F0DFF8BC140860DFF8B404006800282C
S11311B004D50020DFF8A814086008E0DFF8A004D4
S11311C00068A32803DBA220DFF894140860DFF88A
S11311D090040068DFF88C140968401A002807D4CA
S11311E0DFF87C040068DFF87C140968401A06E024
S11311F0DFF870040068DFF868140968401A5B2897
S113120005DBDFF860040068DFF85414086000F0C0
S1131210C4F9DFF854040078002800F02681052181
S1131220DFF8480400F0E6FC42F6D31424B24FF48D
S1131230807194FBF1F000FB1140C0B200F0D3FCCC
S113124024B24FF4807094FBF0F0C0B200F0CBFCF9
S1131250DFF81C04B0F9004024B24FF4807194FB11
S1131260F1F000FB1140C0B200F0BDFC24B24FF419
S1131270807094FBF0F0C0B200F0B5FC3C2424B2C2
S11312804FF4807194FBF1F000FB1140C0B200F008
S1131290AAFC24B24FF4807094FBF0F0C0B200F0CA
S11312A0A2FCA22424B24FF4807194FBF1F000FB61
S11312B01140C0B200F097FC24B24FF4807094FB4C
S11312C0F0F0C0B200F08FFCAA2424B24FF4807175
S11312D094FBF1F000FB1140C0B200F084FC24B296
S11312E04FF4807094FBF0F0C0B200F07CFC50240A
S11312F024B24FF4807194FBF1F000FB1140C0B2B2
S113130000F071FC24B24FF4807094FBF0F0C0B292
S113131000F069FC502424B24FF4807194FBF1F086
S113132000FB1140C0B200F05EFC24B24FF48070A8
S113133094FBF0F0C0B200F056FC42F2F851714850
S113134000F058FCC648046824B24FF4807194FB42
S1131350F1F000FB1140C0B200F045FC24B24FF4A0
S1131360807094FBF0F0C0B200F03DFC614804686A
S113137024B24FF4807194FBF1F000FB1140C0B231
S113138000F031FC24B24FF4807094FBF0F0C0B252
S113139000F029FC00240DE00221414810EB8400F8
S11313A000F028FC02213E4810EB8400801C00F071
S11313B021FC641C502CEFDB4F48046824B24FF42A
S11313C0807194FBF1F000FB1140C0B200F00BFC03
S11313D024B24FF4807094FBF0F0C0B200F003FC30
S11313E000240DE00221464810EB840000F002FCCA
S11313F00221434810EB8400801C00F0FBFB641CBA
S1131400502CEFDB3A48046824B24FF4807194FB0B
S1131410F1F000FB1140C0B200F0E5FB24B24FF440
S1131420807094FBF0F0C0B200F0DDFB00240DE00E
S11314300221864810EB840000F0DCFB0221834883
S113144010EB8400801C00F0D5FB641C502CEFDBF7
S11314500521884800F0CEFB0521874800F0CAFB2F
S113146083480088401C824908800320834908700F
S113147083480068401C8249086005208049096847
S11314807F4A126892FBF0F200FB1210002805D18B
S11314907C48006890F080607A490860F1BD0000E3
S11314A03C06FF1FC42EFF1FD82EFF1F382FFF1F1F
S11314B03A2FFF1F80B5012073490860002073494B
S11314C008600320714908607148006800B27149DE
S11314D0086000206E4908606E4800686E494860E4
S11314E000F012F86D480068401C6C49086001BDAA
S11314F0B42EFF1FB82EFF1FBC2EFF1F3F2FFF1F50
S11315007C07FF1FBC08FF1F80B56448006843F6D2
S11315109921884202DB00204E4908604D4800684A
S113152040425D4908605C4800F032F95C4908605B
S11315305B480068B0F57A7F04DD4FF47A7058494F
S1131540086007E05648006810F57A7F02DA5548CB
S11315505349086052480068022190FBF1F010F5ED
S1131560FA70002807D44E480068022190FBF1F07D
S113157010F5FA7007E04A480068022190FBF1F088
S113158010F5FA70404280B2474908604748006845
S113159050F400704549086001BD10B5304800683A
S11315A0D0F15100424908604148006800F048FB0E
S11315B04049096800F06CFB3F4900F0D5FB04008A
S11315C03B4800683D490968401A00F039FB3C4932
S11315D0096800F05DFB210000F0C6FB00F006FC8A
S11315E03849086032480068344908603548006862
S11315F042F20B31884204DA42F20A30314908607F
S113160009E03048006842F24451884203DB42F268
S113161044502C4908602B48006880B22A4908606D
S11316202A48006850F400702849086010BD000082
S1131630242FFF1F402FFF1FEC2EFF1FF02EFF1F34
S1131640282FFF1F432FFF1F422FFF1FFC04FF1FE4
S1131650442FFF1F102FFF1FFC2EFF1F002FFF1F03
S11316605C04FF1F6004FF1F412FFF1F8434000030
S11316703C2FFF1F8C340000943400003E2FFF1FCA
S1131680EC04FF1F00F10F402C710340287103404C
S1131690049003401C2FFF1F8C04FF1F2C2FFF1FDF
S11316A0202FFF1F18FCFFFF388003409880034061
S11316B0042FFF1F142FFF1F00101046082FFF1FB9
S11316C0182FFF1F0C2FFF1F10800B4098800B401A
S11316D080B500F003F800F024F801BD0020224991
S11316E0086000202049486000201F4988600020CD
S11316F01D49C8601D4800681B4908611C480068F2
S1131700194948611B480068174988614FF47A7089
S11317101549C861184814490862002012498862B2
S113172070470020154908600020144948600020D3
S11317301249886000201149C860114800680F49A7
S11317400861104800680D4948610F4800680B495A
S113175088614FF4A0700949C8610C4807490862C0
S113176000200649486270478C04FF1F8004FF1F55
S11317708404FF1F8804FF1F18FCFFFFB804FF1F29
S11317807404FF1F7C04FF1F7804FF1FC0FEFFFFCB
S11317902DE9F041040020686168451AA068281A00
S11317A0E168461AA560E060291E012920D3A76AD2
S11317B000F046FA216900F06BFA8046280000F038
S11317C03FFA616900F064FA414600F0CDFA050081
S11317D0300000F035FAA16900F05AFA290000F04F
S11317E0C3FA00F003FB0A2190FBF1F0C019A062D8
S11317F0A06AE169884202DBE069A06205E0206A30
S1131800A16A884201DB206AA062A06ABDE8F08177
S113181080B57D487D4908607B487D4908607D48E6
S11318200068400840007B4908607B48006830F04D
S11318304000794908607548006850F08070734929
S113184008607348006850F0807071490860F020A7
S113185080F31188592000F016F85A2000F013F88C
S1131860462000F010F80321592000F0EFF804217D
S11318705A2000F0EBF80521462000F0E7F860203C
S113188080F3118801BD10B4011E5C2971D220219E
S113189090FBF1F1002905D0022937D01CD303298C
S11318A04ED066E05D4909680122202390FBF3F4E1
S11318B004FB1304A2401143584A116058490968B3
S11318C00122202390FBF3F404FB130412FA04F026
S11318D00843534908604CE0524909680122202317
S11318E090FBF3F404FB1304A24011434D4A11602E
S11318F04D4909680122202390FBF3F404FB1304EF
S113190012FA04F008434849086032E0474909687C
S11319100122202390FBF3F404FB1304A24011439F
S1131920424A1160424909680122202390FBF3F4E2
S113193004FB130412FA04F008433D49086018E05C
S11319403C4909680122202390FBF3F404FB1304AF
S1131950A2401143374A1160374909680122202304
S113196090FBF3F404FB130412FA04F00843324925
S1131970086010BC704710B4011E5C2941D22021BC
S113198090FBF1F1002905D002291FD010D30329BF
S11319902AD036E0294909680122202390FBF3F478
S11319A004FB130412FA04F008432449086028E0F5
S11319B0234909680122202390FBF3F404FB130458
S11319C012FA04F008431E4908601AE01D49096828
S11319D00122202390FBF3F404FB130412FA04F015
S11319E00843184908600CE01749096801222023BC
S11319F090FBF3F404FB130412FA04F008431249B5
S1131A00086010BC7047000000010A0018B00440D0
S1131A1000C0044094F00F40D4F00F4080E200E096
S1131A2000E100E084E200E004E100E088E200E09C
S1131A3008E100E08CE200E00CE100E080E100E07D
S1131A4084E100E088E100E08CE100E0021E5C2A11
S1131A5002D20A1E102A00D305E000F1604010F5FE
S1131A606440090101707047F0B56948006850F49A
S1131A700050674908606748007810F0F300654932
S1131A800870002064490870644800684FF47A7153
S1131A9081FB00015FF4E112002300F0C9F90400A6
S1131AA05E4800684FF4FA4181FB00015FF4E112E3
S1131AB0002300F0BDF9B0EB44155848006842F229
S1131AC0107181FB000115EB4412521CD31700F076
S1131AD0AFF9534A5FF0FF3380185941002915DBF1
S1131AE001DC002812D34D48006842F2107181FBDA
S1131AF0000115EB4412521CD31700F099F9484A1F
S1131B005FF0FF33861851EB030713E04348006886
S1131B1042F2107181FB000115EB4412521CD317E1
S1131B2000F086F93E4A5FF0FF338018594146427F
S1131B3071EB41073948006842F2107181FB0001E2
S1131B4015EB4412D31700F073F9354A5FF0FF33F5
S1131B5080185941002913DB01DC002810D32F48D9
S1131B60006842F2107181FB000115EB4412D31797
S1131B7000F05EF92A4A5FF0FF338018594112E001
S1131B802648006842F2107181FB000115EB4412F3
S1131B90D31700F04DF9224A5FF0FF338018594102
S1131BA0404271EB41018F4203DC01DB864200D2EB
S1131BB06D1C201210F01F001A4908701A48047096
S1131BC015F01F00194908704FF440701849086057
S1131BD04FF44070174908600E48007850F02C000C
S1131BE00C490870F0BD144909780906FBD513495E
S1131BF00870704707E0104A12781206FBD5027885
S1131C000E4B1A70401C0A00511E002AF3D1704773
S1131C103480044003D0064002D006406C04FF1F09
S1131C200036F7FF00D0064001D006400AD0064037
S1131C3044B0044040B0044004D0064007D00640FD
S1131C40002840F10780F446404200F003F850F0C9
S1131C50004060470AD0B0FA80F18840D1F19D017C
S1131C60C905020672F1004241EB1020704750F89A
S1131C70041B61B150F8042BD30744BFA9F101033D
S1131C809A18002342F8043B091FFAD1EFE7704782
S1131C90FF2212EAD05C1DBF12EAD153944593424D
S1131CA02BE09C44D30780EA01021A4043EA002057
S1131CB043EA0121A1FB0030410038BF40007CF120
S1131CC07F010BDBFE294ADA5B0842EAC15153EA81
S1131CD0006373F1004C51EB10207047D1F1080CF4
S1131CE0DCF120012FDB5B0810FA01F10B4373F1E7
S1131CF0004120FA0CF05041704794451CBF02EAA1
S1131D00D153934280EA010202F000421DD0400008
S1131D1019D0490017D05BB9634514D00902B1FA50
S1131D2081F39940BCEB030CC00140F00040C1E7D3
S1131D300002B0FA80FC10FA0CF0B3EB0C0CC901F1
S1131D4041F00041B6E71000704740000AD0490056
S1131D5008D010F1807F94BF11F1807F02E042F03F
S1131D60FF407047D043704790EA010F44BF81F0B1
S1131D70004100F0F7B800BF421A3CBF801A89182E
S1131D804FF0004CC0F3C752FF2A24D0C1F3C7530D
S1131D9013B3D21AD2F1190327DD4CEA01214CFA0C
S1131DA003F321EA0303D140C20D4CEA002040189A
S1131DB034BF20EA0C004CEA5000D20553EA006319
S1131DC073EB0C0C52EB1020420012F1807F38BFF1
S1131DD07047C00DC0057047490212BF9A4200EB1C
S1131DE05120F8E7D2F11703D9D570474100090E05
S1131DF07F3915D4D1F11F0114D4400007D2C0019A
S1131E0040F00040C84048BF6FF000407047C00138
S1131E1040F00040C8404CBF4FF000404042704783
S1131E200020704700424FF0004058BFC043704745
S1131E3013F0004C03D55B42524263F100039CEA69
S1131E40210C00F0178010B5644603D34942404288
S1131E5061F1000100F00EF8640004D349424042ED
S1131E6061F10001244203D55B42524263F1000355
S1131E7010BD00001B4213D1094236D12AB1844659
S1131E80B0FBF2F002FB10C2704700F0D7B8FCD3ED
S1131E900022002370470B0002000021002070473D
S1131EA0904271EB030CF6D370B5B1FA81F4B3FA36
S1131EB083F52C1BA340C4F1200532FA05F6334305
S1131EC0A2405FF00046E64002E05B085FEA3202AF
S1131ED0841A71EB030524BF204629467641F4D3C6
S1131EE002000B003000002170BD012ACFD970B56B
S1131EF0140C20D0B1FA81F4B2FA82F5C4F12004B2
S1131F006419B4F12006D6D3B2405FF00044F44023
S1131F10002502E052085FEA3303C61A71EB020E91
S1131F2024BF3046714664416D41F3D302000B0077
S1131F302000290070BD0C46B1FBF2F102FB1145F3
S1131F402D0445EA1045B5FBF2F402FB145580B2AA
S1131F5040EA0545B5FBF2F002FB105240EA0440AA
S1131F6070BD0000431A4FF000423EBF5340C01AF8
S1131F70C91800BFD3095FEAD05C13EB400F34BF2C
S1131F80B3EB410F40E07CEBD1530CD342EA012187
S1131F9022D8D1EB402009D3400A28BF5FEA500180
S1131FA040EBCC507047401A15D04002B0FA80F292
S1131FB0521C9040400A4FEA3C23B3EB026384BFB7
S1131FC000EB730007E040F400001A16DB07C2F1CF
S1131FD00102D04018437047182BFCDC31FA03F29D
S1131FE002FA03F3591A38BF42F00102D2EB40203F
S1131FF03CBF4000ACF1010C5FEACC5CC20572F15D
S113200000414CEB5020704713EB400F0FD24B00B4
S113201009D0ACEBD153022B03DB4902172BDDDDD6
S113202070479143401A4300D5D10020704713EB09
S1132030410FD0D36FF000007047000070470000DC
S113204010B500244FF48070DFF8481508604FF491
S11320508070DFF844150860DFF84005006850F030
S11320600200DFF838150860DFF83005006850F02A
S11320700100DFF828150860DFF82405006830F057
S11320800200DFF81C150860DFF81405006840083A
S11320904000DFF80C150860E4B2322C06DA641C48
S11320A000F006F80128F7D1012000E0002010BD5F
S11320B010B5002401210C2000F008FA002801D1F9
S11320C0002060E00020DFF8DC1408600120DFF865
S11320D0D41408605FF0FF30DFF8CC140968401AAC
S11320E0DFF8C8140968B0FBF1F042F211718842BC
S11320F0F0D300210C2000F0E9F9002801D10020E0
S113210041E00020DFF89C1408600120DFF89414FB
S113211008605FF0FF30DFF890140968401ADFF8B8
S11321208C140968B0FBF1F043F699218842F0D38E
S1132130002400E0641CA12C24D20020DFF86414E5
S113214008600120DFF85C1408605FF0FF30DFF8FE
S113215058140968401ADFF854140968B0FBF1F008
S1132160B0F5FA6FF1D9DFF8480410EBC400416808
S1132170DFF83C0450F8340000F0A8F90028D9D165
S1132180002000E0012010BDDFF81404006850F0C6
S11321900100DFF80C1408600020DFF80814086060
S11321A00120DFF8001408605FF0FF30DFF8F81357
S11321B00968401ADFF8F4130968B0FBF1F010283D
S11321C0F2D3DFF8DC03006850F00200DFF8D0132C
S11321D008600020DFF8CC1308600120DFF8C41386
S11321E008605FF0FF30DFF8C0130968401ADFF8B9
S11321F0BC130968B0FBF1F01028F2D3DFF8A00398
S1132200006840084000DFF8981308600020DFF8F9
S1132210941308600120DFF88C1308605FF0FF302E
S1132220DFF884130968401ADFF880130968B0FBEB
S1132230F1F01028F2D3DFF86803006830F00200F0
S1132240DFF85C1308600020DFF8581308600120F1
S1132250DFF8501308605FF0FF30DFF84C130968B3
S1132260401ADFF848130968B0FBF1F01028F2D3E4
S11322707047DFF82C03006840084000DFF82013A3
S113228008600020DFF81C1308600120DFF8141335
S113229008605FF0FF30DFF810130968401ADFF8B8
S11322A00C130968B0FBF1F01028F2D3DFF8F00248
S11322B0006850F00200DFF8E81208600020DFF840
S11322C0E41208600120DFF8DC1208605FF0FF30E0
S11322D0DFF8D4120968401ADFF8D0120968B0FB9D
S11322E0F1F01028F2D3DFF8B802006850F00100D2
S11322F0DFF8AC1208600020DFF8A81208600120A3
S1132300DFF8A01208605FF0FF30DFF89C12096864
S1132310401ADFF898120968B0FBF1F01028F2D3E4
S11323207047002157E0DFF8782212685208520003
S1132330DFF86C321A600022DFF868321A6001227A
S1132340DFF860321A605FF0FF32DFF85C321B683E
S1132350D21ADFF858321B68B2FBF3F20F2AF2D319
S1132360DFF83C22126852F00202DFF834321A60BD
S11323700022DFF830321A600122DFF828321A60B6
S11323805FF0FF32DFF820321B68D21ADFF81C320C
S11323901B68B2FBF3F2102AF2D3DFF804221268AE
S11323A032F00202DFF8F8311A600022DFF8F4316B
S11323B01A600122DFF8EC311A605FF0FF32DFF8B7
S11323C0E8311B68D21ADFF8E4311B68B2FBF3F280
S11323D0022AF2D3491CC9B208290DDAC0B210FA94
S11323E001F212069FD5DFF8B821126852F00102FB
S11323F0DFF8AC311A609EE70020DFF8A81108600E
S11324000120DFF8A01108605FF0FF30DFF89811B9
S11324100968401ADFF894110968B0FBF1F0062846
S1132420F2D3DFF878010068400840005B49086097
S113243000205C49086001205A4908605FF0FF30C1
S113244059490968401A59490968B0FBF1F00B2849
S1132450F4D35348006850F002005149086000204A
S11324605049086001204F4908605FF0FF304E4931
S11324700968401A4D490968B0FBF1F01A28F4D3F1
S11324804C480068C00701D5002000E00120444901
S1132490096831F00201424A11600021414A116089
S11324A00121404A11605FF0FF313F4A1268891AE6
S11324B03E4A1268B1FBF2F10B29F4D3374909689B
S11324C051F00101354A1160C0B2704738B50400BB
S11324D00D00FFF759FE9020FFF723FF002803D1DA
S11324E0FFF7C7FE002053E000202E4908600120BA
S11324F02C4908605FF0FF302B490968401A2B49CA
S11325000968B0FBF1F01528F4D32000C0B2FFF73E
S113251008FF002803D1FFF7ACFE002038E00020BC
S11325202049086001201F4908605FF0FF301E4900
S11325300968401A1D490968B0FBF1F01528F4D365
S1132540280AC0B2FFF7EDFE002803D1FFF791FE81
S113255000201DE000201349086001201149086093
S11325605FF0FF3010490968401A10490968B0FB50
S1132570F1F01528F4D32800C0B2FFF7D2FE0028EA
S113258003D1FFF776FE002002E0FFF772FE012080
S113259032BD000004D0044000D0044014F10F40C8
S11325A000F10F4038710340347103407004FF1F81
S11325B0B825000010F10F4015000000327F000024
S11325C020000000D10100007000000004000000A1
S11325D073000000F7020000C20000004000000089
S11325E01C00000003000000310000001F00000078
S11325F0320000001A000000330000001200000046
S1132600AF000000000000002B00000003000000E9
S113261010000000400000000F0000001100000046
S113262015000000327F00001C00000002000000C2
S11326300100000019000000020000000400000076
S113264003000000E001000004000000F0020000AC
S11326500500000064000000060000001F000000E8
S1132660070000008803000008000000C800000004
S113267009000000960000000A0000006401000048
S11326800B000000FA0000000C0000000000000035
S11326900D000000050300000E0000000000000013
S11326A00F00000011000000100000002D000000C9
S11326B0110000004280000012000000220000000F
S11326C013000000320E000014000000020E00008F
S11326D015000000320E0000160000000228000061
S11326E017000000383E000018000000383E0000CB
S11326F019000000022800001A000000280400004D
S11327001B000000000000001C000000020000008C
S11327101D000000000000001E000000000000007A
S11327201F00000000000000200000001100000055
S11327302100000020000000220000002000000012
S1132740230000001000000024000000100000001E
S113275025000000200000002600000010000000FA
S113276027000000100000002800000010000000F6
S113277029000000100000002A00000020000000D2
S11327802B000000040000002C00000004000000E6
S11327902D000000040000002E00000007000000CF
S11327A02F000000040000003000000003000000BF
S11327B0310000001D00000032000000180000007D
S11327C03300000015000000340000000400000085
S11327D0350000004000000036000000400000000A
S11327E03700000000000000380000000000000076
S11327F0460000001D230000470000008080000008
S11328004C00000002000000600000000000000016
S113281061000000000000006200000000000000F1
S113282063000000000000006400000000000000DD
S113283065000000000000006600000000000000C9
S113284067000000000000006C00000000000000B1
S1132850700000003400000071000000000000005F
S113286072000000DE00000073000000F7020000A8
S113287074000000000000007F0000000000000061
S113288080000000F400000081000000F40000005B
S113289082000000F400000083000000F400000047
S11328A084000000F400000085000000F400000033
S11328B086000000F400000087000000F40000001F
S11328C088000000F400000089000000F40000000B
S11328D08A000000F40000008B000000F4000000F7
S11328E08C000000F40000008D000000F4000000E3
S11328F08E000000F40000008F000000F4000000CF
S113290090000000F400000091000000F4000000BA
S113291092000000F400000093000000F4000000A6
S113292094000000F400000095000000F400000092
S113293096000000F400000097000000F40000007E
S113294098000000F400000099000000000000005E
S11329509A000000960000009B0000002C0100007B
S11329609C000000C20100009D000000580200000D
S11329709E000000F00200009F0000000000000024
S1132980A000000060000000A1000000C0000000E2
S1132990A200000020010000A3000000800100004C
S11329A0A4000000E0010000A50000003A000000BF
S11329B0A600000002000000A700000000000000C4
S11329C0A800000000000000A900000002000000B0
S11329D0AA00000000000000AB000000020000009C
S11329E0AF00000003000000B0000000E0AB0000F6
S11329F0B100000002000000B2000000100000005E
S1132A00B300000010000000B4000000000000004B
S1132A10B500000000000000B60000000000000047
S1132A20B700000000000000BD0000000401000029
S1132A30BE00000014000000BF00000016000000EB
S1132A40C00000000A000000C2000000401800009E
S1132A50C300000000000000C40000001644000091
S1132A60C500000021440000F10000000000000047
S1132A70FE000000EFBE000074000000080000002B
S1132A800000000000000000000000000000000042
S1132A900000000000000000000000000000000032
S1132AA00000000000000000000000000000000022
S1132AB00000000000000000000000000000000012
S1132AC0DFF800F01104FF1F80B5C0B2002816D053
S1132AD0C0B2012813D0C0B2022810D0C0B203285B
S1132AE00DD0C0B204280AD0C0B2052807D0C0B2A5
S1132AF0062804D0C0B2072801D00020AEE000228E
S1132B00624B1A70624A126852F08052604B1A602B
S1132B10604A127852F080025E4B1A7098225E4B23
S1132B201A705E4A1278D206FBD45C4A1278C2F359
S1132B308102D2B2022AF8D1C0B2072808D0C0B2AA
S1132B40022805D0C0B2032802D0C0B2042803D1A1
S1132B500122534B1A7002E00322514B1A700022D7
S1132B60504B1A70C0B200280BD002281FD013D3C8
S1132B70042832D026D3062845D039D307284DD08F
S1132B8056E00123002200210020FFF799FF412095
S1132B904449087032214BE0032301220121002023
S1132BA0FFF78EFF5A203F490870642140E0042358
S1132BB0012201210020FFF783FF502039490870CA
S1132BC0A02135E00523012201210020FFF778FF31
S1132BD0552034490870B4212AE00523012201213B
S1132BE00020FFF76DFF5A202E490870C8211FE00E
S1132BF00123002200210020FFF762FF4020294921
S1132C000870302114E00323012201210020FFF782
S1132C1057FF582023490870602109E0042301224A
S1132C2001210020FFF74CFF48201E490870802135
S1132C301A4800788006FBD5184800784006FBD572
S1132C401548007810F03F00134A107013480078BC
S1132C50C0F38100C0B20328F8D1080002BD1248B5
S1132C60006850F48050104908604FF4E0600F4948
S1132C70086070470E48006850F001000C49086075
S1132C804FF4A0600B490860704700000140064003
S1132C903480044008C00740004006400640064017
S1132CA00440064005400640048004401890044057
S1132CB0408004400CB004404FF480704D490860DB
S1132CC04FF480704C4908604FF480704B490860A1
S1132CD04FF480704A4908604FF480704949086095
S1132CE04FF48070484908604FF480704749086089
S1132CF04FF48070464908604FF48070454908607D
S1132D004FF48070444908604FF480704349086070
S1132D10082005E04FF48171414A42F82010401C1C
S1132D201028F7DB3F48006830F040003D49086058
S1132D303D48006830F004003B4908603A480068A8
S1132D4030F01000384908603748006830F040001F
S1132D50354908603548006830F40070334908602C
S1132D603348006850F02000314908602E4800685C
S1132D7050F080602C4908602B48006850F008002F
S1132D80294908602848006850F020002649086056
S1132D902548006850F08070234908602248006884
S1132DA050F00070204908602248006850F020006C
S1132DB0204908602048006850F080601E4908607F
S1132DC01D48006850F008001B4908601A48006854
S1132DD050F02000184908601748006850F08070CF
S1132DE0154908601448006850F0007012490860E2
S1132DF0704700BF18C0044008D0044010D00440FD
S1132E0018D0044014B0044068D004400CD00440EE
S1132E1014D0044060D0044064D0044024A0044092
S1132E2000B00440D4F00F4014F10F4054F00F40B0
S1132E3094F00F4080F00F4000F10F4080B500F097
S1132E4003F800F047F801BD3C48006850F080707A
S1132E503A49086004203A4908600020394908606A
S1132E6000203949086000203849086000203849AA
S1132E7008600020374908600020374908600020B6
S1132E80364908600020364908600020354908604A
S1132E900020354908600020344908604FF47A70F6
S1132EA03349086028202F49086000203149086010
S1132EB04FF48060304908600A20224908604FF4CA
S1132EC0FA702C4908602D48006850F400702B49B2
S1132ED0086070472A48006850F0807028490860EC
S1132EE00420284908600020274908600020274959
S1132EF00860002026490860002026490860002058
S1132F002549086043F2D400244908602820214957
S1132F1008600020224908604FF44070214908608D
S1132F200D201949086042F204401D4908601E48FA
S1132F30006850F400701C49086070473C800440ED
S1132F4054800340008003404C80034004800340CD
S1132F500C800340148003401C8003402480034001
S1132F602C800340348003403C8003404480034071
S1132F70088003403880034014C004409880034014
S1132F803080044054800B4000800B404C800B4048
S1132F9004800B400C800B4014800B4008800B40D5
S1132FA010800B4048A0044098800B4080B500F08E
S1132FB055F800F005F800F06DF800F0A3F8FEE70E
S1132FC080B51C481C4988420BD0002006E01A49F1
S1132FD051F82010174A42F82010401CB0F5826FB7
S1132FE0F5DB144800F0B8F81449154A1548801A5E
S1132FF003E013780B70521C491C0300581E012B6C
S1133000F7DA11491148401A02E000220A70491CFB
S11330100200501E012AF8DA0D490E4A0E48801AA1
S113302003E013780B70521C491C0300581E012B3B
S1133030F7DA01BD0000FF1F000000005C04FF1F61
S11330409C340000A43400006404FF1F452FFF1FBC
S11330501004FF1F8C330000D833000080B500F04B
S113306009F80A4800884FF6FE71084007490880AD
S113307001BD000072B64CF22050054908804DF69F
S113308028100349088062B67047000000200540FC
S11330900E20054080B51548006850F47850134957
S11330A008600720FFF710FD114908601048006808
S11330B04FF47A7148430F4908600E4800680E497E
S11330C00968C1F30361491CB0FBF1F00B490860C6
S11330D00A4800684FF47A7190FBF1F008490860DF
S11330E0FFF7BDFDFFF7C6FD01BD00BF38800440FA
S11330F06804FF1F6404FF1F448004406C04FF1F26
S11331007004FF1F80B572B600F02CF800200D4942
S1133110086001200B4908605FF0FF300A49096824
S1133120401A0A490968B0FBF1F009498842F3D30F
S1133130FDF78CF962B6074800780228FBD1FDF749
S113314001FAF8E738710340347103407004FF1F3B
S113315041420F003E2FFF1F0149086070470000E5
S113316008ED00E080B5FFF7A7FDFFF767FE00F06C
S11331702BF8FEF74DFB00F06DF8FEF775FC00F040
S1133180A3F800F0D5F800200B49086001200A4993
S113319008605FF0FF3009490968401A0849096866
S11331A0B0FBF1F007498842F3D3FEF749FF00284A
S11331B000D1FEE701BD00BF387103403471034004
S11331C07004FF1F81841E001748006850F400003B
S11331D01549086000201549086015480068402119
S11331E048431930134908600020134908607FF0F0
S11331F01F00124908600020114908600C4800684B
S11332004FF47A6148430F49086000200E49086072
S113321003200D4908607FF01F000C49086000205E
S11332200B490860704700BF3C80044000700340B5
S11332307004FF1F007103400871034010710340C4
S1133240187103402071034028710340307103401A
S1133250387103404FF4C060114908604FF4C060F6
S1133260104908601048006850F000700E4908606A
S113327005200E49086000200D49086000200D4912
S113328008604FF6FF700C49086019200B4908606C
S1133290C1200B490860FF200A490860704700BF3D
S11332A000A0044004A004403C8004405490034027
S11332B04C90034004900340089003400090034066
S11332C080900340789003404FF48070DFF85010F2
S11332D008604FF48070DFF84C100860DFF8480095
S11332E0006850F00400DFF840100860DFF8380090
S11332F0006850F00800DFF830100860DFF82C0098
S1133300006850F00800DFF824100860DFF81C00A3
S1133310006850F00400DFF81410086070470000E3
S11333200CA0044008A0044054F00F4040F00F40AB
S1133330DFF84400006850F04000DFF83C100860FB
S11333404FF40070DFF8341008604FF40070DFF8B9
S113335030100860DFF82800006850F02000DFF823
S1133360201008606020DFF81C1008708020DFF84F
S113337018100870704700003480044008A004400E
S11333800CA00440016006400260064070B4104C7A
S113339024680F4D2D6855F47F050D4E35600906E0
S11333A011F0706151EA0070110511F470010843C5
S11333B0190411F47021084306490860002000E054
S11333C0401CC0B29842FBD30148046070BC7047F3
S11333D000F001404480044010B507497944183195
S11333E0064C7C44163404E00A68081D51188847CA
S11333F00146A142F8D110BD2C00000038000000A5
S113340005480068401C0449086004480078C0B2BC
S113341003490860704700BF342FFF1F04ED00E02C
S1133420302FFF1F4BE8FFFFE42A00006404FF1F56
S11334300000000000F00BF8002801D0FFF7CCFFDB
S11334400020C046C046FFF75DFE00F002F80120F0
S1133450704700F001B800000746384600F002F853
S1133460FBE7000080B5C046C046024A11001820A0
S1133470ABBEFBE726000200C046C046C046C046BD
S1133480FFF7D8FFFE01FE01FE0000001516171815
S113349019000000FD02FD02FD00000051000000C3
S10734A051000000D3
S90334794F
