S00D0000736D6172742E73726563F0
S1130000F8FF002011040000FD230000FD23000080
S1130010FD230000FD230000FD230000FD2300005C
S1130020FD230000FD230000FD230000FD2300004C
S1130030FD230000FD230000FD230000FD2300003C
S1130040FD230000FD230000FD230000FD2300002C
S1130050FD230000FD230000FD230000FD2300001C
S1130060FD230000FD230000FD230000FD2300000C
S1130070FD230000FD230000FD230000FD230000FC
S1130080FD230000FD230000FD230000FD230000EC
S1130090FD230000FD230000FD230000FD230000DC
S11300A0FD230000FD230000FD230000FD230000CC
S11300B0FD230000FD230000FD230000FD230000BC
S11300C0FD230000FD230000FD230000FD230000AC
S11300D0FD230000FD230000FD230000FD2300009C
S11300E0FD230000FD230000FD230000FD2300008C
S11300F0FD230000FD230000FD230000FD2300007C
S1130100FD230000FD230000FD230000FD2300006B
S1130110FD230000FD230000FD230000FD2300005B
S1130120FD230000FD230000FD230000FD2300004B
S1130130FD230000FD230000FD230000FD2300003B
S1130140FD230000FD230000FD230000FD2300002B
S1130150FD230000FD2300004F0F0000FD230000DD
S1130160FD230000FD230000FD230000FD2300000B
S1130170FD230000FD230000FD230000FD230000FB
S1130180FD230000FD230000FD230000FD230000EB
S1130190FD230000FD230000FD230000FD230000DB
S11301A0FD2300002B05000085050000FD23000051
S11301B0FD230000FD230000FD230000FD230000BB
S11301C0FD230000FD230000FD230000FD230000AB
S11301D0FD230000FD230000FD230000FD2300009B
S11301E0FD230000FD230000FD230000FD2300008B
S1130400FFFFFFFFFFFFFFFFFFFFFFFFFEFFFFFFF9
S11304104FF000004FF000014FF000024FF00003D6
S11304204FF000044FF000054FF000064FF00007B6
S11304304FF000084FF000094FF0000A4FF0000B96
S11304404FF0000C62B601F0CFFDFEE780B500F07E
S113045019F800F09BFE0020DFF8B41B08600020B0
S1130460DFF8381C08600020DFF8301C0860032027
S1130470DFF8281C08605A2000F063FF592000F0C0
S113048060FF01BDDFF88C0B0068400607D5DFF87C
S1130490880B006830F00800DFF87C1B0860DFF888
S11304A07C0B0068400707D5DFF86C0B006830F060
S11304B02000DFF8641B0860DFF8600B0068C006EA
S11304C007D5DFF8540B006830F08070DFF8481B64
S11304D00860DFF8480B0068400607D5DFF8380BE2
S11304E0006830F00070DFF8301B0860DFF8B00BF4
S11304F0DFF8B01B0860DFF8B00BDFF8B01B086052
S11305000020DFF8AC1B08600A20DFF8A81B086095
S11305100220DFF8A41B08601E20DFF8A01B08607F
S1130520704780B500F0EBF801BD80B5DFF8900BA3
S1130530006850F08070DFF8881B08600020DFF846
S1130540D01A08605A2000F0FCFE0520DFF8741B66
S11305500968DFF8702B126892FBF0F200FB1210AE
S1130560002807D1DFF8600B006890F02000DFF866
S1130570581B0860DFF84C0B0068401CDFF8441B74
S1130580086001BD80B5DFF8440B006850F080704E
S1130590DFF8381B0860DFF8780A0068401CDFF8D1
S11305A0701A0860DFF8280B0078002812D1DFF8F1
S11305B0600A00686928C0F29E800120DFF8101BE1
S11305C008700020DFF80C1B08600320DFF8081B0C
S11305D0086090E0DFF8F80A0078012877D1DFF8A6
S11305E0F40A0068142808DBDFF8EC0A0068032822
S11305F003D10220DFF8E01A0860DFF8140A00686B
S1130600DFF80C1A0968DFF8D02A126891FBF2F1BE
S1130610DFF8C42A126802FB110000284DD1002023
S1130620DFF8B81A08600120DFF8B01A08605FF03C
S1130630FF30DFF8AC1A0968401ADFF8A81A096815
S1130640B0FBF1F00A28F2D3DFF89C0ADFF8841A31
S11306500968A22202FB0100DFF8901A086000205A
S113066012E0491C0329FCDB00BF00BF00BF00BF30
S113067000BF00BF00BF00BF00BF00BF00BF00BF7E
S113068000BF00BF00BF401CA2280FDADFF8601AC9
S11306900968090ADFF85C2A1160DFF8581A09684A
S11306A0DFF8482A126881540021DBE7DFF8240AC6
S11306B00068401CDFF81C1A0860DFF8180A00689C
S11306C03C2818DB0220DFF8081A087013E0DFF872
S11306D0000A007802280ED0DFF8F4090078032815
S11306E009D15A2000F0A5FE592000F02AFE00206E
S11306F0DFF8DC190870462000F023FE01BDF8B5D0
S113070000210020DFF8F02910600020DFF8EC2938
S113071010600020DFF8E82910600120DFF8E429E8
S1130720107000203AE0DFF8E029DFF8D0391B68C8
S113073022F82300DFF8D429DFF8D439CB5C32F96E
S11307401320DFF8C439DFF8B449246813EB8403B9
S11307505A80DFF8A8291268521CDFF8A0391A6001
S1130760DFF8B029DFF898391B6822F82300DFF896
S1130770A829DFF89C39C95C32F91110DFF89429F3
S1130780DFF87C391B6812EB83025180DFF87019A3
S11307900968491CDFF868291160401C3C2880F274
S11307A0EB800021DFF874291180DFF83C19A222C4
S11307B002FB001191F8A110BA2907DB0021DFF830
S11307C04C29DFF858391B8822F81310A1241BE0A8
S11307D0DFF81419A22202FB0011615CBA2912DAB3
S11307E0DFF80419A22202FB0011611811F8011CA0
S11307F0BA2908DBD4F1A101DFF81029DFF81C398C
S11308001B8822F81310641E012C04DBDFF80C197A
S113081009880A2928DBDFF8D018A22202FB00117C
S11308200978BA2913DBDFF8F41809880A290EDAE3
S1130830A121DFF8E428DFF8E4381B8822F813103C
S1130840DFF8D8180988491CDFF8D0281180DFF8B0
S1130850B4180978002900F08A800022DFF8BC1857
S11308600988002923D198E7DFF87C18A22202FB2B
S11308700011615CBA29ABDBDFF86C18A22202FB21
S11308800011611811F8011CBA29A1DAD4F1A201EE
S1130890DFF88428DFF884381B8822F81310DFF887
S11308A07C180988491CDFF874281180ABE7DFF84D
S11308B068180988DFF854381B88C91A012415E020
S11308C0DFF8543833F81430DFF8405835F8145052
S11308D05B1B8B4209DBDFF8401831F81410DFF89A
S11308E02C2832F81420891A2200641CDFF82C38D2
S11308F01B889C42E4DB3D29FFF64FAF0021DFF863
S113090004381970DFF80018DFF8F0371B6821F895
S11309102300DFF8F81731F91210DFF8EC37DFF8AD
S1130920DC47246813EB84035980DFF8D017096887
S1130930491CDFF8C8371960DFF8D817DFF8C0376B
S11309401B6821F82300DFF8D01731F91210DFF803
S1130950C427DFF8AC371B6812EB83025180DFF841
S1130960A0170968491CDFF89827116015E7DFF81C
S1130970AC170988002907D1DFF884070068DFF87D
S11309807817086000241CE100240021DFF8902778
S113099011701FE0DFF87027DFF860371B6812EB77
S11309A0830232F9022C891ADFF878271160DFF804
S11309B07417096800290CD4DFF85417DFF860278E
S11309C012785454DFF858170978491CDFF8502777
S11309D01170641CDFF8441709888C4230DADFF8A0
S11309E0381731F81410DFF82C27DFF814371B6898
S11309F012EB830232F9022C914204DADFF8181761
S1130A0031F8141008E0DFF80C17DFF8F426126848
S1130A1011EB820131F9021CDFF8F02632F81420C0
S1130A20DFF8E436DFF8D4562D6813EB850333F989
S1130A30023C9A42AEDBDFF8D42632F81420B2E747
S1130A40DFF8DC16097801293AD1DFF8BC16DFF8A3
S1130A50AC26126821F82200DFF8B016DFF8B026C1
S1130A60127831F91210DFF8A026DFF890361B68EF
S1130A7012EB83025180DFF884160968491CDFF801
S1130A807C261160DFF88C16DFF87426126821F8D2
S1130A902200DFF88416DFF87826127831F9121074
S1130AA0DFF87026DFF858361B6812EB830251809A
S1130AB0DFF84C160968491CDFF8442611606CE61F
S1130AC0DFF85C16097800293FF456AF0021DFF8FF
S1130AD03C26DFF83C361B7832F81320DFF8383632
S1130AE0DFF82C46247833F8143013FA82F2022308
S1130AF092FBF3F2DFF81036DFF80046246813EBBC
S1130B00840333F9023CDFF80C46DFF8F4552D6812
S1130B1014EB850434F9024C04FA83F3022493FBA6
S1130B20F4F39C1A002C01D49D1A00E0D51A012478
S1130B3002E09D1A2100641CDFF8E4251278944237
S1130B40BFF6F1ADDFF8C425DFF8C465A65D32F861
S1130B501620DFF8C465DFF8B875E75D36F817606E
S1130B6016FA82F2022692FBF6F2D61A002E01D46D
S1130B70D61A00E09E1AAE42DDDAD11A0029D8D482
S1130B80D51AD7E7DFF88C0530F82400DFF898157C
S1130B9021F82400DFF87C0510EB8400B0F9020092
S1130BA0DFF8641511EB8401B1F9021001FA80F049
S1130BB0022190FBF1F0DFF8701511EB84014880FD
S1130BC0641CDFF83C0500688442DBDB0020DFF8AE
S1130BD05C1508600020DFF858150860002426E042
S1130BE0DFF8440510EB8400B0F90200001EA328CE
S1130BF01CD2DFF83C050068DFF82C1531F924100D
S1130C004018DFF82C150860DFF820050068DFF8CD
S1130C10181511EB8401B1F90210DFF80C2532F933
S1130C20242011FB0200DFF804150860641CDFF8BF
S1130C30C80400688442D3DBDFF8F40400680128A8
S1130C400ADBDFF8E8040068DFF8E414096890FBC5
S1130C50F1F0DFF8E0140860DFF8D8040068002839
S1130C6004D50020DFF8CC14086008E0DFF8C404E1
S1130C700068A32803DBA220DFF8B8140860DFF8BB
S1130C80B4040068DFF8B0140968401A002807D4D7
S1130C90DFF8A0040068DFF8A0140968401A06E031
S1130CA0DFF894040068DFF88C140968401A5B28A4
S1130CB005DBDFF884040068DFF87814086000F0CE
S1130CC0AFF9DFF878040078002800F026810521C8
S1130CD0DFF86C0400F0ECFC42F6D31424B24FF4B9
S1130CE0807194FBF1F000FB1140C0B200F0D9FC1C
S1130CF024B24FF4807094FBF0F0C0B200F0D1FC49
S1130D00DFF84004B0F9004024B24FF4807194FB42
S1130D10F1F000FB1140C0B200F0C3FC24B24FF468
S1130D20807094FBF0F0C0B200F0BBFC3C2424B211
S1130D304FF4807194FBF1F000FB1140C0B200F05D
S1130D40B0FC24B24FF4807094FBF0F0C0B200F019
S1130D50A8FCA22424B24FF4807194FBF1F000FBB0
S1130D601140C0B200F09DFC24B24FF4807094FB9B
S1130D70F0F0C0B200F095FCB92424B24FF48071B5
S1130D8094FBF1F000FB1140C0B200F08AFC24B2E5
S1130D904FF4807094FBF0F0C0B200F082FC502459
S1130DA024B24FF4807194FBF1F000FB1140C0B207
S1130DB000F077FC24B24FF4807094FBF0F0C0B2E2
S1130DC000F06FFC502424B24FF4807194FBF1F0D6
S1130DD000FB1140C0B200F064FC24B24FF48070F8
S1130DE094FBF0F0C0B200F05CFC42F2F851BE4853
S1130DF000F05EFCCF48046824B24FF4807194FB89
S1130E00F1F000FB1140C0B200F04BFC24B24FF4EF
S1130E10807094FBF0F0C0B200F043FCB748046863
S1130E2024B24FF4807194FBF1F000FB1140C0B286
S1130E3000F037FC24B24FF4807094FBF0F0C0B2A1
S1130E4000F02FFC00240DE00221AF4810EB8400D9
S1130E5000F02EFC0221AC4810EB8400801C00F052
S1130E6027FC641C502CEFDBA548046824B24FF423
S1130E70807194FBF1F000FB1140C0B200F011FC52
S1130E8024B24FF4807094FBF0F0C0B200F009FC7F
S1130E9000240DE002219F4810EB840000F008FCC0
S1130EA002219C4810EB8400801C00F001FC641CAF
S1130EB0502CEFDB9048046824B24FF4807194FB0B
S1130EC0F1F000FB1140C0B200F0EBFB24B24FF490
S1130ED0807094FBF0F0C0B200F0E3FB00240DE05E
S1130EE00221914810EB840000F0E2FB02218E48BD
S1130EF010EB8400801C00F0DBFB641C502CEFDB47
S1130F000521914800F0D4FB0521904800F0D0FB66
S1130F108C480088401C8B49088003206C49087069
S1130F208B480068401C8A49086005208849096884
S1130F30874A126892FBF0F200FB1210002805D1D8
S1130F403548006890F0806033490860F1BD80B591
S1130F5001208049086000205049086003204F495F
S1130F6008607D48006800B27C49086000207A4926
S1130F7008607A4800687A49486000F006F87948C1
S1130F800068401C7749086001BD80B54B48006883
S1130F9073490860724800F059F97349086072484F
S1130FA00068B0F57A7F04DD4FF47A706E4908600A
S1130FB007E06D48006810F57A7F02DA6B486A49E9
S1130FC00860C8206849086067480068022190FBEF
S1130FD0F1F010F5FA70002807D463480068022184
S1130FE090FBF1F010F5FA7007E05F480068022109
S1130FF090FBF1F010F5FA70404280B25C49086051
S11310005C48006850F400705A49086001BD000053
S1131010E804FF1FD0F00F4000F10F4010F10F4023
S113102044480068D0F151005349086052480068B0
S113103020490968504A1268504B1B68D21A1E4B4B
S11310401B685A4301FB002000F508506A304C49E4
S1131050086049480068494908604948006842F204
S11310600901884204DA42F208004549086009E0AF
S11310704348006842F2B841884203DB42F2B84078
S11310803F4908603E48006880B23E4908603E48D7
S1131090006850F400703C490860704728710340B0
S11310A0000016435C04FF1F0000B4426004FF1FED
S11310B06404FF1F182FFF1F1C2FFF1F142FFF1F77
S11310C018B00440FC04FF1F80F00F4000C004402F
S11310D0382FFF1FEC04FF1FF804FF1F3871034073
S11310E0347103408004FF1FC008FF1FF404FF1F76
S11310F090F00F40C42EFF1FB82EFF1FBC2EFF1F01
S1131100C02EFF1F392FFF1F4006FF1FC82EFF1FD1
S1131110F42EFF1F8007FF1FDC2EFF1F342FFF1F3D
S11311203A2FFF1FF02EFF1F0005FF1F002FFF1F88
S1131130042FFF1F6804FF1F6C04FF1F7004FF1FB0
S113114098240000362FFF1FA0240000A8240000CC
S1131150F004FF1F2C71034004900340202FFF1F55
S11311609004FF1F282FFF1F242FFF1F18FCFFFFD1
S11311703880034098800340082FFF1F0C2FFF1F67
S1131180102FFF1F10800B4098800B4080B500F09B
S113119003F800F024F801BD002022490860002073
S11311A02049486000201F49886000201D49C8600C
S11311B01D4800681B4908611C48006819494861BA
S11311C01B480068174988614FF47A701549C86153
S11311D018481449086200201249886270470020A8
S11311E015490860002014494860002012498860AD
S11311F000201149C860114800680F49086110486F
S113120000680D4948610F4800680B49886140F245
S113121062200949C8610C48074908620020064950
S1131220486270479004FF1F5C04FF1F6004FF1FA7
S11312306404FF1F18FCFFFFBC04FF1F8404FF1F8E
S11312408C04FF1F8804FF1F9EFDFFFF2DE9F04162
S1131250040020686168451AA068281AE168461AE3
S1131260A560E060291E012920D3A76A00F046FA90
S1131270216900F06BFA8046280000F03FFA6169AA
S113128000F064FA414600F0CDFA0500300000F0A9
S113129035FAA16900F05AFA290000F0C3FA00F007
S11312A003FB0A2190FBF1F0C019A062A06AE16976
S11312B0884202DBE069A06205E0206AA16A8842F4
S11312C001DB206AA062A06ABDE8F08180B57D4898
S11312D07D4908607B487D4908607D480068400876
S11312E040007B4908607B48006830F04000794941
S11312F008607548006850F080707349086073484E
S1131300006850F0807071490860F02080F3118803
S1131310592000F016F85A2000F013F8462000F087
S113132010F80321592000F0EFF804215A2000F0AE
S1131330EBF80221462000F0E7F8602080F31188E2
S113134001BD10B4011E5C2971D2202190FBF1F182
S1131350002905D0022937D01CD303294ED066E0DA
S11313605D4909680122202390FBF3F404FB130474
S1131370A2401143584A11605849096801222023A8
S113138090FBF3F404FB130412FA04F008435349EA
S113139008604CE0524909680122202390FBF3F4D1
S11313A004FB1304A24011434D4A11604D490968DE
S11313B00122202390FBF3F404FB130412FA04F03B
S11313C008434849086032E047490968012220235C
S11313D090FBF3F404FB1304A2401143424A11604E
S11313E0424909680122202390FBF3F404FB13040F
S11313F012FA04F008433D49086018E03C490968C2
S11314000122202390FBF3F404FB1304A2401143B4
S1131410374A1160374909680122202390FBF3F40D
S113142004FB130412FA04F008433249086010BCA8
S1131430704710B4011E5C2941D2202190FBF1F1C8
S1131440002905D002291FD010D303292AD036E061
S1131450294909680122202390FBF3F404FB1304B7
S113146012FA04F008432449086028E02349096873
S11314700122202390FBF3F404FB130412FA04F07A
S113148008431E4908601AE01D4909680122202307
S113149090FBF3F404FB130412FA04F00843184914
S11314A008600CE0174909680122202390FBF3F43B
S11314B004FB130412FA04F008431249086010BC38
S11314C07047000000010A0018B0044000C0044046
S11314D094F00F40D4F00F4080E200E000E100E01F
S11314E084E200E004E100E088E200E008E100E0DA
S11314F08CE200E00CE100E080E100E084E100E047
S113150088E100E08CE100E0021E5C2A02D20A1E9F
S1131510102A00D305E000F1604010F56440090191
S113152001707047F0B56948006850F4005067498D
S113153008606748007810F0F300654908700020DF
S113154064490870644800684FF47A7181FB0001B3
S11315505FF4E112002300F0C9F904005E4800685A
S11315604FF4FA4181FB00015FF4E112002300F023
S1131570BDF9B0EB44155848006842F2107181FB84
S1131580000115EB4412521CD31700F0AFF9534A73
S11315905FF0FF3380185941002915DB01DC002876
S11315A012D34D48006842F2107181FB000115EB23
S11315B04412521CD31700F099F9484A5FF0FF33E4
S11315C0861851EB030713E04348006842F2107198
S11315D081FB000115EB4412521CD31700F086F96D
S11315E03E4A5FF0FF3380185941464271EB410790
S11315F03948006842F2107181FB000115EB441276
S1131600D31700F073F9354A5FF0FF33801859415E
S1131610002913DB01DC002810D32F48006842F2B4
S1131620107181FB000115EB4412D31700F05EF931
S11316302A4A5FF0FF338018594112E026480068B7
S113164042F2107181FB000115EB4412D31700F034
S11316504DF9224A5FF0FF3380185941404271EB43
S113166041018F4203DC01DB864200D26D1C201253
S113167010F01F001A4908701A48047015F01F0072
S1131680194908704FF44070184908604FF44070CD
S1131690174908600E48007850F02C000C49087077
S11316A0F0BD144909780906FBD513490870704741
S11316B007E0104A12781206FBD502780E4B1A7016
S11316C0401C0A00511E002AF3D1704734800440A4
S11316D003D0064002D006407C04FF1F0036F7FF0B
S11316E000D0064001D006400AD0064044B0044071
S11316F040B0044004D0064007D00640002840F122
S11317000780F446404200F003F850F00040604780
S11317100AD0B0FA80F18840D1F19D01C9050206D2
S113172072F1004241EB1020704750F8041B61B184
S113173050F8042BD30744BFA9F101039A180023DE
S113174042F8043B091FFAD1EFE77047FF2212EA7F
S1131750D05C1DBF12EAD153944593422BE09C44C4
S1131760D30780EA01021A4043EA002043EA012138
S1131770A1FB0030410038BF40007CF17F010BDB4E
S1131780FE294ADA5B0842EAC15153EA006373F165
S1131790004C51EB10207047D1F1080CDCF1200112
S11317A02FDB5B0810FA01F10B4373F1004120FABF
S11317B00CF05041704794451CBF02EAD153934248
S11317C080EA010202F000421DD0400019D0490015
S11317D017D05BB9634514D00902B1FA81F399407B
S11317E0BCEB030CC00140F00040C1E70002B0FABA
S11317F080FC10FA0CF0B3EB0C0CC90141F0004171
S1131800B6E71000704740000AD0490008D010F134
S1131810807F94BF11F1807F02E042F0FF40704767
S1131820D043704790EA010F44BF81F0004100F0BB
S1131830F7B800BF421A3CBF801A89184FF0004C19
S1131840C0F3C752FF2A24D0C1F3C75313B3D21A2B
S1131850D2F1190327DD4CEA01214CFA03F321EA02
S11318600303D140C20D4CEA0020401834BF20EAE3
S11318700C004CEA5000D20553EA006373EB0C0CE5
S113188052EB1020420012F1807F38BF7047C00D28
S1131890C0057047490212BF9A4200EB5120F8E795
S11318A0D2F11703D9D570474100090E7F3915D4F9
S11318B0D1F11F0114D4400007D2C00140F0004010
S11318C0C84048BF6FF000407047C00140F000407E
S11318D0C8404CBF4FF00040404270470020704762
S11318E000424FF0004058BFC043704713F0004C13
S11318F003D55B42524263F100039CEA210C00F0E1
S1131900178010B5644603D34942404261F1000197
S113191000F00EF8640004D34942404261F1000132
S1131920244203D55B42524263F1000310BD000020
S11319301B4213D1094236D12AB18446B0FBF2F0DE
S113194002FB10C2704700F0D7B8FCD3002200237A
S113195070470B000200002100207047904271EB99
S1131960030CF6D370B5B1FA81F4B3FA83F52C1BEA
S1131970A340C4F1200532FA05F63343A2405FF0D8
S11319800046E64002E05B085FEA3202841A71EB2B
S1131990030524BF204629467641F4D302000B00F8
S11319A03000002170BD012ACFD970B5140C20D0AD
S11319B0B1FA81F4B2FA82F5C4F120046419B4F1E5
S11319C02006D6D3B2405FF00044F440002502E084
S11319D052085FEA3303C61A71EB020E24BF304685
S11319E0714664416D41F3D302000B0020002900CD
S11319F070BD0C46B1FBF2F102FB11452D0445EA22
S1131A001045B5FBF2F402FB145580B240EA0545DB
S1131A10B5FBF2F002FB105240EA044070BD000036
S1131A20431A4FF000423EBF5340C01AC91800BFCA
S1131A30D3095FEAD05C13EB400F34BFB3EB410F23
S1131A4040E07CEBD1530CD342EA012122D8D1EB04
S1131A50402009D3400A28BF5FEA500140EBCC5034
S1131A607047401A15D04002B0FA80F2521C9040E0
S1131A70400A4FEA3C23B3EB026384BF00EB7300DC
S1131A8007E040F400001A16DB07C2F10102D0405F
S1131A9018437047182BFCDC31FA03F202FA03F303
S1131AA0591A38BF42F00102D2EB40203CBF40003B
S1131AB0ACF1010C5FEACC5CC20572F100414CEB65
S1131AC05020704713EB400F0FD24B0009D0ACEB02
S1131AD0D153022B03DB4902172BDDDD7047914301
S1131AE0401A4300D5D10020704713EB410FD0D3E7
S1131AF06FF000007047000070470000DFF800F04E
S1131B001104FF1F80B5C0B2002816D0C0B201284E
S1131B1013D0C0B2022810D0C0B203280DD0C0B276
S1131B2004280AD0C0B2052807D0C0B2062804D0C1
S1131B30C0B2072801D00020AEE00022624B1A7028
S1131B40624A126852F08052604B1A60604A1278FE
S1131B5052F080025E4B1A7098225E4B1A705E4AF5
S1131B601278D206FBD45C4A1278C2F38102D2B254
S1131B70022AF8D1C0B2072808D0C0B2022805D082
S1131B80C0B2032802D0C0B2042803D10122534BAF
S1131B901A7002E00322514B1A700022504B1A7043
S1131BA0C0B200280BD002281FD013D3042832D08F
S1131BB026D3062845D039D307284DD056E0012333
S1131BC0002200210020FFF799FF412044490870BA
S1131BD032214BE00323012201210020FFF78EFF75
S1131BE05A203F490870642140E004230122012166
S1131BF00020FFF783FF502039490870A02135E009
S1131C000523012201210020FFF778FF55203449E4
S1131C100870B4212AE00523012201210020FFF7E6
S1131C206DFF5A202E490870C8211FE001230022AD
S1131C3000210020FFF762FF40202949087030216D
S1131C4014E00323012201210020FFF757FF58204D
S1131C5023490870602109E00423012201210020A6
S1131C60FFF74CFF48201E49087080211A4800786D
S1131C708006FBD5184800784006FBD51548007847
S1131C8010F03F00134A107013480078C0F381002D
S1131C90C0B20328F8D1080002BD1248006850F40D
S1131CA08050104908604FF4E0600F4908607047A5
S1131CB00E48006850F001000C4908604FF4A06021
S1131CC00B4908607047000001400640348004401E
S1131CD008C0074000400640064006400440064055
S1131CE005400640048004401890044040800440AD
S1131CF00CB004404FF480704D4908604FF480707C
S1131D004C4908604FF480704B4908604FF4807070
S1131D104A4908604FF48070494908604FF4807064
S1131D20484908604FF48070474908604FF4807058
S1131D30464908604FF48070454908604FF480704C
S1131D40444908604FF4807043490860082005E066
S1131D504FF48171414A42F82010401C1028F7DBEF
S1131D603F48006830F040003D4908603D48006845
S1131D7030F004003B4908603A48006830F0100035
S1131D80384908603748006830F040003549086039
S1131D903548006830F400703349086033480068FF
S1131DA050F02000314908602E48006850F08060EF
S1131DB02C4908602B48006850F008002949086045
S1131DC02848006850F0200026490860254800682B
S1131DD050F08070234908602248006850F0007079
S1131DE0204908602248006850F02000204908601B
S1131DF02048006850F080601E4908601D48006853
S1131E0050F008001B4908601A48006850F0200090
S1131E10184908601748006850F080701549086038
S1131E201448006850F0007012490860704700BF01
S1131E3018C0044008D0044010D0044018D0044016
S1131E4014B0044068D004400CD0044014D00440C2
S1131E5060D0044064D0044024A0044000B0044096
S1131E60D4F00F4014F10F4054F00F4094F00F40A1
S1131E7080F00F4000F10F4080B500F003F800F04F
S1131E8047F801BD3C48006850F080703A4908604A
S1131E9004203A4908600020394908600020394983
S1131EA00860002038490860002038490860002094
S1131EB03749086000203749086000203649086027
S1131EC00020364908600020354908600020354963
S1131ED008600020344908604FF47A703349086080
S1131EE028202F4908600020314908604FF48060A1
S1131EF0304908600A20224908604FF4FA702C49DE
S1131F0008602D48006850F400702B490860704741
S1131F102A48006850F08070284908600420284945
S1131F200860002027490860002027490860002035
S1131F3026490860002026490860002025490860D9
S1131F4043F2D40024490860282021490860002075
S1131F50224908604FF44070214908600D20194956
S1131F60086042F26A201D4908601E48006850F467
S1131F7000701C49086070473C8004405480034052
S1131F80008003404C800340048003400C800340E5
S1131F90148003401C800340248003402C800340B1
S1131FA0348003403C800340448003400880034065
S1131FB03880034014C004409880034030800440BB
S1131FC054800B4000800B404C800B4004800B403D
S1131FD00C800B4014800B4008800B4010800B4099
S1131FE048A0044098800B4080B500F055F800F0FC
S1131FF005F800F06DF800F0A3F8FEE780B51C4882
S11320001C4988420BD0002006E01A4951F82010E0
S1132010174A42F82010401CB0F5826FF5DB1448D3
S113202000F09EF81449154A1548801A03E0137805
S11320300B70521C491C0300581E012BF7DA11497E
S11320401148401A02E000220A70491C0200501E86
S1132050012AF8DA0D490E4A0E48801A03E0137873
S11320600B70521C491C0300581E012BF7DA01BDEA
S11320700000FF1F000000005C04FF1F7424000028
S11320808C2400007404FF1F3B2FFF1F1004FF1F4C
S113209088230000D423000080B500F009F80A4822
S11320A000884FF6FE7108400749088001BD000012
S11320B072B64CF22050054908804DF628100349A9
S11320C0088062B670470000002005400E200540DD
S11320D080B51548006850F478501349086007200B
S11320E0FFF710FD11490860104800684FF47A7139
S11320F048430F4908600E4800680E490968C1F357
S11321000361491CB0FBF1F00B4908600A48006800
S11321104FF47A7190FBF1F008490860FFF7BDFDB8
S1132120FFF7C6FD01BD00BF388004407804FF1FDF
S11321307404FF1F448004407C04FF1F8004FF1FBD
S113214080B572B600F012F8FEF780F962B6034863
S113215000780228FBD1FEF7E4F9F8E7382FFF1FD7
S1132160014908607047000008ED00E080B5FFF702
S1132170C1FDFFF781FE00F025F8FFF7A7F800F096
S113218067F8FFF7CFF900F09DF800F0CFF80020D2
S1132190084908600120074908605FF0FF300649DC
S11321A00968401A05490968B0FBF1F004498842FE
S11321B0F3D301BD38710340347103408004FF1F21
S11321C021A107001748006850F400001549086071
S11321D0002015490860154800684021484319301B
S11321E0134908600020134908607FF01F0012495A
S11321F008600020114908600C4800684FF47A61B7
S113220048430F49086000200E49086003200D4927
S113221008607FF01F000C49086000200B4908602B
S1132220704700BF3C800440007003408004FF1FDF
S1132230007103400871034010710340187103409A
S1132240207103402871034030710340387103400A
S11322504FF4C060114908604FF4C0601049086031
S11322601048006850F000700E49086005200E49BF
S1132270086000200D49086000200D4908604FF6F1
S1132280FF700C49086019200B490860C1200B49F4
S11322900860FF200A490860704700BF00A004409E
S11322A004A004403C800440549003404C900340FC
S11322B00490034008900340009003408090034042
S11322C0789003404FF48070DFF8501008604FF4AA
S11322D08070DFF84C100860DFF84800006850F0A8
S11322E00400DFF840100860DFF83800006850F0A0
S11322F00800DFF830100860DFF82C00006850F0A8
S11323000800DFF824100860DFF81C00006850F0B3
S11323100400DFF814100860704700000CA00440AB
S113232008A0044054F00F4040F00F40DFF8440090
S1132330006850F04000DFF83C1008604FF4007073
S1132340DFF8341008604FF40070DFF830100860D4
S1132350DFF82800006850F02000DFF82010086043
S11323606020DFF81C1008708020DFF81810087057
S1132370704700003480044008A004400CA00440CE
S1132380016006400260064070B4104C24680F4D92
S11323902D6855F47F050D4E3560090611F0706106
S11323A051EA0070110511F470010843190411F485
S11323B07021084306490860002000E0401CC0B2B8
S11323C09842FBD30148046070BC704700F00140A0
S11323D04480044010B5074979441831064C7C44C4
S11323E0163404E00A68081D511888470146A142C2
S11323F0F8D110BD2C00000038000000054800682A
S1132400401C0449086004480078C0B203490860CD
S1132410704700BF302FFF1F04ED00E02C2FFF1F7B
S11324200BF3FFFFC82A00007404FF1F0000000024
S113243000F00BF8002801D0FFF7CCFF0020C046C5
S1132440C046FFF77DFE00F002F80120704700F05F
S113245001B800000746384600F002F8FBE7000028
S113246080B5C046C046024A11001820ABBEFBE747
S113247026000200000020430000704200002041BA
S1132480510000005100000001000000C046C04699
S1132490C046C046FFF7CCFFFE01FE01FE0000006F
S11324A01516171819000000FD02FD02FD000000BA
S903248D4B
