S00D0000736D6172742E73726563F0
S1130000F8FF0020110400004132000041320000DA
S11300104132000041320000413200004132000010
S11300204132000041320000413200004132000000
S113003041320000413200004132000041320000F0
S113004041320000413200004132000041320000E0
S113005041320000413200004132000041320000D0
S113006041320000413200004132000041320000C0
S113007041320000413200004132000041320000B0
S113008041320000413200004132000041320000A0
S11300904132000041320000413200004132000090
S11300A04132000041320000413200004132000080
S11300B04132000041320000413200004132000070
S11300C04132000041320000413200004132000060
S11300D04132000041320000413200004132000050
S11300E04132000041320000413200004132000040
S11300F04132000041320000413200004132000030
S1130100413200004132000041320000413200001F
S1130110413200004132000041320000413200000F
S113012041320000413200004132000041320000FF
S113013041320000413200004132000041320000EF
S113014041320000413200004132000041320000DF
S11301504132000041320000E5120000413200004B
S113016041320000413200004132000041320000BF
S113017041320000413200004132000041320000AF
S1130180413200004132000041320000413200009F
S1130190413200004132000041320000413200008F
S11301A0413200004F050000A1050000413200006B
S11301B0413200004132000041320000413200006F
S11301C0413200004132000041320000413200005F
S11301D0413200004132000041320000413200004F
S11301E0413200004132000041320000413200003F
S1130400FFFFFFFFFFFFFFFFFFFFFFFFFEFFFFFFF9
S11304104FF000004FF000014FF000024FF00003D6
S11304204FF000044FF000054FF000064FF00007B6
S11304304FF000084FF000094FF0000A4FF0000B96
S11304404FF0000C62B602F0D1FCFEE780B500F07C
S113045015F801F05DF800209F49086000209F49CD
S1130460086000209D49086003209C4908605A20C8
S113047001F029F9592001F026F901BD984899495C
S113048008609948994908605FF07E50984908606F
S11304909848006840060FD59748006830F0080077
S11304A095490860954896490860964896490860B9
S11304B02D209649086045E09548006840070FD50F
S11304C08D48006830F020008B4908608B488C49C7
S11304D0086090488C49086028208C49086031E005
S11304E08B480068C0060FD58348006830F08070E0
S11304F081490860814882490860874882490860C8
S11305002820824908601DE08148006840060FD514
S11305107948006830F00070774908607F4878496E
S113052008607F487849086028207849086009E015
S11305307248734908605FF07D5073490860282051
S113054072490860704780B500F0FCF801BD80B5C1
S11305507448006850F080707249086000205E4959
S113056008605A2001F0AFF80520DFF8B41D0968CF
S1130570DFF8AC2D126892FBF0F200FB1210002899
S113058005D16948006890F0200067490860DFF8E9
S1130590900D0068401CDFF8881D086001BD000054
S11305A080B56248006850F08070604908604A482D
S11305B00068401C48490860DFF8680D007800288E
S11305C00FD1454800686928C0F281800120DFF816
S11305D0541D0870002056490860032055490860DE
S11305E075E0DFF8400D007801285CD150480068C0
S11305F0142806DB4F480068032802D102204D4925
S1130600086035480068344909684A4A126891FB11
S1130610F2F1484A126802FB110000283AD1002086
S1130620454908600120444908605FF0FF304349B0
S11306300968401A42490968B0FBF1F00728F4D36D
S1130640DFF8900C3A490968A22202FB0100DFF8A6
S1130650881C0860002006E0491C0329FCDB00BF5D
S113066000BF00BF401CA2280FDADFF8701C096825
S1130670090ADFF86C2C1160DFF8641C0968DFF8E4
S1130680582C126881540021E7E729480068401C6F
S113069027490860264800683C2818DB0220DFF858
S11306A0841C087013E0DFF87C0C007802280ED05C
S11306B0DFF8700C0078032809D15A2001F07BF888
S11306C0592001F000F80020DFF8581C087046207B
S11306D000F0F9FF01BD0000E404FF1F287103408E
S11306E0000016438004FF1F00008C428404FF1F97
S11306F08804FF1FD0F00F4000F10F400000E040DD
S1130700142FFF1F9A99193F182FFF1F102FFF1F37
S113071010F10F40EC51383FA4703D3FCDCCE44084
S11307209A99393F18B0044080F00F4000C004404B
S1130730E804FF1FF404FF1F3871034034710340C1
S11307407004FF1FF8B5002200200021DFF85C3C94
S113075019600021DFF8583C19600021DFF8543C8F
S113076019600121DFF8C03B1970002161E0DFF856
S1130770483CDFF83C4C246823F82410DFF83C3C68
S113078033F91230DFF8304CDFF8245C2D6814EBB9
S113079085046380DFF8183C1B685B1CDFF8104C91
S11307A02360DFF8D43CDFF80C4C246823F82410D1
S11307B0DFF80C3C33F91220DFF8BC3CDFF8F44BD3
S11307C0246813EB84035A80DFF8E82B1268521C68
S11307D0DFF8E03B1A60DFF8EC2B1288052A27DBF0
S11307E0DFF8E42B1288052A22DB401C14281FDBC7
S11307F042F21D42DFF8D43B1A600022DFF8D03BFE
S11308001A600122DFF8C83B1A605FF0FF32DFF89C
S1130810C43B1B68D21ADFF8C03B1B68B2FBF3F27F
S1130820DFF8B83B9A42F0D30022DFF8B43B1A60F9
S1130830491C3C2980F2FA800022DFF8883B1A80A8
S11308400022DFF8843B1A80DFF8882AA22303FB06
S1130850012292F8A120AB2A07DB0022DFF85C3BDF
S1130860DFF8604B248823F81420A1241AE0DFF871
S1130870642AA22303FB0122A21812F8012CAB2A3A
S11308801ADAD4F1A202DFF8383BDFF8385B2D889E
S113089023F81520DFF82C2B1288521CDFF8243B98
S11308A01A80641E012C34DBDFF8282AA22303FB00
S11308B00122A25CAB2ADADADFF8182AA22303FBAE
S11308C00122A25CAB2A1ADADFF8082AA22303FB6E
S11308D00122A21812F8012CAB2A10DBD4F1A102D8
S11308E0DFF8D83ADFF8DC5A2D8823F81520DFF832
S11308F0D82A1288521CDFF8D03A1A80D1E7DFF8E0
S1130900C42A12880A2A04DADFF8BC2A12880A2ABE
S1130910C7DBDFF8C029A22303FB01221278AB2A2C
S113092013DBDFF8A02A12880A2A0EDAA122DFF8E4
S1130930903ADFF8904A248823F81420DFF8842AB8
S11309401288521CDFF87C3A1A80DFF8DC2912780E
S1130950002A66D00023DFF86C2A1288002A3FF4AC
S113096067AFDFF85C2A1288DFF8504A2488121B2C
S1130970012415E0DFF8485A35F81450DFF83C6AD2
S113098036F81460AD1B954209DBDFF8342A32F8DF
S11309901420DFF8283A33F81430D21A2300641CE8
S11309A0DFF8205A2D88AC42E4DB3D2AFFF613AF72
S11309B00022DFF874492270DFF8FC29DFF8F049DF
S11309C0246822F82410DFF8F42932F91320DFF820
S11309D0E849DFF8DC592D6814EB85046280DFF800
S11309E0D0291268521CDFF8C8492260DFF8882A2F
S11309F0DFF8C049246822F82410DFF8C42932F94A
S1130A001320DFF8743ADFF8AC49246813EB84034D
S1130A105A80DFF8A0291268521CDFF898391A604E
S1130A20D9E6DFF8A0291288002A01D1002018E1B4
S1130A3000240022DFF8443A1A701FE0DFF8783906
S1130A40DFF86C592D6813EB850333F9023CD21A95
S1130A50DFF82C3A1A60DFF8282A1268002A0CD42E
S1130A60DFF8202ADFF8143A1B789C54DFF80C2AAC
S1130A701278521CDFF8043A1A70641CDFF8442917
S1130A801288944230DADFF8382932F81420DFF87B
S1130A90E839DFF820592D6813EB850333F9023C5C
S1130AA09A4204DADFF8182932F8142008E0DFF853
S1130AB0C829DFF800391B6812EB830232F9022CD3
S1130AC0DFF8F83833F81430DFF8EC58DFF8E06872
S1130AD0366815EB860535F9025CAB42AEDBDFF810
S1130AE0DC3833F81430B2E7DFF890291278012AA1
S1130AF03AD1DFF8C428DFF8B8381B6822F823108D
S1130B00DFF8B828DFF87C391B7832F91320DFF8D6
S1130B10A838DFF89C48246813EB84035A80DFF874
S1130B2090281268521CDFF888381A60DFF84829C8
S1130B30DFF880381B6822F82310DFF88428DFF8F8
S1130B4044391B7832F91320DFF82C39DFF8644874
S1130B50246813EB84035A80DFF858281268521C67
S1130B60DFF850381A6036E6DFF810291278002AC8
S1130B703FF45CAF0022DFF84438DFF808492478FA
S1130B8033F81430DFF83848DFF8F8582D7834F8A3
S1130B90154014FA83F3022493FBF4F3DFF81848A6
S1130BA0DFF80C582D6814EB850434F9024CDFF897
S1130BB0C858DFF80068366815EB860535F9025C1D
S1130BC005FA84F4022594FBF5F5EC1A002C01D403
S1130BD0EE1A00E05E1B012402E0EE1A2200641CFF
S1130BE0DFF898381B789C42BFF6C1ADDFF8CC37EC
S1130BF0DFF89078E75D33F81730DFF8C477DFF873
S1130C0084C814F80CC037F81C7017FA83F3022751
S1130C1093FBF7F35F1B002F01D45F1B00E0EF1A77
S1130C20B742DCDA5A1B002AD7D45E1BD6E7DFF8BA
S1130C30481831F82010DFF8502822F82010DFF887
S1130C403818B1F90210DFF87027B2F902205118F0
S1130C50022291FBF2F1DFF8302812EB800251807E
S1130C60401C3B280FDADFF8101811EB8001B1F9B2
S1130C7002109E2907DBDFF8401711EB8001B1F960
S1130C8002100529D3DBDFF82C070068DFF81C17F6
S1130C9008600020DFF8F41708600020DFF8F01780
S1130CA00860DFF8D407B0F90200DFF80C17B1F9D7
S1130CB00210401A022190FBF1F0DFF8FC16DFF875
S1130CC0EC26126811EB820131F9021CDFF8E826E8
S1130CD0B2F90220891A002911D4DFF8DC16DFF8F2
S1130CE0CC26126811EB820131F9021CDFF8C82608
S1130CF0B2F90220891ADFF89C27116010E0DFF8AE
S1130D00B816B1F90210DFF8B026DFF8A0361B6878
S1130D1012EB830232F9022C891ADFF8782711606A
S1130D20DFF85417DFF88426126811EB820131F9D9
S1130D30021CDFF84427B2F90220891A002911D4D1
S1130D40DFF83417DFF86426126811EB820131F9F9
S1130D50021CDFF82427B2F90220891ADFF83827A9
S1130D60116010E0DFF81017B1F90210DFF808275E
S1130D70DFF838361B6812EB830232F9022C891A29
S1130D80DFF81427116000210FE0DFF8EC2612EBE6
S1130D908102B2F90220962A06DBDFF8F0261268F7
S1130DA0521CDFF8E8361A60491CDFF80026126886
S1130DB08A420FDBDFF8002612EB8102B2F902202F
S1130DC00B2AE2DADFF8C8261268521CDFF8C036B4
S1130DD01A60E9E7DFF8D4150968152901DB142145
S1130DE002E0DFF8C8150968DFF8A42612688A4211
S1130DF004DBDFF8981609680B2909DBDFF898167D
S1130E00096865291FDBDFF88C16096832291ADAAC
S1130E100024DFF89C1509688C4273DADFF8581651
S1130E2031F82410DFF8602622F82410DFF8481681
S1130E3011EB84014988091ADFF84C2612EB84026D
S1130E405180641CE5E7DFF8481609680B290EDABF
S1130E50DFF858150968152901DB142102E0DFF8D1
S1130E604C150968DFF8242612688A4209DADFF88B
S1130E702416096865291FDBDFF81C160968322966
S1130E801ADA0024DFF82C1509688C423ADADFF804
S1130E90E81531F82410DFF8F02522F82410DFF8E3
S1130EA0181511EB840149884118DFF8DC2512EB91
S1130EB084025180641CE5E700241EE0DFF8B805D5
S1130EC030F82400DFF8C01521F82400DFF8A80565
S1130ED010EB8400B0F90200DFF8DC1411EB84019C
S1130EE0B1F9021001FA80F0022190FBF1F0DFF871
S1130EF0981511EB84014880641CDFF8B80400687D
S1130F008442DBDB0020DFF8941508600020DFF862
S1130F1090150860DFF8940400680A2803DADFF803
S1130F208C04006800E00A20DFF8801409681E2998
S1130F3003DADFF87814096800E01E21002419E0C0
S1130F40DFF8442532F92420DFF854351B68D31820
S1130F50DFF84C552B60DFF844351B68DFF8285563
S1130F6015EB8405B5F9025002FB0532DFF82C3588
S1130F701A60641CDFF83424126894421EDADFF825
S1130F80082512EB8402B2F90220121EA32AF0D221
S1130F90DFF8F42432F92420824204DADFF8E8246A
S1130FA032F92420D0E7DFF8E02432F924209142FA
S1130FB0C6DADFF8D42432F92420C5E7DFF8E004E8
S1130FC0006801280ADBDFF8D4040068DFF8D014D5
S1130FD0096890FBF1F0DFF8CC140860DFF8C40472
S1130FE00068002804D50020DFF8B814086008E081
S1130FF0DFF8B0040068A32803DBA220DFF8A41400
S11310000860DFF8A0040068DFF89C140968401A3F
S1131010002807D4DFF88C040068DFF88C14096812
S1131020401A06E0DFF880040068DFF878140968E5
S1131030401A5B2805DBDFF870040068DFF86414ED
S1131040086000F0CFF9DFF864040078002800F0AD
S113105026810521DFF8580400F0ECFC42F6D31495
S113106024B24FF4807194FBF1F000FB1140C0B244
S113107000F0D9FC24B24FF4807094FBF0F0C0B2BD
S113108000F0D1FCDFF82C04B0F9004024B24FF496
S1131090807194FBF1F000FB1140C0B200F0C3FC7E
S11310A024B24FF4807094FBF0F0C0B200F0BBFCAB
S11310B03C2424B24FF4807194FBF1F000FB114006
S11310C0C0B200F0B0FC24B24FF4807094FBF0F096
S11310D0C0B200F0A8FCA22424B24FF4807194FBA7
S11310E0F1F000FB1140C0B200F09DFC24B24FF4BB
S11310F0807094FBF0F0C0B200F095FCAA2424B2F6
S11311004FF4807194FBF1F000FB1140C0B200F089
S11311108AFC24B24FF4807094FBF0F0C0B200F06B
S113112082FC502424B24FF4807194FBF1F000FB54
S11311301140C0B200F077FC24B24FF4807094FBED
S1131140F0F0C0B200F06FFC502424B24FF4807170
S113115094FBF1F000FB1140C0B200F064FC24B237
S11311604FF4807094FBF0F0C0B200F05CFC42F2EB
S1131170F851584800F05EFCCA48046824B24FF4A1
S1131180807194FBF1F000FB1140C0B200F04BFC05
S113119024B24FF4807094FBF0F0C0B200F043FC32
S11311A08348046824B24FF4807194FBF1F000FB8F
S11311B01140C0B200F037FC24B24FF4807094FBAD
S11311C0F0F0C0B200F02FFC00240DE002217A48B8
S11311D010EB840000F02EFC0221774810EB840011
S11311E0801C00F027FC641C502CEFDB7148046861
S11311F024B24FF4807194FBF1F000FB1140C0B2B3
S113120000F011FC24B24FF4807094FBF0F0C0B2F3
S113121000F009FC00240DE00221974810EB840043
S113122000F008FC0221944810EB8400801C00F0BC
S113123001FC641C502CEFDB5C48046824B24FF4BE
S1131240807194FBF1F000FB1140C0B200F0EBFBA5
S113125024B24FF4807094FBF0F0C0B200F0E3FBD2
S113126000240DE00221884810EB840000F0E2FB2A
S11312700221854810EB8400801C00F0DBFB641C19
S1131280502CEFDB05218C4800F0D4FB05218B4862
S113129000F0D0FB87480088401C86490880032062
S11312A02049087086480068401C8549086005206C
S11312B083490968824A126892FBF0F200FB12101B
S11312C0002805D17F48006890F080607D4908605F
S11312D0F1BD0000BC08FF1FF004FF1F90F00F4099
S11312E0C02EFF1F80B50120774908600020774990
S11312F008600320754908607548006800B27549A4
S113130008600020724908607248006872494860A9
S113131000F00CF871480068401C7049086001BD79
S1131320F804FF1F462FFF1F472FFF1F80B52C48CF
S11313300068404268490860674800F049F9684914
S1131340086067480068B0F57A7F04DD4FF47A706E
S11313506349086007E06248006810F57A7F02DAA2
S113136060485F4908605E480068022190FBF1F024
S113137010F5FA70002807D459480068022190FB40
S1131380F1F010F5FA7007E055480068022190FB6F
S1131390F1F010F5FA70404280B2534908605348A6
S11313A0006850F400705149086001BDB42EFF1F5D
S11313B0B82EFF1FBC2EFF1F3C06FF1FC42EFF1FAD
S11313C0D82EFF1F402FFF1F422FFF1F0C2FFF1F80
S11313D038710340347103407004FF1F41420F0011
S11313E0102FFF1F10B52F480068D0F1510040495D
S11313F008603F48006800F043FB3E49096800F07C
S113140067FB3D4900F0D0FB0400394800683B49C4
S11314100968401A00F034FB3949096800F058FBA8
S1131420210000F0C1FB00F001FC3649086030489F
S11314300068324908603348006842F2B1218842AA
S113144004DA42F2B0202F49086009E02D48006810
S113145042F24C51884203DB42F24C502949086065
S11314602848006880B2284908602848006850F479
S113147000702649086010BD7C07FF1F482FFF1F1E
S1131480EC2EFF1FF02EFF1FFC04FF1F242FFF1F55
S1131490282FFF1F2C2FFF1F302FFF1FFC2EFF1F95
S11314A0002FFF1F5C04FF1F6004FF1F492FFF1F55
S11314B0C4320000442FFF1FCC320000D43200009D
S11314C0EC04FF1F00F10F402C710340287103400E
S11314D0049003401C2FFF1F8C04FF1F342FFF1F99
S11314E0202FFF1F18FCFFFF388003409880034023
S11314F0042FFF1F142FFF1F00741046082FFF1F17
S1131500182FFF1F0C2FFF1F10800B4098800B40DB
S113151080B500F003F800F024F801BD0020234951
S1131520086000202149486000202049886000208C
S11315301E49C8601E4800681C4908611D480068AF
S11315401A4948611C480068184988614FF47A7048
S11315501649C86119481549086200201349886270
S11315607047002016490860002015494860002093
S11315701349886000201249C86012480068104965
S11315800861114800680E494861104800680C4918
S1131590886140F26D100A49C8617FF4B670084949
S11315A00862002006494862704700008C04FF1F4F
S11315B08004FF1F8404FF1F8804FF1F18FCFFFF23
S11315C0B804FF1F7404FF1F7C04FF1F7804FF1F6F
S11315D02DE9F041040020686168451AA068281AC2
S11315E0E168461AA560E060291E012920D3A76A94
S11315F000F046FA216900F06BFA8046280000F0FA
S11316003FFA616900F064FA414600F0CDFA050042
S1131610300000F035FAA16900F05AFA290000F010
S1131620C3FA00F003FB0A2190FBF1F0C019A06299
S1131630A06AE169884202DBE069A06205E0206AF1
S1131640A16A884201DB206AA062A06ABDE8F08139
S113165080B57D487D4908607B487D4908607D48A8
S11316600068400840007B4908607B48006830F00F
S11316704000794908607548006850F080707349EB
S113168008607348006850F0807071490860F02069
S113169080F31188592000F016F85A2000F013F84E
S11316A0462000F010F80321592000F0EFF804213F
S11316B05A2000F0EBF80521462000F0E7F86020FE
S11316C080F3118801BD10B4011E5C2971D2202160
S11316D090FBF1F1002905D0022937D01CD303294E
S11316E04ED066E05D4909680122202390FBF3F4A3
S11316F004FB1304A2401143584A11605849096875
S11317000122202390FBF3F404FB130412FA04F0E7
S11317100843534908604CE05249096801222023D8
S113172090FBF3F404FB1304A24011434D4A1160EF
S11317304D4909680122202390FBF3F404FB1304B0
S113174012FA04F008434849086032E0474909683E
S11317500122202390FBF3F404FB1304A240114361
S1131760424A1160424909680122202390FBF3F4A4
S113177004FB130412FA04F008433D49086018E01E
S11317803C4909680122202390FBF3F404FB130471
S1131790A2401143374A11603749096801222023C6
S11317A090FBF3F404FB130412FA04F008433249E7
S11317B0086010BC704710B4011E5C2941D220217E
S11317C090FBF1F1002905D002291FD010D3032981
S11317D02AD036E0294909680122202390FBF3F43A
S11317E004FB130412FA04F008432449086028E0B7
S11317F0234909680122202390FBF3F404FB13041A
S113180012FA04F008431E4908601AE01D490968E9
S11318100122202390FBF3F404FB130412FA04F0D6
S11318200843184908600CE017490968012220237D
S113183090FBF3F404FB130412FA04F00843124976
S1131840086010BC7047000000010A0018B0044092
S113185000C0044094F00F40D4F00F4080E200E058
S113186000E100E084E200E004E100E088E200E05E
S113187008E100E08CE200E00CE100E080E100E03F
S113188084E100E088E100E08CE100E0021E5C2AD3
S113189002D20A1E102A00D305E000F1604010F5C0
S11318A06440090101707047F0B56948006850F45C
S11318B00050674908606748007810F0F3006549F4
S11318C00870002064490870644800684FF47A7115
S11318D081FB00015FF4E112002300F0C9F9040068
S11318E05E4800684FF4FA4181FB00015FF4E112A5
S11318F0002300F0BDF9B0EB44155848006842F2EB
S1131900107181FB000115EB4412521CD31700F037
S1131910AFF9534A5FF0FF3380185941002915DBB2
S113192001DC002812D34D48006842F2107181FB9B
S1131930000115EB4412521CD31700F099F9484AE0
S11319405FF0FF33861851EB030713E04348006848
S113195042F2107181FB000115EB4412521CD317A3
S113196000F086F93E4A5FF0FF3380185941464241
S113197071EB41073948006842F2107181FB0001A4
S113198015EB4412D31700F073F9354A5FF0FF33B7
S113199080185941002913DB01DC002810D32F489B
S11319A0006842F2107181FB000115EB4412D31759
S11319B000F05EF92A4A5FF0FF338018594112E0C3
S11319C02648006842F2107181FB000115EB4412B5
S11319D0D31700F04DF9224A5FF0FF3380185941C4
S11319E0404271EB41018F4203DC01DB864200D2AD
S11319F06D1C201210F01F001A4908701A48047058
S1131A0015F01F00194908704FF440701849086018
S1131A104FF44070174908600E48007850F02C00CD
S1131A200C490870F0BD144909780906FBD513491F
S1131A300870704707E0104A12781206FBD5027846
S1131A400E4B1A70401C0A00511E002AF3D1704735
S1131A503480044003D0064002D006406C04FF1FCB
S1131A600036F7FF00D0064001D006400AD00640F9
S1131A7044B0044040B0044004D0064007D00640BF
S1131A80002840F10780F446404200F003F850F08B
S1131A90004060470AD0B0FA80F18840D1F19D013E
S1131AA0C905020672F1004241EB1020704750F85C
S1131AB0041B61B150F8042BD30744BFA9F10103FF
S1131AC09A18002342F8043B091FFAD1EFE7704744
S1131AD0FF2212EAD05C1DBF12EAD153944593420F
S1131AE02BE09C44D30780EA01021A4043EA002019
S1131AF043EA0121A1FB0030410038BF40007CF1E2
S1131B007F010BDBFE294ADA5B0842EAC15153EA42
S1131B10006373F1004C51EB10207047D1F1080CB5
S1131B20DCF120012FDB5B0810FA01F10B4373F1A8
S1131B30004120FA0CF05041704794451CBF02EA62
S1131B40D153934280EA010202F000421DD04000CA
S1131B5019D0490017D05BB9634514D00902B1FA12
S1131B6081F39940BCEB030CC00140F00040C1E795
S1131B700002B0FA80FC10FA0CF0B3EB0C0CC901B3
S1131B8041F00041B6E71000704740000AD0490018
S1131B9008D010F1807F94BF11F1807F02E042F001
S1131BA0FF407047D043704790EA010F44BF81F073
S1131BB0004100F0F7B800BF421A3CBF801A8918F0
S1131BC04FF0004CC0F3C752FF2A24D0C1F3C753CF
S1131BD013B3D21AD2F1190327DD4CEA01214CFACE
S1131BE003F321EA0303D140C20D4CEA002040185C
S1131BF034BF20EA0C004CEA5000D20553EA0063DB
S1131C0073EB0C0C52EB1020420012F1807F38BFB2
S1131C107047C00DC0057047490212BF9A4200EBDD
S1131C205120F8E7D2F11703D9D570474100090EC6
S1131C307F3915D4D1F11F0114D4400007D2C0015B
S1131C4040F00040C84048BF6FF000407047C001FA
S1131C5040F00040C8404CBF4FF000404042704745
S1131C600020704700424FF0004058BFC043704707
S1131C7013F0004C03D55B42524263F100039CEA2B
S1131C80210C00F0178010B5644603D3494240424A
S1131C9061F1000100F00EF8640004D349424042AF
S1131CA061F10001244203D55B42524263F1000317
S1131CB010BD00001B4213D1094236D12AB184461B
S1131CC0B0FBF2F002FB10C2704700F0D7B8FCD3AF
S1131CD00022002370470B000200002100207047FF
S1131CE0904271EB030CF6D370B5B1FA81F4B3FAF8
S1131CF083F52C1BA340C4F1200532FA05F63343C7
S1131D00A2405FF00046E64002E05B085FEA320270
S1131D10841A71EB030524BF204629467641F4D387
S1131D2002000B003000002170BD012ACFD970B52C
S1131D30140C20D0B1FA81F4B2FA82F5C4F1200473
S1131D406419B4F12006D6D3B2405FF00044F440E5
S1131D50002502E052085FEA3303C61A71EB020E53
S1131D6024BF3046714664416D41F3D302000B0039
S1131D702000290070BD0C46B1FBF2F102FB1145B5
S1131D802D0445EA1045B5FBF2F402FB145580B26C
S1131D9040EA0545B5FBF2F002FB105240EA04406C
S1131DA070BD0000431A4FF000423EBF5340C01ABA
S1131DB0C91800BFD3095FEAD05C13EB400F34BFEE
S1131DC0B3EB410F40E07CEBD1530CD342EA012149
S1131DD022D8D1EB402009D3400A28BF5FEA500142
S1131DE040EBCC507047401A15D04002B0FA80F254
S1131DF0521C9040400A4FEA3C23B3EB026384BF79
S1131E0000EB730007E040F400001A16DB07C2F190
S1131E100102D04018437047182BFCDC31FA03F25E
S1131E2002FA03F3591A38BF42F00102D2EB402000
S1131E303CBF4000ACF1010C5FEACC5CC20572F11E
S1131E4000414CEB5020704713EB400F0FD24B0076
S1131E5009D0ACEBD153022B03DB4902172BDDDD98
S1131E6070479143401A4300D5D10020704713EBCB
S1131E70410FD0D36FF0000070470000704700009E
S1131E8010B500244FF48070DFF8481508604FF453
S1131E908070DFF844150860DFF84005006850F0F2
S1131EA00200DFF838150860DFF83005006850F0EC
S1131EB00100DFF828150860DFF82405006830F019
S1131EC00200DFF81C150860DFF8140500684008FC
S1131ED04000DFF80C150860E4B2322C06DA641C0A
S1131EE000F006F80128F7D1012000E0002010BD21
S1131EF010B5002401210C2000F008FA002801D1BB
S1131F00002060E00020DFF8DC1408600120DFF826
S1131F10D41408605FF0FF30DFF8CC140968401A6D
S1131F20DFF8C8140968B0FBF1F042F2117188427D
S1131F30F0D300210C2000F0E9F9002801D10020A1
S1131F4041E00020DFF89C1408600120DFF89414BD
S1131F5008605FF0FF30DFF890140968401ADFF87A
S1131F608C140968B0FBF1F043F699218842F0D350
S1131F70002400E0641CA12C24D20020DFF86414A7
S1131F8008600120DFF85C1408605FF0FF30DFF8C0
S1131F9058140968401ADFF854140968B0FBF1F0CA
S1131FA0B0F5FA6FF1D9DFF8480410EBC4004168CA
S1131FB0DFF83C0450F8340000F0A8F90028D9D127
S1131FC0002000E0012010BDDFF81404006850F088
S1131FD00100DFF80C1408600020DFF80814086022
S1131FE00120DFF8001408605FF0FF30DFF8F81319
S1131FF00968401ADFF8F4130968B0FBF1F01028FF
S1132000F2D3DFF8DC03006850F00200DFF8D013ED
S113201008600020DFF8CC1308600120DFF8C41347
S113202008605FF0FF30DFF8C0130968401ADFF87A
S1132030BC130968B0FBF1F01028F2D3DFF8A00359
S1132040006840084000DFF8981308600020DFF8BB
S1132050941308600120DFF88C1308605FF0FF30F0
S1132060DFF884130968401ADFF880130968B0FBAD
S1132070F1F01028F2D3DFF86803006830F00200B2
S1132080DFF85C1308600020DFF8581308600120B3
S1132090DFF8501308605FF0FF30DFF84C13096875
S11320A0401ADFF848130968B0FBF1F01028F2D3A6
S11320B07047DFF82C03006840084000DFF8201365
S11320C008600020DFF81C1308600120DFF81413F7
S11320D008605FF0FF30DFF810130968401ADFF87A
S11320E00C130968B0FBF1F01028F2D3DFF8F0020A
S11320F0006850F00200DFF8E81208600020DFF802
S1132100E41208600120DFF8DC1208605FF0FF30A1
S1132110DFF8D4120968401ADFF8D0120968B0FB5E
S1132120F1F01028F2D3DFF8B802006850F0010093
S1132130DFF8AC1208600020DFF8A8120860012064
S1132140DFF8A01208605FF0FF30DFF89C12096826
S1132150401ADFF898120968B0FBF1F01028F2D3A6
S11321607047002157E0DFF87822126852085200C5
S1132170DFF86C321A600022DFF868321A6001223C
S1132180DFF860321A605FF0FF32DFF85C321B6800
S1132190D21ADFF858321B68B2FBF3F20F2AF2D3DB
S11321A0DFF83C22126852F00202DFF834321A607F
S11321B00022DFF830321A600122DFF828321A6078
S11321C05FF0FF32DFF820321B68D21ADFF81C32CE
S11321D01B68B2FBF3F2102AF2D3DFF80422126870
S11321E032F00202DFF8F8311A600022DFF8F4312D
S11321F01A600122DFF8EC311A605FF0FF32DFF879
S1132200E8311B68D21ADFF8E4311B68B2FBF3F241
S1132210022AF2D3491CC9B208290DDAC0B210FA55
S113222001F212069FD5DFF8B821126852F00102BC
S1132230DFF8AC311A609EE70020DFF8A8110860CF
S11322400120DFF8A01108605FF0FF30DFF898117B
S11322500968401ADFF894110968B0FBF1F0062808
S1132260F2D3DFF878010068400840005B49086059
S113227000205C49086001205A4908605FF0FF3083
S113228059490968401A59490968B0FBF1F00B280B
S1132290F4D35348006850F002005149086000200C
S11322A05049086001204F4908605FF0FF304E49F3
S11322B00968401A4D490968B0FBF1F01A28F4D3B3
S11322C04C480068C00701D5002000E001204449C3
S11322D0096831F00201424A11600021414A11604B
S11322E00121404A11605FF0FF313F4A1268891AA8
S11322F03E4A1268B1FBF2F10B29F4D3374909685D
S113230051F00101354A1160C0B2704738B504007C
S11323100D00FFF759FE9020FFF723FF002803D19B
S1132320FFF7C7FE002053E000202E49086001207B
S11323302C4908605FF0FF302B490968401A2B498B
S11323400968B0FBF1F01528F4D32000C0B2FFF700
S113235008FF002803D1FFF7ACFE002038E000207E
S11323602049086001201F4908605FF0FF301E49C2
S11323700968401A1D490968B0FBF1F01528F4D327
S1132380280AC0B2FFF7EDFE002803D1FFF791FE43
S113239000201DE000201349086001201149086055
S11323A05FF0FF3010490968401A10490968B0FB12
S11323B0F1F01528F4D32800C0B2FFF7D2FE0028AC
S11323C003D1FFF776FE002002E0FFF772FE012042
S11323D032BD000004D0044000D0044014F10F408A
S11323E000F10F4038710340347103407004FF1F43
S11323F0F823000010F10F4015000000327F0000A8
S113240020000000D1010000700000000400000062
S113241073000000F7020000C2000000400000004A
S11324201C00000003000000310000001F00000039
S1132430320000001A000000330000001200000007
S1132440AF000000000000002B00000003000000AB
S113245010000000400000000F0000001100000008
S113246015000000327F00001C0000000200000084
S11324700100000019000000020000000400000038
S113248003000000E001000004000000F00200006E
S11324900500000064000000060000001F000000AA
S11324A0070000008803000008000000C8000000C6
S11324B009000000960000000A000000640100000A
S11324C00B000000FA0000000C00000000000000F7
S11324D00D000000050300000E00000000000000D5
S11324E00F00000011000000100000002D0000008B
S11324F011000000428000001200000022000000D1
S113250013000000320E000014000000020E000050
S113251015000000320E0000160000000228000022
S113252017000000383E000018000000383E00008C
S113253019000000022800001A000000280400000E
S11325401B000000000000001C000000020000004E
S11325501D000000000000001E000000000000003C
S11325601F00000000000000200000001100000017
S113257021000000200000002200000020000000D4
S113258023000000100000002400000010000000E0
S113259025000000200000002600000010000000BC
S11325A027000000100000002800000010000000B8
S11325B029000000100000002A0000002000000094
S11325C02B000000040000002C00000004000000A8
S11325D02D000000040000002E0000000700000091
S11325E02F00000004000000300000000300000081
S11325F0310000001D00000032000000180000003F
S11326003300000015000000340000000400000046
S113261035000000400000003600000040000000CB
S11326203700000000000000380000000000000037
S1132630460000001D2300004700000080800000C9
S11326404C000000020000006000000000000000D8
S113265061000000000000006200000000000000B3
S1132660630000000000000064000000000000009F
S1132670650000000000000066000000000000008B
S113268067000000000000006C0000000000000073
S11326907000000034000000710000000000000021
S11326A072000000DE00000073000000F70200006A
S11326B074000000000000007F0000000000000023
S11326C080000000F400000081000000F40000001D
S11326D082000000F400000083000000F400000009
S11326E084000000F400000085000000F4000000F5
S11326F086000000F400000087000000F4000000E1
S113270088000000F400000089000000F4000000CC
S11327108A000000F40000008B000000F4000000B8
S11327208C000000F40000008D000000F4000000A4
S11327308E000000F40000008F000000F400000090
S113274090000000F400000091000000F40000007C
S113275092000000F400000093000000F400000068
S113276094000000F400000095000000F400000054
S113277096000000F400000097000000F400000040
S113278098000000F4000000990000000000000020
S11327909A000000960000009B0000002C0100003D
S11327A09C000000C20100009D00000058020000CF
S11327B09E000000F00200009F00000000000000E6
S11327C0A000000060000000A1000000C0000000A4
S11327D0A200000020010000A3000000800100000E
S11327E0A4000000E0010000A50000003A00000081
S11327F0A600000002000000A70000000000000086
S1132800A800000000000000A90000000200000071
S1132810AA00000000000000AB000000020000005D
S1132820AF00000003000000B0000000E0AB0000B7
S1132830B100000002000000B2000000100000001F
S1132840B300000010000000B4000000000000000D
S1132850B500000000000000B60000000000000009
S1132860B700000000000000BD00000004010000EB
S1132870BE00000014000000BF00000016000000AD
S1132880C00000000A000000C20000004018000060
S1132890C300000000000000C40000001644000053
S11328A0C500000021440000F10000000000000009
S11328B0FE000000EFBE00007400000008000000ED
S11328C00000000000000000000000000000000004
S11328D000000000000000000000000000000000F4
S11328E000000000000000000000000000000000E4
S11328F000000000000000000000000000000000D4
S1132900DFF800F01104FF1F80B5C0B2002816D014
S1132910C0B2012813D0C0B2022810D0C0B203281C
S11329200DD0C0B204280AD0C0B2052807D0C0B266
S1132930062804D0C0B2072801D00020AEE000224F
S1132940624B1A70624A126852F08052604B1A60ED
S1132950604A127852F080025E4B1A7098225E4BE5
S11329601A705E4A1278D206FBD45C4A1278C2F31B
S11329708102D2B2022AF8D1C0B2072808D0C0B26C
S1132980022805D0C0B2032802D0C0B2042803D163
S11329900122534B1A7002E00322514B1A70002299
S11329A0504B1A70C0B200280BD002281FD013D38A
S11329B0042832D026D3062845D039D307284DD051
S11329C056E00123002200210020FFF799FF412057
S11329D04449087032214BE00323012201210020E5
S11329E0FFF78EFF5A203F490870642140E004231A
S11329F0012201210020FFF783FF5020394908708C
S1132A00A02135E00523012201210020FFF778FFF2
S1132A10552034490870B4212AE0052301220121FC
S1132A200020FFF76DFF5A202E490870C8211FE0CF
S1132A300123002200210020FFF762FF40202949E2
S1132A400870302114E00323012201210020FFF744
S1132A5057FF582023490870602109E0042301220C
S1132A6001210020FFF74CFF48201E4908708021F7
S1132A701A4800788006FBD5184800784006FBD534
S1132A801548007810F03F00134A1070134800787E
S1132A90C0F38100C0B20328F8D1080002BD124877
S1132AA0006850F48050104908604FF4E0600F490A
S1132AB0086070470E48006850F001000C49086037
S1132AC04FF4A0600B4908607047000001400640C5
S1132AD03480044008C007400040064006400640D9
S1132AE00440064005400640048004401890044019
S1132AF0408004400CB004404FF480704D4908609D
S1132B004FF480704C4908604FF480704B49086062
S1132B104FF480704A4908604FF480704949086056
S1132B204FF48070484908604FF48070474908604A
S1132B304FF48070464908604FF48070454908603E
S1132B404FF48070444908604FF480704349086032
S1132B50082005E04FF48171414A42F82010401CDE
S1132B601028F7DB3F48006830F040003D4908601A
S1132B703D48006830F004003B4908603A4800686A
S1132B8030F01000384908603748006830F04000E1
S1132B90354908603548006830F4007033490860EE
S1132BA03348006850F02000314908602E4800681E
S1132BB050F080602C4908602B48006850F00800F1
S1132BC0294908602848006850F020002649086018
S1132BD02548006850F08070234908602248006846
S1132BE050F00070204908602248006850F020002E
S1132BF0204908602048006850F080601E49086041
S1132C001D48006850F008001B4908601A48006815
S1132C1050F02000184908601748006850F0807090
S1132C20154908601448006850F0007012490860A3
S1132C30704700BF18C0044008D0044010D00440BE
S1132C4018D0044014B0044068D004400CD00440B0
S1132C5014D0044060D0044064D0044024A0044054
S1132C6000B00440D4F00F4014F10F4054F00F4072
S1132C7094F00F4080F00F4000F10F4080B500F059
S1132C8003F800F047F801BD3C48006850F080703C
S1132C903A49086004203A4908600020394908602C
S1132CA0002039490860002038490860002038496C
S1132CB00860002037490860002037490860002078
S1132CC0364908600020364908600020354908600C
S1132CD00020354908600020344908604FF47A70B8
S1132CE03349086028202F490860002031490860D2
S1132CF04FF48060304908600A20224908604FF48C
S1132D00FA702C4908602D48006850F400702B4973
S1132D10086070472A48006850F0807028490860AD
S1132D20042028490860002027490860002027491A
S1132D300860002026490860002026490860002019
S1132D402549086043F2D400244908602820214919
S1132D5008600020224908604FF44070214908604F
S1132D600D201949086042F21D401D4908601E48A3
S1132D70006850F400701C49086070473C800440AF
S1132D8054800340008003404C800340048003408F
S1132D900C800340148003401C80034024800340C3
S1132DA02C800340348003403C8003404480034033
S1132DB0088003403880034014C0044098800340D6
S1132DC03080044054800B4000800B404C800B400A
S1132DD004800B400C800B4014800B4008800B4097
S1132DE010800B4048A0044098800B4080B500F050
S1132DF055F800F005F800F06DF800F0A3F8FEE7D0
S1132E0080B51C481C4988420BD0002006E01A49B2
S1132E1051F82010174A42F82010401CB0F5826F78
S1132E20F5DB144800F0B8F81449154A1548801A1F
S1132E3003E013780B70521C491C0300581E012B2D
S1132E40F7DA11491148401A02E000220A70491CBD
S1132E500200501E012AF8DA0D490E4A0E48801A63
S1132E6003E013780B70521C491C0300581E012BFD
S1132E70F7DA01BD0000FF1F000000005C04FF1F23
S1132E80DC320000E43200006404FF1F4A2FFF1FFD
S1132E901004FF1FCC3100001832000080B500F090
S1132EA009F80A4800884FF6FE710840074908806F
S1132EB001BD000072B64CF22050054908804DF661
S1132EC028100349088062B67047000000200540BE
S1132ED00E20054080B51548006850F47850134919
S1132EE008600720FFF710FD1149086010480068CA
S1132EF04FF47A7148430F4908600E4800680E4940
S1132F000968C1F30361491CB0FBF1F00B49086087
S1132F100A4800684FF47A7190FBF1F008490860A0
S1132F20FFF7BDFDFFF7C6FD01BD00BF38800440BB
S1132F306804FF1F6404FF1F448004406C04FF1FE7
S1132F407004FF1F80B572B600F02CF800200D4904
S1132F50086001200B4908605FF0FF300A490968E6
S1132F60401A0A490968B0FBF1F009498842F3D3D1
S1132F70FDF76CFA62B6074800780228FBD1FDF72A
S1132F80E2FAF8E738710340347103407004FF1F1C
S1132F9041420F00462FFF1F01490860704700009F
S1132FA008ED00E080B5FFF7A7FDFFF767FE00F02E
S1132FB02BF8FEF74DFB00F06DF8FEF775FC00F002
S1132FC0A3F800F0D5F800200B49086001200A4955
S1132FD008605FF0FF3009490968401A0849096828
S1132FE0B0FBF1F007498842F3D3FEF749FF00280C
S1132FF000D1FEE701BD00BF3871034034710340C6
S11330007004FF1F81841E001748006850F40000FC
S113301015490860002015490860154800684021DA
S113302048431930134908600020134908607FF0B1
S11330301F00124908600020114908600C4800680C
S11330404FF47A6148430F49086000200E49086034
S113305003200D4908607FF01F000C490860002020
S11330600B490860704700BF3C8004400070034077
S11330707004FF1F00710340087103401071034086
S113308018710340207103402871034030710340DC
S1133090387103404FF4C060114908604FF4C060B8
S11330A0104908601048006850F000700E4908602C
S11330B005200E49086000200D49086000200D49D4
S11330C008604FF6FF700C49086019200B4908602E
S11330D0C1200B490860FF200A490860704700BFFF
S11330E000A0044004A004403C80044054900340E9
S11330F04C90034004900340089003400090034028
S113310080900340789003404FF48070DFF85010B3
S113311008604FF48070DFF84C100860DFF8480056
S1133120006850F00400DFF840100860DFF8380051
S1133130006850F00800DFF830100860DFF82C0059
S1133140006850F00800DFF824100860DFF81C0065
S1133150006850F00400DFF81410086070470000A5
S11331600CA0044008A0044054F00F4040F00F406D
S1133170DFF84400006850F04000DFF83C100860BD
S11331804FF40070DFF8341008604FF40070DFF87B
S113319030100860DFF82800006850F02000DFF8E5
S11331A0201008606020DFF81C1008708020DFF811
S11331B018100870704700003480044008A00440D0
S11331C00CA00440016006400260064070B4104C3C
S11331D024680F4D2D6855F47F050D4E35600906A2
S11331E011F0706151EA0070110511F47001084387
S11331F0190411F47021084306490860002000E016
S1133200401CC0B29842FBD30148046070BC7047B4
S113321000F001404480044010B507497944183156
S1133220064C7C44163404E00A68081D511888478B
S11332300146A142F8D110BD2C0000003800000066
S113324005480068401C0449086004480078C0B27E
S113325003490860704700BF3C2FFF1F04ED00E0E6
S1133260382FFF1F4BE8FFFFE82A00006404FF1F0C
S11332700000000000F00BF8002801D0FFF7CCFF9D
S11332800020C046C046FFF75DFE00F002F80120B2
S1133290704700F001B800000746384600F002F815
S11332A0FBE7000080B5C046C046024A1100182062
S11332B0ABBEFBE726000200C046C046C046C0467F
S11332C0FFF7D8FFFE01FE01FE00000015161718D7
S11332D019000000FD02FD02FD0000005100000085
S10732E05100000095
S90332B911
