S00D0000736D6172742E73726563F0
S1130000F8FF002011040000BD370000BD370000D8
S1130010BD370000BD370000BD370000BD3700000C
S1130020BD370000BD370000BD370000BD370000FC
S1130030BD370000BD370000BD370000BD370000EC
S1130040BD370000BD370000BD370000BD370000DC
S1130050BD370000BD370000BD370000BD370000CC
S1130060BD370000BD370000BD370000BD370000BC
S1130070BD370000BD370000BD370000BD370000AC
S1130080BD370000BD370000BD370000BD3700009C
S1130090BD370000BD370000BD370000BD3700008C
S11300A0BD370000BD370000BD370000BD3700007C
S11300B0BD370000BD370000BD370000BD3700006C
S11300C0BD370000BD370000BD370000BD3700005C
S11300D0BD370000BD370000BD370000BD3700004C
S11300E0BD370000BD370000BD370000BD3700003C
S11300F0BD370000BD370000BD370000BD3700002C
S1130100BD370000BD370000BD370000BD3700001B
S1130110BD370000BD370000BD370000BD3700000B
S1130120BD370000BD370000BD370000BD370000FB
S1130130BD370000BD370000BD370000BD370000EB
S1130140BD370000BD370000BD370000BD370000DB
S1130150BD370000BD370000DB130000BD370000D1
S1130160BD370000BD370000BD370000BD370000BB
S1130170BD370000BD370000BD370000BD370000AB
S1130180BD370000BD370000BD370000BD3700009B
S1130190BD370000BD370000BD370000BD3700008B
S11301A0BD3700004D05000095050000BD37000077
S11301B0BD370000BD370000BD370000BD3700006B
S11301C0BD370000BD370000BD370000BD3700005B
S11301D0BD370000BD370000BD370000BD3700004B
S11301E0BD370000BD370000BD370000BD3700003B
S1130400FFFFFFFFFFFFFFFFFFFFFFFFFEFFFFFFF9
S11304104FF000004FF000014FF000024FF00003D6
S11304204FF000044FF000054FF000064FF00007B6
S11304304FF000084FF000094FF0000A4FF0000B96
S11304404FF0000C62B602F08FFFFEE780B500F0BB
S113045015F801F0D9F80020954908600020954965
S113046008600020934908600320924908605A20DC
S113047001F0A5F9592001F0A2F901BD8E488F4978
S113048008608F488F4908605FF07E508E4908608D
S11304908E48006840060FD58D48006830F008008B
S11304A08B4908608B488C4908608C488C490860EB
S11304B023208C49086044E08B48006840070FD52E
S11304C08348006830F020008149086087488249E9
S11304D0086082488249086023208249086030E02D
S11304E081480068C0060FD57948006830F08070F4
S11304F0774908607E4878490860784878490860F8
S11305002320784908601CE07748006840060FD52E
S11305106F48006830F000706D49086075486E4996
S113052008606E486E49086023206E49086008E040
S11305307148694908606948694908602320694924
S11305400860704780B500F0F5F801BD80B56B48D0
S1130550006850F0807069490860002054490860C0
S11305605A2001F02CF9052065490968644A12688B
S113057092FBF0F200FB1210002805D161480068DC
S113058090F020005F4908605D480068401C5C49A9
S1130590086001BD80B55C48006850F080705A491D
S11305A0086043480068401C414908605748007887
S11305B000280DD13E480068692874DB01205349A6
S11305C008700020524908600320524908606AE01C
S11305D04E480078012855D14D480068142806DBA0
S11305E04C480068032802D102204A490860304878
S11305F000682F490968474A126891FBF2F1454A9D
S1130600126802FB1100002834D10020424908601E
S11306100120414908605FF0FF3040490968401AF1
S11306203F490968B0FBF1F00628F4D33D48384946
S11306300968A22202FB01003B490860002006E091
S1130640491C0229FCDB00BF00BF00BF401CA228DC
S11306500BDA36490968090A354A116034490968D0
S1130660314A126881540021EBE729480068401C94
S113067027490860264800683C2814DB02202349E7
S1130680087010E02148007802280CD01F48007838
S1130690032808D15A2001F00AF9592001F08FF8F3
S11306A000201A490870462001F089F801BD0000B5
S11306B0E404FF1F28710340000016438004FF1F59
S11306C000008C428404FF1F8804FF1FD0F00F40F9
S11306D000F10F400000E040142FFF1F9A99193FCA
S11306E0182FFF1F102FFF1F10F10F406666E64002
S11306F0CDCCEC403333F3409A99F94018B0044020
S1130700F804FF1F80F00F4000C004403E2FFF1F7D
S1130710E804FF1FF404FF1F3871034034710340E1
S11307207004FF1FBC08FF1FF004FF1F90F00F4070
S1130730C02EFF1F2DE9F84F00210020DFF8D82C30
S113074010600020DFF8D42C10600020DFF8782D32
S113075010600120DFF8C82C1070002034E0DFF8AE
S1130760C42CDFF8B83C1B6822F82300DFF8B82C4F
S113077032F91120DFF8AC3CDFF8A04C246813EB0D
S113078084035A80DFF8942C1268521CDFF88C3CE6
S11307901A60DFF8382DDFF8303D1B6822F823009B
S11307A0DFF8882C32F91110DFF8202DDFF8183D1E
S11307B01B6812EB83025180DFF80C1D0968491C89
S11307C0DFF8042D1160401C3C2880F2FA800021DF
S11307D0DFF85C2C11800021DFF8582C1180DFF841
S11307E0F01CA22202FB001191F8A110AB2907DB37
S11307F00021DFF8342CDFF8383C1B8822F8131072
S1130800A1271AE0DFF8C81CA22202FB0011791804
S113081011F8011CAB291ADAD7F1A201DFF80C2C6C
S1130820DFF80C3C1B8822F81310DFF8041C09883D
S1130830491CDFF8FC2B11807F1E012F34DBDFF80D
S1130840901CA22202FB0011795CAB29DADADFF8F2
S1130850801CA22202FB0011795CAB291ADADFF8B2
S1130860701CA22202FB0011791811F8011CAB299B
S113087010DBD7F1A101DFF8B02BDFF8B43B1B8804
S113088022F81310DFF8AC1B0988491CDFF8A42BED
S11308901180D1E7DFF8981B09880A2904DADFF808
S11308A0941B09880A29C7DBDFF8241CA22202FB57
S11308B000110978AB2913DBDFF8741B09880A29B6
S11308C00EDAA121DFF8642BDFF8643B1B8822F8E1
S11308D01310DFF85C1B0988491CDFF8542B1180C6
S11308E0DFF83C1B0978002966D00022DFF8401BA2
S11308F0098800293FF467AFDFF8301B0988DFF867
S1130900283B1B88C91A012715E0DFF8203B33F880
S11309101730DFF8144B34F817401B1B8B4209DBEC
S1130920DFF8081B31F81710DFF8FC2A32F817201B
S1130930891A3A007F1CDFF8F83A1B889F42E4DBEF
S11309403D29FFF640AF0021DFF8D43A1970DFF8F3
S1130950D41ADFF8C83A1B6821F82300DFF8C81A54
S113096031F91210DFF8BC3ADFF8B04A246813EB0F
S113097084035980DFF8A41A0968491CDFF89C3AFB
S11309801960DFF8481BDFF8403B1B6821F823009F
S1130990DFF8981A31F91210DFF8302BDFF8283B12
S11309A01B6812EB83025180DFF81C1B0968491C89
S11309B0DFF8142B116006E7DFF8741A09880029A0
S11309C02FD1DFF8040B0068DFF84C1A086000250B
S11309D000265FF000085FF000090024DFF8440AF5
S11309E0DFF8341A096810EB810030F9020CDFF8E3
S11309F0341AB1F90210401A002800F11081DFF80E
S1130A00240ADFF8141A096810EB810030F9020C8B
S1130A10DFF8101AB1F90210401ADFF84C1B086015
S1130A200EE100270021DFF8442B11701FE0DFF8EE
S1130A30F429DFF8E8391B6812EB830232F9022C3F
S1130A40891ADFF82C2B1160DFF8241B09680029B0
S1130A500CD4DFF8201BDFF8142B12785754DFF87E
S1130A600C1B0978491CDFF8042B11707F1CDFF87C
S1130A70C01909888F4230DADFF8B01931F817103D
S1130A80DFF8482ADFF8403A1B6812EB830232F998
S1130A90022C914204DADFF8941931F8171008E0B7
S1130AA0DFF8281ADFF8202A126811EB820131F9E5
S1130AB0021CDFF8742932F81720DFF86839DFF8F0
S1130AC05C49246813EB840333F9023C9A42AEDB9D
S1130AD0DFF8542932F81720B2E7DFF8901A0978C2
S1130AE001293AD1DFF83C19DFF83029126821F8DE
S1130AF02200DFF83419DFF87C2A127831F9121059
S1130B00DFF82029DFF814391B6812EB83025180C7
S1130B10DFF808190968491CDFF800291160DFF8BB
S1130B20AC19DFF8A429126821F82200DFF8FC18B8
S1130B30DFF8402A127831F91210DFF89029DFF833
S1130B4088391B6812EB83025180DFF87C1909682D
S1130B50491CDFF87429116035E6DFF8101A0978AA
S1130B6000293FF42EAF0021DFF8BC28DFF8043A57
S1130B701B7832F81320DFF8B438DFF8F84924780A
S1130B8033F8143013FA82F2022392FBF3F2DFF803
S1130B909438DFF88848246813EB840333F9023C63
S1130BA0DFF82849DFF820592D6814EB850434F95F
S1130BB0024C04FA83F3022493FBF4F39C1A002CF2
S1130BC001D49C1A00E0D41A012702E09C1A3900CF
S1130BD07F1CDFF8982912789742BFF6C0ADDFF882
S1130BE04828DFF890597D5D32F81520DFF83C582D
S1130BF0DFF88069BE5D35F8165015FA82F20225D9
S1130C0092FBF5F2D51A002D01D4D51A00E09D1AF5
S1130C10A542DDDAD11A0029D8D4D41AD7E7DFF8EF
S1130C200408B0F90200DFF8FC17DFF8EC271268BB
S1130C3011EB820131F9021C401ADFF82C1908600B
S1130C40DFF88808DFF8D017096810EB810030F965
S1130C50020CDFF87818B1F90210401A002811D4F8
S1130C60DFF86808DFF8B017096810EB810030F985
S1130C70020CDFF85818B1F90210401ADFF8F8181E
S1130C80086010E0DFF84408B0F90200DFF83C180F
S1130C90DFF88427126811EB820131F9021C401A33
S1130CA0DFF8D4180860002011E0DFF8781711EBA2
S1130CB08001B1F902100B2908DADFF8101811EBE2
S1130CC08001B1F90210962900DB641C401CDFF896
S1130CD0481709688842E8DB00200CE0DFF8EC17CD
S1130CE011EB8001B1F90210962903DB6D1C012D73
S1130CF000D18146401CDFF82017096888420CDACD
S1130D00DFF8201711EB8001B1F902100B29E5DAA5
S1130D10761C012EEED18046ECE7DFF8FC06006875
S1130D20152801DB142002E0DFF8EC060068864297
S1130D3001DB0B2D0BDBDFF8400800686428C0F2F0
S1130D409180DFF824080068332880F28B80B8F1A2
S1130D50040F44DA0027DFF8C0060068874280F2F7
S1130D604981DFF8680710EB8700B0F90200DFF86B
S1130D70B41611EB8701B1F90210401A022190FB5D
S1130D80F1F0DFF8481731F82710DFF8F02722F8E0
S1130D902710DFF8381711EB8701B1F90210081A90
S1130DA000F0FEFD80468946DFF8200730F9270071
S1130DB000F0F6FDDFF8C827DFF8C83700F006FEBC
S1130DC002000B004046494600F0E2FE00F0A0FF9E
S1130DD0DFF8A81711EB870148807F1CBBE70027C9
S1130DE0474580F20781DFF8E40610EB8700B0F98D
S1130DF00200DFF8301611EB8701B1F90210401A36
S1130E00022190FBF1F0DFF8C41631F82710DFF867
S1130E106C2722F82710DFF80C1611EB8701B1F9C3
S1130E20021000FA81F000F0BBFD82468B46DFF829
S1130E309C0630F9270000F0B3FDDFF84427DFF803
S1130E40443700F0C3FD02000B005046594600F041
S1130E509FFE00F05DFFDFF8241711EB8701488047
S1130E607F1CBDE70B2E0BDADFF8AC0500681528F4
S1130E7001DB142002E0DFF8A005006885420BDAEC
S1130E80DFF8E40600686428C0F28E80DFF8E80624
S1130E900068332880F28880B9F1040F45DA00270E
S1130EA0DFF874050068874280F2A480DFF81C062E
S1130EB010EB8700B0F90200DFF8681511EB870129
S1130EC0B1F90210401A022190FBF1F0DFF8FC1591
S1130ED031F82710DFF8A42622F82710DFF844158C
S1130EE011EB8701B1F9021000FA81F000F058FD0E
S1130EF080468946DFF8D40530F9270000F050FD1C
S1130F00DFF87C26DFF87C3600F060FD02000B0081
S1130F104046494600F03CFE00F0FAFEDFF85C165D
S1130F2011EB870148807F1CBAE700274F4561DA3F
S1130F30DFF8980510EB8700B0F90200DFF8E4143D
S1130F4011EB8701B1F90210401A022190FBF1F074
S1130F50DFF8781531F82710DFF8202622F827105B
S1130F60DFF8681511EB8701B1F90210081A00F0D7
S1130F7017FD82468B46DFF8540530F9270000F050
S1130F800FFD5FF03332DFF8003600F01FFD5246EC
S1130F905B4600F0E3FE00F0BBFEDFF8E01511EB6A
S1130FA0870148807F1CC1E700271EE0DFF81C058D
S1130FB030F82700DFF8C41521F82700DFF80C0506
S1130FC010EB8700B0F90200DFF8581411EB870129
S1130FD0B1F9021001FA80F0022190FBF1F0DFF880
S1130FE09C1511EB870148807F1CDFF8DC04006846
S1130FF08742DBDB0A2C29DB152E27DB152D25DBAD
S113100000271EE0DFF8C40430F82700DFF86C1571
S113101021F82700DFF8B40410EB8700B0F90200D0
S1131020DFF8001411EB8701B1F9021001FA80F026
S1131030022190FBF1F0DFF8441511EB87014880A1
S11310407F1CDFF8840400688742DBDB0020DFF8C4
S11310503C1508600020DFF838150860002726E0FA
S1131060DFF8180510EB8700B0F90200001EA32872
S11310701CD2DFF81C050068DFF8001531F92710D1
S11310804018DFF80C150860DFF800050068DFF889
S1131090EC1411EB8701B1F90210DFF8E02432F906
S11310A0272011FB0200DFF8E41408607F1CDA48F3
S11310B00068322802DAD848006800E0322087420B
S11310C0CEDBDFF8CC04006801280ADBDFF8BC04BF
S11310D00068DFF8BC14096890FBF1F0DFF8B41481
S11310E00860DFF8B0040068002804D50020DFF8A9
S11310F0A414086008E0DFF89C040068A32803DB5C
S1131100A220DFF890140860DFF888040068DFF894
S113111088140968401A002807D4DFF878040068A6
S1131120DFF874140968401A06E0DFF86C040068FC
S1131130DFF860140968401A5B2805DBDFF85804FF
S11311400068DFF85014086000F0C4F9DFF84C04BC
S11311500078002800F026810521DFF8440400F01F
S113116037FF42F6D31424B24FF4807194FBF1F0AC
S113117000FB1140C0B200F024FF24B24FF4807091
S113118094FBF0F0C0B200F01CFFDFF81804B0F9D3
S1131190004024B24FF4807194FBF1F000FB114045
S11311A0C0B200F00EFF24B24FF4807094FBF0F054
S11311B0C0B200F006FF3C2424B24FF4807194FBCB
S11311C0F1F000FB1140C0B200F0FBFE24B24FF47A
S11311D0807094FBF0F0C0B200F0F3FEA22424B2BD
S11311E04FF4807194FBF1F000FB1140C0B200F0A9
S11311F0E8FE24B24FF4807094FBF0F0C0B200F02B
S1131200E0FEAA2424B24FF4807194FBF1F000FBB9
S11312101140C0B200F0D5FE24B24FF4807094FBAC
S1131220F0F0C0B200F0CDFE502424B24FF480712F
S113123094FBF1F000FB1140C0B200F0C2FE24B2F6
S11312404FF4807094FBF0F0C0B200F0BAFE50246A
S113125024B24FF4807194FBF1F000FB1140C0B252
S113126000F0AFFE24B24FF4807094FBF0F0C0B2F3
S113127000F0A7FE42F2F851954800F0A9FEC548D7
S1131280046824B24FF4807194FBF1F000FB114028
S1131290C0B200F096FE24B24FF4807094FBF0F0DC
S11312A0C0B200F08EFE5D48046824B24FF4807131
S11312B094FBF1F000FB1140C0B200F082FE24B2B6
S11312C04FF4807094FBF0F0C0B200F07AFE002777
S11312D00DE00221534810EB870000F079FE022153
S11312E0504810EB8700801C00F072FE7F1C502FCA
S11312F0EFDB7548046824B24FF4807194FBF1F07D
S113130000FB1140C0B200F05CFE24B24FF48070C8
S113131094FBF0F0C0B200F054FE00270DE002216F
S11313206A4810EB870000F053FE0221674810EB77
S11313308700801C00F04CFE7F1C502FEFDB3648EA
S1131340046824B24FF4807194FBF1F000FB114067
S1131350C0B200F036FE24B24FF4807094FBF0F07B
S1131360C0B200F02EFE00270DE00221834810EBEE
S1131370870000F02DFE0221804810EB8700801CBE
S113138000F026FE7F1C502FEFDB0521864800F07D
S11313901FFE0521854800F01BFE82480088401C82
S11313A08049088003208249087082480068401CF4
S11313B08049086005207F4909687E4A126892FBCB
S11313C0F0F200FB1210002805D17B48006890F071
S11313D0806079490860BDE8F18F80B501207749C4
S11313E00860002076490860032075490860754844
S11313F0006800B2744908600020724908607248AD
S113140000687249486000F017F871480068401C91
S11314106F49086001BD0000B42EFF1FB82EFF1FE6
S11314203F2FFF1F3C06FF1FC42EFF1FD82EFF1F98
S1131430382FFF1F3A2FFF1F80B565480068B0F5AD
S11314407A7F02DD002063490860624800684042F8
S11314505E4908605D4800F037F95F4908605E48FE
S11314600068B0F57A7F04DD4FF47A705A49086059
S113147007E05948006810F57A7F02DA5748564960
S1131480086055480068022190FBF1F010F5FA70ED
S1131490002807D450480068022190FBF1F010F5B1
S11314A0FA7007E04C480068022190FBF1F010F557
S11314B0FA70404280B24A4908604A48006850F4D1
S11314C000704849086001BDBC2EFF1F7C07FF1F48
S11314D0BC08FF1F10B52F480068D0F151004249E5
S11314E008604148006800F099FD4049096800F02F
S11314F0ADFD3F4900F016FE04003B4800683D493D
S11315000968401A00F08AFD3B49096800F09EFD15
S1131510210000F007FE00F047FE38490860324819
S11315200068344908603548006842F21F31884237
S113153004DA42F21E303149086009E02F4800689D
S113154042F29451884203DB42F294502B490860E2
S11315502A48006880B22A4908602A48006850F482
S113156000702849086010BD242FFF1F402FFF1F63
S1131570EC2EFF1FF02EFF1F282FFF1FFC04FF1F60
S11315809A9999999999D93F3333D33FFC2EFF1FE8
S1131590002FFF1F5C04FF1F6004FF1F412FFF1F6C
S11315A0403800003C2FFF1F48380000503800002E
S11315B03E2FFF1FEC04FF1F00F10F402C7103406E
S11315C028710340049003401C2FFF1F8C04FF1F4D
S11315D02C2FFF1F102FFF1F202FFF1F18FCFFFFB2
S11315E03880034098800340042FFF1F142FFF1FEF
S11315F000C00F46082FFF1F182FFF1F0C2FFF1FBF
S113160010800B4098800B4080B500F003F800F088
S113161024F801BD002022490860002020494860C8
S113162000201F49886000201D49C8601D480068CB
S11316301B4908611C480068194948611B48006837
S1131640174988614FF47A701549C86118481449DC
S1131650086200201249886270470020154908601A
S11316600020144948600020124988600020114974
S1131670C860114800680F490861104800680D49A6
S113168048610F4800680B4988614FF4D2700949DA
S1131690C8610C480749086200200649486270473F
S11316A08C04FF1F8004FF1F8404FF1F8804FF1F96
S11316B018FCFFFFB804FF1F7404FF1F7C04FF1F06
S11316C07804FF1F5CFEFFFF2DE9F0410400206851
S11316D06168451AA068281AE168461AA560E060A6
S11316E0291E012920D3A76A00F098FC216900F083
S11316F0ADFC8046280000F091FC616900F0A6FC76
S1131700414600F00FFD0500300000F087FCA169A0
S113171000F09CFC290000F005FD00F045FD0A21C5
S113172090FBF1F0C019A062A06AE169884202DB73
S1131730E069A06205E0206AA16A884201DB206AB0
S1131740A062A06ABDE8F08180B57D487D4908604B
S11317507B487D4908607D480068400840007B491B
S113176008607B48006830F040007949086075489B
S1131770006850F08070734908607348006850F046
S1131780807071490860F02080F31188592000F0BE
S113179016F85A2000F013F8462000F010F8032140
S11317A0592000F0EFF804215A2000F0EBF805214D
S11317B0462000F0E7F8602080F3118801BD10B4E2
S11317C0011E5C2971D2202190FBF1F1002905D082
S11317D0022937D01CD303294ED066E05D4909683D
S11317E00122202390FBF3F404FB1304A2401143D1
S11317F0584A1160584909680122202390FBF3F4E8
S113180004FB130412FA04F00843534908604CE043
S1131810524909680122202390FBF3F404FB1304CA
S1131820A24011434D4A11604D4909680122202309
S113183090FBF3F404FB130412FA04F00843484940
S1131840086032E0474909680122202390FBF3F441
S113185004FB1304A2401143424A1160424909683F
S11318600122202390FBF3F404FB130412FA04F086
S113187008433D49086018E03C49096801222023D7
S113188090FBF3F404FB1304A2401143374A1160A4
S1131890374909680122202390FBF3F404FB130465
S11318A012FA04F008433249086010BC704710B4BF
S11318B0011E5C2941D2202190FBF1F1002905D0C1
S11318C002291FD010D303292AD036E029490968F8
S11318D00122202390FBF3F404FB130412FA04F016
S11318E008432449086028E0234909680122202389
S11318F090FBF3F404FB130412FA04F008431E49AA
S113190008601AE01D4909680122202390FBF3F4C2
S113191004FB130412FA04F00843184908600CE0AD
S1131920174909680122202390FBF3F404FB1304F4
S113193012FA04F008431249086010BC7047000012
S113194000010A0018B0044000C0044094F00F40A5
S1131950D4F00F4080E200E000E100E084E200E027
S113196004E100E088E200E008E100E08CE200E04D
S11319700CE100E080E100E084E100E088E100E0C7
S11319808CE100E0021E5C2A02D20A1E102A00D357
S113199005E000F1604010F56440090101707047F2
S11319A0010040F10780F446404200F003F851F092
S11319B00041604709D0B0FA80F18840C91CC1F5E4
S11319C08461090501EBD02140057047B0B581EA77
S11319D0030C0CF0004C40F2FF7515EA11541DBFC6
S11319E015EA1357AC42AF4239E0E41923EA4553F0
S11319F043F48013C90241F0004141EA505EC7023A
S1131A001100A7FB020200284FF00000EEFB0120AA
S1131A104FF00001E3FB072118BF42F00102401818
S1131A2000214941E3FB0E01A4F580640F0302D2B7
S1131A3052004041494154F101046CDD470872F100
S1131A40004250F1000051EB0451A1F580115CBF3C
S1131A5041EA0C01B0BD4CEA05510020B0BD05EAD5
S1131A601357AC4214BFAF4241E050EA410E1CBFD1
S1131A7052EA430E02E061460020B0BD24423C44D9
S1131A801BD15FEA070EF6D0090302BF014600200E
S1131A90AEF1140EB1FA81F7AEEB070401FA07FEBA
S1131AA00C37C7F1200100FA07F7C8404EEA000ED0
S1131AB023EA455343F48013A2E733F00043B3FA17
S1131AC083F704BFB2FA82FE77440B3FE41BB7F1FD
S1131AD0200E2FBF02FA0EF3BB40C7F1200E22FAEC
S1131AE00EFE38BF43EA0E03BA40641C82E750EA94
S1131AF0410E14BF52EA430E6FF000014FF4001779
S1131B0017EB430F8ABF194617EB410FB5E74CEAB1
S1131B1005510020B0BDD4F10104B4F120070FDA5F
S1131B20C4F12007520828BF42F0010210FA07F559
S1131B3001FA07F7E1BF2A43E0403843E1400FE0F0
S1131B40352C98DCC7F1200452EA400220FA07F24F
S1131B5018BF42F0010231FA07F0A1400A43002104
S1131B6072F1004250F1000051EB0C01B0BD50F88D
S1131B70041B61B150F8042BD30744BFA9F101033E
S1131B809A18002342F8043B091FFAD1EFE7704783
S1131B9070B44FF0004591EA030F44BF6B4000F06E
S1131BA0E7B800BF841A71EB030604D26E40001B31
S1131BB0B141121973414FF4001C1CEB410F34BFA7
S1131BC07CEB430684E00C0DA4EB1356362E7DDC2F
S1131BD0012E43DC45EAC32343EA525312BFD20227
S1131BE092025B08240545EAC12141EA5051D2EB37
S1131BF0C020994125D407D1B0FA80F610FA06F135
S1131C0064D00020203608E0B1FA81F6B140C6F174
S1131C10200220FA02F21143B0404FEAF474B4EB0C
S1131C20465434F001064FEA74040AD8D6F5001677
S1131C30760D04F00044F04061FA06F25040F140A1
S1131C404840C00A40EA415021F0004128BF5FEA01
S1131C50500550F1000044EBD12137E045EAC3239D
S1131C60DB0A45EAC121C90AB6F120050EDD42EAC4
S1131C700242120CC5F1200603FA06F6EB4042EAD2
S1131C8006056D42984161F100010DE062FA06F526
S1131C90F240554063FA06FC82EA0C02F3405A40D3
S1131CA06D42904161EB030111F4801F05D1641E64
S1131CB0620502D06D004041494121F4801143087E
S1131CC075F1004350F1000041EB045170BC7047C2
S1131CD01CEB410F15D223F0004352EA43060BD00C
S1131CE04FEA4C0CBCEB410F04D80C0D661E342E8D
S1131CF0B7DDEBE7801A994150EA410608BF00219D
S1131D00E4E708BF1CEB430F28BF6FF00001DDE7D9
S1131D10F446400D40EAC120490006D200F00EF816
S1131D20004248BF6FF00040604700F007F84FF0F2
S1131D30004188428CBF08464042604740F0004062
S1131D40490DA1F58061491C05D4D1F11F0154BF8F
S1131D50C840C01770474FF00000704770B44FF090
S1131D60004591EA030C44BF6B40FFF71BBF00BF63
S1131D70841A71EB030603D2001BB141121973419B
S1131D804FF4001C1CEB410F34BF7CEB430443E0D5
S1131D900C0DA4EB1356352E50DC45EAC323DB0AA5
S1131DA045EAC121C912B6F120050DDD63FA05F635
S1131DB0EB4086EA0305124218BF45F00105C0183E
S1131DC051F100010CD213E062FA06F5F2405540DD
S1131DD0F3415A40B340F3405A408018594107D365
S1131DE049085FEA30005FEA350528BF45F0010580
S1131DF001F58011420875F1004250F1000041EBF9
S1131E00045170BC4FF4001C1CEB410F38BF7047E9
S1131E100020090D090570471CEB410F10D252EA4E
S1131E2043060BD0BCEB410F05D80C0DAB43661E2B
S1131E30342EB5DD02E0AB438018594170BC7047C5
S1131E4070BC7047F0B56948006850F400506749A9
S1131E5008606748007810F0F300654908700020B6
S1131E6064490870644800684FF47A7181FB00018A
S1131E705FF4E112002300F0B9F904005E48006841
S1131E804FF4FA4181FB00015FF4E112002300F0FA
S1131E90ADF9B0EB44155848006842F2107181FB6B
S1131EA0000115EB4412521CD31700F09FF9534A5A
S1131EB05FF0FF3380185941002915DB01DC00284D
S1131EC012D34D48006842F2107181FB000115EBFA
S1131ED04412521CD31700F089F9484A5FF0FF33CB
S1131EE0861851EB030713E04348006842F210716F
S1131EF081FB000115EB4412521CD31700F076F954
S1131F003E4A5FF0FF3380185941464271EB410766
S1131F103948006842F2107181FB000115EB44124C
S1131F20D31700F063F9354A5FF0FF338018594145
S1131F30002913DB01DC002810D32F48006842F28B
S1131F40107181FB000115EB4412D31700F04EF918
S1131F502A4A5FF0FF338018594112E0264800688E
S1131F6042F2107181FB000115EB4412D31700F00B
S1131F703DF9224A5FF0FF3380185941404271EB2A
S1131F8041018F4203DC01DB864200D26D1C20122A
S1131F9010F01F001A4908701A48047015F01F0049
S1131FA0194908704FF44070184908604FF44070A4
S1131FB0174908600E48007850F02C000C4908704E
S1131FC0F0BD144909780906FBD513490870704718
S1131FD007E0104A12781206FBD502780E4B1A70ED
S1131FE0401C0A00511E002AF3D17047348004407B
S1131FF003D0064002D006406C04FF1F0036F7FFF2
S113200000D0064001D006400AD0064044B0044047
S113201040B0044004D0064007D00640002840F1F8
S11320200780F446404200F003F850F00040604757
S11320300AD0B0FA80F18840D1F19D01C9050206A9
S113204072F1004241EB102070470000FF2212EAB7
S1132050D05C1DBF12EAD153944593422BE09C44BB
S1132060D30780EA01021A4043EA002043EA01212F
S1132070A1FB0030410038BF40007CF17F010BDB45
S1132080FE294ADA5B0842EAC15153EA006373F15C
S1132090004C51EB10207047D1F1080CDCF1200109
S11320A02FDB5B0810FA01F10B4373F1004120FAB6
S11320B00CF05041704794451CBF02EAD15393423F
S11320C080EA010202F000421DD0400019D049000C
S11320D017D05BB9634514D00902B1FA81F3994072
S11320E0BCEB030CC00140F00040C1E70002B0FAB1
S11320F080FC10FA0CF0B3EB0C0CC90141F0004168
S1132100B6E71000704740000AD0490008D010F12B
S1132110807F94BF11F1807F02E042F0FF4070475E
S1132120D043704790EA010F44BF81F0004100F0B2
S1132130F7B800BF421A3CBF801A89184FF0004C10
S1132140C0F3C752FF2A24D0C1F3C75313B3D21A22
S1132150D2F1190327DD4CEA01214CFA03F321EAF9
S11321600303D140C20D4CEA0020401834BF20EADA
S11321700C004CEA5000D20553EA006373EB0C0CDC
S113218052EB1020420012F1807F38BF7047C00D1F
S1132190C0057047490212BF9A4200EB5120F8E78C
S11321A0D2F11703D9D570474100090E7F3915D4F0
S11321B0D1F11F0114D4400007D2C00140F0004007
S11321C0C84048BF6FF000407047C00140F0004075
S11321D0C8404CBF4FF00040404270470020704759
S11321E000424FF0004058BFC043704713F0004C0A
S11321F003D55B42524263F100039CEA210C00F0D8
S1132200178010B5644603D34942404261F100018E
S113221000F00EF8640004D34942404261F1000129
S1132220244203D55B42524263F1000310BD000017
S11322301B4213D1094236D12AB18446B0FBF2F0D5
S113224002FB10C2704700F0D7B8FCD30022002371
S113225070470B000200002100207047904271EB90
S1132260030CF6D370B5B1FA81F4B3FA83F52C1BE1
S1132270A340C4F1200532FA05F63343A2405FF0CF
S11322800046E64002E05B085FEA3202841A71EB22
S1132290030524BF204629467641F4D302000B00EF
S11322A03000002170BD012ACFD970B5140C20D0A4
S11322B0B1FA81F4B2FA82F5C4F120046419B4F1DC
S11322C02006D6D3B2405FF00044F440002502E07B
S11322D052085FEA3303C61A71EB020E24BF30467C
S11322E0714664416D41F3D302000B0020002900C4
S11322F070BD0C46B1FBF2F102FB11452D0445EA19
S11323001045B5FBF2F402FB145580B240EA0545D2
S1132310B5FBF2F002FB105240EA044070BD00002D
S1132320431A4FF000423EBF5340C01AC91800BFC1
S1132330D3095FEAD05C13EB400F34BFB3EB410F1A
S113234040E07CEBD1530CD342EA012122D8D1EBFB
S1132350402009D3400A28BF5FEA500140EBCC502B
S11323607047401A15D04002B0FA80F2521C9040D7
S1132370400A4FEA3C23B3EB026384BF00EB7300D3
S113238007E040F400001A16DB07C2F10102D04056
S113239018437047182BFCDC31FA03F202FA03F3FA
S11323A0591A38BF42F00102D2EB40203CBF400032
S11323B0ACF1010C5FEACC5CC20572F100414CEB5C
S11323C05020704713EB400F0FD24B0009D0ACEBF9
S11323D0D153022B03DB4902172BDDDD70479143F8
S11323E0401A4300D5D10020704713EB410FD0D3DE
S11323F06FF00000704700007047000010B5002423
S11324004FF48070DFF8481508604FF48070DFF8EF
S113241044150860DFF84005006850F00200DFF85A
S113242038150860DFF83005006850F00100DFF867
S113243028150860DFF82405006830F00200DFF892
S11324401C150860DFF81405006840084000DFF838
S11324500C150860E4B2322C06DA641C00F006F8AD
S11324600128F7D1012000E0002010BD10B50024A0
S113247001210C2000F008FA002801D1002060E0BE
S11324800020DFF8DC1408600120DFF8D4140860B1
S11324905FF0FF30DFF8CC140968401ADFF8C81485
S11324A00968B0FBF1F042F211718842F0D30021C7
S11324B00C2000F0E9F9002801D1002041E00020BF
S11324C0DFF89C1408600120DFF8941408605FF0C2
S11324D0FF30DFF890140968401ADFF88C1409689B
S11324E0B0FBF1F043F699218842F0D3002400E0D8
S11324F0641CA12C24D20020DFF86414086001209D
S1132500DFF85C1408605FF0FF30DFF858140968E6
S1132510401ADFF854140968B0FBF1F0B0F5FA6F13
S1132520F1D9DFF8480410EBC4004168DFF83C043B
S113253050F8340000F0A8F90028D9D1002000E0B8
S1132540012010BDDFF81404006850F00100DFF82A
S11325500C1408600020DFF8081408600120DFF87C
S1132560001408605FF0FF30DFF8F8130968401AC0
S1132570DFF8F4130968B0FBF1F01028F2D3DFF8A8
S1132580DC03006850F00200DFF8D013086000207C
S1132590DFF8CC1308600120DFF8C41308605FF093
S11325A0FF30DFF8C0130968401ADFF8BC1309686C
S11325B0B0FBF1F01028F2D3DFF8A0030068400864
S11325C04000DFF8981308600020DFF894130860D7
S11325D00120DFF88C1308605FF0FF30DFF884130C
S11325E00968401ADFF880130968B0FBF1F010287D
S11325F0F2D3DFF86803006830F00200DFF85C1300
S113260008600020DFF8581308600120DFF8501339
S113261008605FF0FF30DFF84C130968401ADFF8F8
S113262048130968B0FBF1F01028F2D37047DFF8C3
S11326302C03006840084000DFF8201308600020E5
S1132640DFF81C1308600120DFF8141308605FF042
S1132650FF30DFF810130968401ADFF80C1309681B
S1132660B0FBF1F01028F2D3DFF8F002006850F06C
S11326700200DFF8E81208600020DFF8E4120860C6
S11326800120DFF8DC1208605FF0FF30DFF8D412BD
S11326900968401ADFF8D0120968B0FBF1F010287D
S11326A0F2D3DFF8B802006850F00100DFF8AC1292
S11326B008600020DFF8A81208600120DFF8A012EB
S11326C008605FF0FF30DFF89C120968401ADFF8F9
S11326D098120968B0FBF1F01028F2D3704700217A
S11326E057E0DFF87822126852085200DFF86C32A3
S11326F01A600022DFF868321A600122DFF86032C3
S11327001A605FF0FF32DFF85C321B68D21ADFF820
S113271058321B68B2FBF3F20F2AF2D3DFF83C22E3
S1132720126852F00202DFF834321A600022DFF835
S113273030321A600122DFF828321A605FF0FF326B
S1132740DFF820321B68D21ADFF81C321B68B2FB98
S1132750F3F2102AF2D3DFF80422126832F00202F4
S1132760DFF8F8311A600022DFF8F4311A60012230
S1132770DFF8EC311A605FF0FF32DFF8E8311B68F4
S1132780D21ADFF8E4311B68B2FBF3F2022AF2D367
S1132790491CC9B208290DDAC0B210FA01F21206B6
S11327A09FD5DFF8B821126852F00102DFF8AC318E
S11327B01A609EE70020DFF8A81108600120DFF806
S11327C0A01108605FF0FF30DFF898110968401A23
S11327D0DFF894110968B0FBF1F00628F2D3DFF8B2
S11327E078010068400840005B49086000205C49AB
S11327F0086001205A4908605FF0FF3059490968B0
S1132800401A59490968B0FBF1F00B28F4D3534836
S1132810006850F0020051490860002050490860E7
S113282001204F4908605FF0FF304E490968401AA3
S11328304D490968B0FBF1F01A28F4D34C480068FC
S1132840C00701D5002000E001204449096831F0A7
S11328500201424A11600021414A11600121404AAB
S113286011605FF0FF313F4A1268891A3E4A1268CC
S1132870B1FBF2F10B29F4D33749096851F0010196
S1132880354A1160C0B2704738B504000D00FFF737
S113289059FE9020FFF723FF002803D1FFF7C7FE5E
S11328A0002053E000202E49086001202C490860D4
S11328B05FF0FF302B490968401A2B490968B0FBC7
S11328C0F1F01528F4D32000C0B2FFF708FF002868
S11328D003D1FFF7ACFE002038E000202049086057
S11328E001201F4908605FF0FF301E490968401A43
S11328F01D490968B0FBF1F01528F4D3280AC0B2C9
S1132900FFF7EDFE002803D1FFF791FE00201DE044
S11329100020134908600120114908605FF0FF306E
S113292010490968401A10490968B0FBF1F01528EC
S1132930F4D32800C0B2FFF7D2FE002803D1FFF77A
S113294076FE002002E0FFF772FE012032BD000097
S113295004D0044000D0044014F10F4000F10F40B3
S113296038710340347103407004FF1F7429000060
S113297010F10F4015000000327F0000200000001D
S1132980D10100007000000004000000730000008A
S1132990F7020000C2000000400000001C0000001C
S11329A003000000310000001F000000320000009E
S11329B01A0000003300000012000000AF00000005
S11329C0000000002B0000000300000010000000C5
S11329D0400000000F00000011000000150000007E
S11329E0327F00001C000000020000000100000013
S11329F019000000020000000400000003000000B1
S1132A00E001000004000000F002000005000000E6
S1132A1064000000060000001F0000000700000022
S1132A208803000008000000C8000000090000003E
S1132A30960000000A000000640100000B00000082
S1132A40FA0000000C000000000000000D0000006F
S1132A50050300000E000000000000000F0000004D
S1132A6011000000100000002D0000001100000003
S1132A704280000012000000220000001300000049
S1132A80320E000014000000020E000015000000C9
S1132A90320E00001600000002280000170000009B
S1132AA0383E000018000000383E00001900000005
S1132AB0022800001A000000280400001B00000087
S1132AC0000000001C000000020000001D000000C7
S1132AD0000000001E000000000000001F000000B5
S1132AE00000000020000000110000002100000090
S1132AF0200000002200000020000000230000004D
S1132B001000000024000000100000002500000058
S1132B102000000026000000100000002700000034
S1132B201000000028000000100000002900000030
S1132B30100000002A000000200000002B0000000C
S1132B40040000002C000000040000002D00000020
S1132B50040000002E000000070000002F00000009
S1132B6004000000300000000300000031000000F9
S1132B701D000000320000001800000033000000B7
S1132B8015000000340000000400000035000000BF
S1132B904000000036000000400000003700000044
S1132BA000000000380000000000000046000000A3
S1132BB01D23000047000000808000004C0000003E
S1132BC0020000006000000000000000610000003E
S1132BD0000000006200000000000000630000002C
S1132BE00000000064000000000000006500000018
S1132BF00000000066000000000000006700000004
S1132C00000000006C0000000000000070000000E4
S1132C103400000071000000000000007200000099
S1132C20DE00000073000000F702000074000000E2
S1132C30000000007F000000000000008000000091
S1132C40F400000081000000F40000008200000095
S1132C50F400000083000000F40000008400000081
S1132C60F400000085000000F4000000860000006D
S1132C70F400000087000000F40000008800000059
S1132C80F400000089000000F40000008A00000045
S1132C90F40000008B000000F40000008C00000031
S1132CA0F40000008D000000F40000008E0000001D
S1132CB0F40000008F000000F40000009000000009
S1132CC0F400000091000000F400000092000000F5
S1132CD0F400000093000000F400000094000000E1
S1132CE0F400000095000000F400000096000000CD
S1132CF0F400000097000000F400000098000000B9
S1132D00F400000099000000000000009A00000098
S1132D10960000009B0000002C0100009C000000B5
S1132D20C20100009D000000580200009E00000047
S1132D30F00200009F00000000000000A00000005E
S1132D4060000000A1000000C0000000A20000001C
S1132D5020010000A300000080010000A400000086
S1132D60E0010000A50000003A000000A6000000F9
S1132D7002000000A700000000000000A8000000FE
S1132D8000000000A900000002000000AA000000EA
S1132D9000000000AB00000002000000AF000000D3
S1132DA003000000B0000000E0AB0000B100000030
S1132DB002000000B200000010000000B300000098
S1132DC010000000B400000000000000B500000086
S1132DD000000000B600000000000000B700000082
S1132DE000000000BD00000004010000BE0000005F
S1132DF014000000BF00000016000000C000000026
S1132E000A000000C200000040180000C3000000D7
S1132E1000000000C400000016440000C5000000CB
S1132E2021440000F100000000000000FE0000004A
S1132E30EFBE000074000000080000000000000065
S1132E40000000000000000000000000000000007E
S1132E50000000000000000000000000000000006E
S1132E60000000000000000000000000000000005E
S1132E70000000000000000000000000DFF800F087
S1132E801104FF1F80B5C0B2002816D0C0B20128BB
S1132E9013D0C0B2022810D0C0B203280DD0C0B2E3
S1132EA004280AD0C0B2052807D0C0B2062804D02E
S1132EB0C0B2072801D00020AEE00022624B1A7095
S1132EC0624A126852F08052604B1A60604A12786B
S1132ED052F080025E4B1A7098225E4B1A705E4A62
S1132EE01278D206FBD45C4A1278C2F38102D2B2C1
S1132EF0022AF8D1C0B2072808D0C0B2022805D0EF
S1132F00C0B2032802D0C0B2042803D10122534B1B
S1132F101A7002E00322514B1A700022504B1A70AF
S1132F20C0B200280BD002281FD013D3042832D0FB
S1132F3026D3062845D039D307284DD056E001239F
S1132F40002200210020FFF799FF41204449087026
S1132F5032214BE00323012201210020FFF78EFFE1
S1132F605A203F490870642140E0042301220121D2
S1132F700020FFF783FF502039490870A02135E075
S1132F800523012201210020FFF778FF5520344951
S1132F900870B4212AE00523012201210020FFF753
S1132FA06DFF5A202E490870C8211FE0012300221A
S1132FB000210020FFF762FF4020294908703021DA
S1132FC014E00323012201210020FFF757FF5820BA
S1132FD023490870602109E0042301220121002013
S1132FE0FFF74CFF48201E49087080211A480078DA
S1132FF08006FBD5184800784006FBD515480078B4
S113300010F03F00134A107013480078C0F3810099
S1133010C0B20328F8D1080002BD1248006850F479
S11330208050104908604FF4E0600F490860704711
S11330300E48006850F001000C4908604FF4A0608D
S11330400B4908607047000001400640348004408A
S113305008C00740004006400640064004400640C1
S11330600540064004800440189004404080044019
S11330700CB004404FF480704D4908604FF48070E8
S11330804C4908604FF480704B4908604FF48070DD
S11330904A4908604FF48070494908604FF48070D1
S11330A0484908604FF48070474908604FF48070C5
S11330B0464908604FF48070454908604FF48070B9
S11330C0444908604FF4807043490860082005E0D3
S11330D04FF48171414A42F82010401C1028F7DB5C
S11330E03F48006830F040003D4908603D480068B2
S11330F030F004003B4908603A48006830F01000A2
S1133100384908603748006830F0400035490860A5
S11331103548006830F4007033490860334800686B
S113312050F02000314908602E48006850F080605B
S11331302C4908602B48006850F0080029490860B1
S11331402848006850F02000264908602548006897
S113315050F08070234908602248006850F00070E5
S1133160204908602248006850F020002049086087
S11331702048006850F080601E4908601D480068BF
S113318050F008001B4908601A48006850F02000FD
S1133190184908601748006850F0807015490860A5
S11331A01448006850F0007012490860704700BF6E
S11331B018C0044008D0044010D0044018D0044083
S11331C014B0044068D004400CD0044014D004402F
S11331D060D0044064D0044024A0044000B0044003
S11331E0D4F00F4014F10F4054F00F4094F00F400E
S11331F080F00F4000F10F4080B500F003F800F0BC
S113320047F801BD3C48006850F080703A490860B6
S113321004203A49086000203949086000203949EF
S11332200860002038490860002038490860002000
S11332303749086000203749086000203649086093
S113324000203649086000203549086000203549CF
S113325008600020344908604FF47A7033490860EC
S113326028202F4908600020314908604FF480600D
S1133270304908600A20224908604FF4FA702C494A
S113328008602D48006850F400702B4908607047AE
S11332902A48006850F080702849086004202849B2
S11332A008600020274908600020274908600020A2
S11332B02649086000202649086000202549086046
S11332C043F2D400244908602820214908600020E2
S11332D0224908604FF44070214908600D201949C3
S11332E0086042F2F0301D4908601E48006850F43E
S11332F000701C49086070473C80044054800340BF
S1133300008003404C800340048003400C80034051
S1133310148003401C800340248003402C8003401D
S1133320348003403C8003404480034008800340D1
S11333303880034014C00440988003403080044027
S113334054800B4000800B404C800B4004800B40A9
S11333500C800B4014800B4008800B4010800B4005
S113336048A0044098800B4080B500F055F800F068
S113337005F800F06DF800F0A3F8FEE780B51C48EE
S11333801C4988420BD0002006E01A4951F820104D
S1133390174A42F82010401CB0F5826FF5DB144840
S11333A000F0B8F81449154A1548801A03E0137858
S11333B00B70521C491C0300581E012BF7DA1149EB
S11333C01148401A02E000220A70491C0200501EF3
S11333D0012AF8DA0D490E4A0E48801A03E01378E0
S11333E00B70521C491C0300581E012BF7DA01BD57
S11333F00000FF1F000000005C04FF1F583800009D
S1133400603800006404FF1F422FFF1F1004FF1FD9
S1133410483700009437000080B500F009F80A48E6
S113342000884FF6FE7108400749088001BD00007E
S113343072B64CF22050054908804DF62810034915
S1133440088062B670470000002005400E20054049
S113345080B51548006850F4785013490860072077
S1133460FFF710FD11490860104800684FF47A71A5
S113347048430F4908600E4800680E490968C1F3C3
S11334800361491CB0FBF1F00B4908600A4800686D
S11334904FF47A7190FBF1F008490860FFF7BDFD25
S11334A0FFF7C6FD01BD00BF388004406804FF1F5C
S11334B06404FF1F448004406C04FF1F7004FF1F5A
S11334C080B572B600F02CF800200D490860012088
S11334D00B4908605FF0FF300A490968401A0A493D
S11334E00968B0FBF1F009498842F3D3FCF7AEFF59
S11334F062B6074800780228FBD1FDF723F8F8E705
S113350038710340347103407004FF1F41420F00BF
S11335103E2FFF1F014908607047000008ED00E0DE
S113352080B5FFF7A7FDFFF767FE00F02BF8FEF765
S11335300BF900F06DF8FEF785FC00F0A3F800F03D
S1133540D5F800200B49086001200A4908605FF0A3
S1133550FF3009490968401A08490968B0FBF1F0CD
S113356007498842F3D3FEF749FF002800D1FEE75C
S113357001BD00BF38710340347103407004FF1F64
S113358081841E001748006850F400001549086043
S11335900020154908601548006840214843193047
S11335A0134908600020134908607FF01F00124986
S11335B008600020114908600C4800684FF47A61E3
S11335C048430F49086000200E49086003200D4954
S11335D008607FF01F000C49086000200B49086058
S11335E0704700BF3C800440007003407004FF1F1C
S11335F000710340087103401071034018710340C7
S11336002071034028710340307103403871034036
S11336104FF4C060114908604FF4C060104908605D
S11336201048006850F000700E49086005200E49EB
S1133630086000200D49086000200D4908604FF61D
S1133640FF700C49086019200B490860C1200B4920
S11336500860FF200A490860704700BF00A00440CA
S113366004A004403C800440549003404C90034028
S1133670049003400890034000900340809003406E
S1133680789003404FF48070DFF8501008604FF4D6
S11336908070DFF84C100860DFF84800006850F0D4
S11336A00400DFF840100860DFF83800006850F0CC
S11336B00800DFF830100860DFF82C00006850F0D4
S11336C00800DFF824100860DFF81C00006850F0E0
S11336D00400DFF814100860704700000CA00440D8
S11336E008A0044054F00F4040F00F40DFF84400BD
S11336F0006850F04000DFF83C1008604FF40070A0
S1133700DFF8341008604FF40070DFF83010086000
S1133710DFF82800006850F02000DFF8201008606F
S11337206020DFF81C1008708020DFF81810087083
S1133730704700003480044008A004400CA00440FA
S1133740016006400260064070B4104C24680F4DBE
S11337502D6855F47F050D4E3560090611F0706132
S113376051EA0070110511F470010843190411F4B1
S11337707021084306490860002000E0401CC0B2E4
S11337809842FBD30148046070BC704700F00140CC
S11337904480044010B5074979441831064C7C44F0
S11337A0163404E00A68081D511888470146A142EE
S11337B0F8D110BD2C000000380000000548006856
S11337C0401C0449086004480078C0B203490860FA
S11337D0704700BF342FFF1F04ED00E0302FFF1FA0
S11337E08FE3FFFFE02A00006404FF1F00000000D5
S11337F000F00BF8002801D0FFF7CCFF0020C046F2
S1133800C046FFF75DFE00F002F80120704700F0AB
S113381001B800000746384600F002F8FBE7000054
S113382080B5C046C046024A11001820ABBEFBE773
S113383026000200C046C046C046C046FFF7D8FF77
S1133840FE01FE01FE000000151617181900000005
S1133850FD02FD02FD0000005100000051000000C7
S90338358F
